{
  "_format": "hh-sol-artifact-1",
  "contractName": "Dauction",
  "sourceName": "contracts/Dauction.sol",
  "abi": [
    {
      "inputs": [
        {
          "components": [
            {
              "internalType": "address",
              "name": "token",
              "type": "address"
            },
            {
              "internalType": "address",
              "name": "priceFeed",
              "type": "address"
            }
          ],
          "internalType": "struct Dauction.BidTokens[]",
          "name": "bidTokensArray",
          "type": "tuple[]"
        },
        {
          "internalType": "address",
          "name": "_USDT",
          "type": "address"
        },
        {
          "internalType": "uint256",
          "name": "_minAuctionPeriod",
          "type": "uint256"
        }
      ],
      "stateMutability": "nonpayable",
      "type": "constructor"
    },
    {
      "anonymous": false,
      "inputs": [
        {
          "indexed": false,
          "internalType": "address",
          "name": "nft",
          "type": "address"
        },
        {
          "indexed": false,
          "internalType": "uint256",
          "name": "tokenId",
          "type": "uint256"
        },
        {
          "indexed": false,
          "internalType": "address",
          "name": "seller",
          "type": "address"
        },
        {
          "indexed": false,
          "internalType": "uint256",
          "name": "minBidPrice",
          "type": "uint256"
        },
        {
          "indexed": false,
          "internalType": "uint256",
          "name": "startTime",
          "type": "uint256"
        },
        {
          "indexed": false,
          "internalType": "uint256",
          "name": "endTime",
          "type": "uint256"
        },
        {
          "indexed": false,
          "internalType": "uint256",
          "name": "revealDuration",
          "type": "uint256"
        },
        {
          "indexed": false,
          "internalType": "uint256",
          "name": "auctionCreatedAt",
          "type": "uint256"
        }
      ],
      "name": "AuctionCreated",
      "type": "event"
    },
    {
      "anonymous": false,
      "inputs": [
        {
          "indexed": false,
          "internalType": "address",
          "name": "nftAddress",
          "type": "address"
        },
        {
          "indexed": false,
          "internalType": "uint256",
          "name": "tokenId",
          "type": "uint256"
        },
        {
          "indexed": false,
          "internalType": "address",
          "name": "previousOwner",
          "type": "address"
        },
        {
          "indexed": false,
          "internalType": "address",
          "name": "newOwner",
          "type": "address"
        },
        {
          "indexed": false,
          "internalType": "uint256",
          "name": "tokenAmountPaid",
          "type": "uint256"
        },
        {
          "indexed": false,
          "internalType": "uint256",
          "name": "auctionSettleTime",
          "type": "uint256"
        }
      ],
      "name": "AuctionSettled",
      "type": "event"
    },
    {
      "anonymous": false,
      "inputs": [
        {
          "indexed": false,
          "internalType": "address",
          "name": "nftAddress",
          "type": "address"
        },
        {
          "indexed": false,
          "internalType": "uint256",
          "name": "tokenId",
          "type": "uint256"
        },
        {
          "indexed": false,
          "internalType": "address",
          "name": "owner",
          "type": "address"
        },
        {
          "indexed": false,
          "internalType": "uint256",
          "name": "time",
          "type": "uint256"
        }
      ],
      "name": "AuctionUnsettled",
      "type": "event"
    },
    {
      "anonymous": false,
      "inputs": [
        {
          "indexed": false,
          "internalType": "address",
          "name": "nftContractAddress",
          "type": "address"
        },
        {
          "indexed": false,
          "internalType": "uint256",
          "name": "tokenId",
          "type": "uint256"
        },
        {
          "indexed": false,
          "internalType": "bytes32",
          "name": "bidCommitment",
          "type": "bytes32"
        },
        {
          "indexed": false,
          "internalType": "uint256",
          "name": "biddedAt",
          "type": "uint256"
        }
      ],
      "name": "BidCreated",
      "type": "event"
    },
    {
      "anonymous": false,
      "inputs": [
        {
          "indexed": false,
          "internalType": "address",
          "name": "tokenContract",
          "type": "address"
        },
        {
          "indexed": false,
          "internalType": "uint256",
          "name": "tokenId",
          "type": "uint256"
        },
        {
          "indexed": false,
          "internalType": "bytes32",
          "name": "bidHash",
          "type": "bytes32"
        },
        {
          "indexed": false,
          "internalType": "address",
          "name": "bidder",
          "type": "address"
        },
        {
          "indexed": false,
          "internalType": "bytes32",
          "name": "salt",
          "type": "bytes32"
        },
        {
          "indexed": false,
          "internalType": "uint256",
          "name": "bidValue",
          "type": "uint256"
        }
      ],
      "name": "BidRevealed",
      "type": "event"
    },
    {
      "inputs": [],
      "name": "activeAuctions",
      "outputs": [
        {
          "internalType": "uint256",
          "name": "",
          "type": "uint256"
        }
      ],
      "stateMutability": "view",
      "type": "function"
    },
    {
      "inputs": [
        {
          "internalType": "address",
          "name": "",
          "type": "address"
        },
        {
          "internalType": "uint256",
          "name": "",
          "type": "uint256"
        }
      ],
      "name": "auctions",
      "outputs": [
        {
          "internalType": "address",
          "name": "nftContract",
          "type": "address"
        },
        {
          "internalType": "address payable",
          "name": "owner",
          "type": "address"
        },
        {
          "internalType": "uint256",
          "name": "startTime",
          "type": "uint256"
        },
        {
          "internalType": "uint256",
          "name": "minBidPrice",
          "type": "uint256"
        },
        {
          "internalType": "uint256",
          "name": "endTime",
          "type": "uint256"
        },
        {
          "internalType": "uint256",
          "name": "revealDuration",
          "type": "uint256"
        },
        {
          "internalType": "enum Dauction.AuctionStatus",
          "name": "auctionStatus",
          "type": "uint8"
        }
      ],
      "stateMutability": "view",
      "type": "function"
    },
    {
      "inputs": [
        {
          "internalType": "address",
          "name": "",
          "type": "address"
        }
      ],
      "name": "bidTokenToPriceFeed",
      "outputs": [
        {
          "internalType": "address",
          "name": "",
          "type": "address"
        }
      ],
      "stateMutability": "view",
      "type": "function"
    },
    {
      "inputs": [
        {
          "internalType": "uint256",
          "name": "",
          "type": "uint256"
        }
      ],
      "name": "bidTokens",
      "outputs": [
        {
          "internalType": "address",
          "name": "token",
          "type": "address"
        },
        {
          "internalType": "address",
          "name": "priceFeed",
          "type": "address"
        }
      ],
      "stateMutability": "view",
      "type": "function"
    },
    {
      "inputs": [
        {
          "internalType": "address",
          "name": "_priceFeed",
          "type": "address"
        },
        {
          "internalType": "uint256",
          "name": "bidAmount",
          "type": "uint256"
        }
      ],
      "name": "calculateBasePrice",
      "outputs": [
        {
          "internalType": "uint256",
          "name": "",
          "type": "uint256"
        }
      ],
      "stateMutability": "view",
      "type": "function"
    },
    {
      "inputs": [
        {
          "internalType": "address",
          "name": "_bidToken",
          "type": "address"
        }
      ],
      "name": "checkBidTokenUSDTEquivalence",
      "outputs": [
        {
          "internalType": "bool",
          "name": "",
          "type": "bool"
        }
      ],
      "stateMutability": "view",
      "type": "function"
    },
    {
      "inputs": [
        {
          "internalType": "address",
          "name": "tokenAddress",
          "type": "address"
        },
        {
          "internalType": "address",
          "name": "approver",
          "type": "address"
        },
        {
          "internalType": "uint256",
          "name": "bidValue",
          "type": "uint256"
        }
      ],
      "name": "checkTokenBalanceAndApproval",
      "outputs": [
        {
          "internalType": "bool",
          "name": "",
          "type": "bool"
        }
      ],
      "stateMutability": "view",
      "type": "function"
    },
    {
      "inputs": [
        {
          "internalType": "address",
          "name": "_nftAddress",
          "type": "address"
        },
        {
          "internalType": "uint256",
          "name": "_tokenId",
          "type": "uint256"
        },
        {
          "internalType": "uint256",
          "name": "_minBidPrice",
          "type": "uint256"
        },
        {
          "internalType": "uint256",
          "name": "_startTime",
          "type": "uint256"
        },
        {
          "internalType": "uint256",
          "name": "_endTime",
          "type": "uint256"
        },
        {
          "internalType": "uint256",
          "name": "_revealDuration",
          "type": "uint256"
        }
      ],
      "name": "createAuction",
      "outputs": [],
      "stateMutability": "nonpayable",
      "type": "function"
    },
    {
      "inputs": [
        {
          "internalType": "address",
          "name": "nftContractAddress",
          "type": "address"
        },
        {
          "internalType": "uint256",
          "name": "tokenId",
          "type": "uint256"
        },
        {
          "internalType": "bytes32",
          "name": "bidCommitment",
          "type": "bytes32"
        },
        {
          "internalType": "address",
          "name": "bidToken",
          "type": "address"
        }
      ],
      "name": "createBid",
      "outputs": [],
      "stateMutability": "nonpayable",
      "type": "function"
    },
    {
      "inputs": [
        {
          "internalType": "address",
          "name": "nftAddress",
          "type": "address"
        },
        {
          "internalType": "uint256",
          "name": "tokenId",
          "type": "uint256"
        }
      ],
      "name": "getAuctionStatus",
      "outputs": [
        {
          "internalType": "string",
          "name": "_auctionStatus",
          "type": "string"
        }
      ],
      "stateMutability": "view",
      "type": "function"
    },
    {
      "inputs": [
        {
          "internalType": "address",
          "name": "nftAddress",
          "type": "address"
        },
        {
          "internalType": "uint256",
          "name": "tokenId",
          "type": "uint256"
        },
        {
          "internalType": "address",
          "name": "bidder",
          "type": "address"
        }
      ],
      "name": "getBid",
      "outputs": [
        {
          "components": [
            {
              "internalType": "uint256",
              "name": "amountBidded",
              "type": "uint256"
            },
            {
              "internalType": "bytes32",
              "name": "bidCommitHash",
              "type": "bytes32"
            },
            {
              "internalType": "address",
              "name": "bidToken",
              "type": "address"
            }
          ],
          "internalType": "struct Dauction.Bid",
          "name": "",
          "type": "tuple"
        }
      ],
      "stateMutability": "view",
      "type": "function"
    },
    {
      "inputs": [],
      "name": "getBidTokens",
      "outputs": [
        {
          "components": [
            {
              "internalType": "address",
              "name": "token",
              "type": "address"
            },
            {
              "internalType": "address",
              "name": "priceFeed",
              "type": "address"
            }
          ],
          "internalType": "struct Dauction.BidTokens[]",
          "name": "",
          "type": "tuple[]"
        }
      ],
      "stateMutability": "view",
      "type": "function"
    },
    {
      "inputs": [
        {
          "internalType": "address",
          "name": "nftAddress",
          "type": "address"
        },
        {
          "internalType": "uint256",
          "name": "tokenId",
          "type": "uint256"
        }
      ],
      "name": "getBidders",
      "outputs": [
        {
          "internalType": "address[]",
          "name": "",
          "type": "address[]"
        }
      ],
      "stateMutability": "view",
      "type": "function"
    },
    {
      "inputs": [
        {
          "internalType": "address",
          "name": "_priceFeed",
          "type": "address"
        }
      ],
      "name": "getLatestPrice",
      "outputs": [
        {
          "internalType": "int256",
          "name": "",
          "type": "int256"
        },
        {
          "internalType": "uint8",
          "name": "",
          "type": "uint8"
        }
      ],
      "stateMutability": "view",
      "type": "function"
    },
    {
      "inputs": [
        {
          "internalType": "address",
          "name": "nftAddress",
          "type": "address"
        },
        {
          "internalType": "uint256",
          "name": "tokenId",
          "type": "uint256"
        }
      ],
      "name": "getMinBidPrice",
      "outputs": [
        {
          "internalType": "uint256",
          "name": "",
          "type": "uint256"
        }
      ],
      "stateMutability": "view",
      "type": "function"
    },
    {
      "inputs": [],
      "name": "minAuctionPeriod",
      "outputs": [
        {
          "internalType": "uint256",
          "name": "",
          "type": "uint256"
        }
      ],
      "stateMutability": "view",
      "type": "function"
    },
    {
      "inputs": [
        {
          "internalType": "address",
          "name": "nftAddress",
          "type": "address"
        },
        {
          "internalType": "uint256",
          "name": "tokenId",
          "type": "uint256"
        },
        {
          "internalType": "uint256",
          "name": "bidValue",
          "type": "uint256"
        },
        {
          "internalType": "bytes32",
          "name": "salt",
          "type": "bytes32"
        }
      ],
      "name": "revealBid",
      "outputs": [],
      "stateMutability": "nonpayable",
      "type": "function"
    },
    {
      "inputs": [
        {
          "internalType": "uint256",
          "name": "_auctionDuration",
          "type": "uint256"
        }
      ],
      "name": "setMinimumAuctionPeriod",
      "outputs": [],
      "stateMutability": "nonpayable",
      "type": "function"
    },
    {
      "inputs": [
        {
          "internalType": "address",
          "name": "nftAddress",
          "type": "address"
        },
        {
          "internalType": "uint256",
          "name": "tokenId",
          "type": "uint256"
        }
      ],
      "name": "settleAuction",
      "outputs": [],
      "stateMutability": "nonpayable",
      "type": "function"
    },
    {
      "inputs": [],
      "name": "totalAuctions",
      "outputs": [
        {
          "internalType": "uint256",
          "name": "",
          "type": "uint256"
        }
      ],
      "stateMutability": "view",
      "type": "function"
    }
  ],
  "bytecode": "0x60a06040523480156200001157600080fd5b50604051620047a7380380620047a783398181016040528101906200003791906200043d565b600160008190555060005b83518110156200012257838181518110620000625762000061620004b8565b5b60200260200101516020015160016000868481518110620000885762000087620004b8565b5b60200260200101516000015173ffffffffffffffffffffffffffffffffffffffff1673ffffffffffffffffffffffffffffffffffffffff16815260200190815260200160002060006101000a81548173ffffffffffffffffffffffffffffffffffffffff021916908373ffffffffffffffffffffffffffffffffffffffff1602179055508080620001199062000516565b91505062000042565b508173ffffffffffffffffffffffffffffffffffffffff1660808173ffffffffffffffffffffffffffffffffffffffff168152505033600660006101000a81548173ffffffffffffffffffffffffffffffffffffffff021916908373ffffffffffffffffffffffffffffffffffffffff160217905550603c81620001a7919062000563565b600481905550505050620005ae565b6000604051905090565b600080fd5b600080fd5b600080fd5b6000601f19601f8301169050919050565b7f4e487b7100000000000000000000000000000000000000000000000000000000600052604160045260246000fd5b6200021a82620001cf565b810181811067ffffffffffffffff821117156200023c576200023b620001e0565b5b80604052505050565b600062000251620001b6565b90506200025f82826200020f565b919050565b600067ffffffffffffffff821115620002825762000281620001e0565b5b602082029050602081019050919050565b600080fd5b600080fd5b600073ffffffffffffffffffffffffffffffffffffffff82169050919050565b6000620002ca826200029d565b9050919050565b620002dc81620002bd565b8114620002e857600080fd5b50565b600081519050620002fc81620002d1565b92915050565b6000604082840312156200031b576200031a62000298565b5b62000327604062000245565b905060006200033984828501620002eb565b60008301525060206200034f84828501620002eb565b60208301525092915050565b6000620003726200036c8462000264565b62000245565b9050808382526020820190506040840283018581111562000398576200039762000293565b5b835b81811015620003c55780620003b0888262000302565b8452602084019350506040810190506200039a565b5050509392505050565b600082601f830112620003e757620003e6620001ca565b5b8151620003f98482602086016200035b565b91505092915050565b6000819050919050565b620004178162000402565b81146200042357600080fd5b50565b60008151905062000437816200040c565b92915050565b600080600060608486031215620004595762000458620001c0565b5b600084015167ffffffffffffffff8111156200047a5762000479620001c5565b5b6200048886828701620003cf565b93505060206200049b86828701620002eb565b9250506040620004ae8682870162000426565b9150509250925092565b7f4e487b7100000000000000000000000000000000000000000000000000000000600052603260045260246000fd5b7f4e487b7100000000000000000000000000000000000000000000000000000000600052601160045260246000fd5b6000620005238262000402565b91507fffffffffffffffffffffffffffffffffffffffffffffffffffffffffffffffff8203620005585762000557620004e7565b5b600182019050919050565b6000620005708262000402565b91506200057d8362000402565b92508282026200058d8162000402565b91508282048414831517620005a757620005a6620004e7565b5b5092915050565b6080516141dd620005ca600039600061067701526141dd6000f3fe608060405234801561001057600080fd5b50600436106101165760003560e01c806368af2eae116100a2578063bf6af8be11610071578063bf6af8be14610330578063c2e0e7e01461034e578063d59feb6a1461036a578063e6f7fbd414610388578063f8a206fa146103b957610116565b806368af2eae146102ac5780637887df85146102c8578063791bb4ef146102e4578063b34171b51461030057610116565b8063194d07ca116100e9578063194d07ca146101ca5780631e8a0b32146101fa57806333d31bf51461022a57806344f91c1e1461025a5780635138b08c1461029057610116565b80630d587c1e1461011b578063102784981461014b57806316002f4a1461017b57806316345f1814610199575b600080fd5b610135600480360381019061013091906126f0565b6103e9565b60405161014291906127ee565b60405180910390f35b610165600480360381019061016091906126f0565b610515565b604051610172919061281f565b60405180910390f35b610183610573565b604051610190919061281f565b60405180910390f35b6101b360048036038101906101ae919061283a565b610579565b6040516101c192919061289c565b60405180910390f35b6101e460048036038101906101df919061283a565b610673565b6040516101f191906128e0565b60405180910390f35b610214600480360381019061020f91906126f0565b6106d9565b604051610221919061281f565b60405180910390f35b610244600480360381019061023f919061283a565b610718565b604051610251919061290a565b60405180910390f35b610274600480360381019061026f91906126f0565b61074b565b60405161028797969594939291906129bd565b60405180910390f35b6102aa60048036038101906102a591906126f0565b6107e7565b005b6102c660048036038101906102c19190612a2c565b610e5e565b005b6102e260048036038101906102dd9190612a8f565b610f47565b005b6102fe60048036038101906102f99190612af6565b611364565b005b61031a60048036038101906103159190612b83565b6117c3565b6040516103279190612c36565b60405180910390f35b610338611929565b604051610345919061281f565b60405180910390f35b61036860048036038101906103639190612c51565b61192f565b005b610372611efa565b60405161037f9190612d96565b60405180910390f35b6103a2600480360381019061039d9190612a2c565b612005565b6040516103b0929190612db8565b60405180910390f35b6103d360048036038101906103ce91906126f0565b612079565b6040516103e09190612e71565b60405180910390f35b60606000600560008573ffffffffffffffffffffffffffffffffffffffff1673ffffffffffffffffffffffffffffffffffffffff16815260200190815260200160002060008481526020019081526020016000206008018054806020026020016040519081016040528092919081815260200182805480156104c057602002820191906000526020600020905b8160009054906101000a900473ffffffffffffffffffffffffffffffffffffffff1673ffffffffffffffffffffffffffffffffffffffff1681526020019060010190808311610476575b50505050509050600081510361050b576040517f08c379a000000000000000000000000000000000000000000000000000000000815260040161050290612edf565b60405180910390fd5b8091505092915050565b6000600560008473ffffffffffffffffffffffffffffffffffffffff1673ffffffffffffffffffffffffffffffffffffffff168152602001908152602001600020600083815260200190815260200160002060030154905092915050565b60035481565b60008060008373ffffffffffffffffffffffffffffffffffffffff1663feaf968c6040518163ffffffff1660e01b815260040160a060405180830381865afa1580156105c9573d6000803e3d6000fd5b505050506040513d601f19601f820116820180604052508101906105ed9190612f82565b50505091505060008473ffffffffffffffffffffffffffffffffffffffff1663313ce5676040518163ffffffff1660e01b8152600401602060405180830381865afa158015610640573d6000803e3d6000fd5b505050506040513d601f19601f820116820180604052508101906106649190613029565b90508181935093505050915091565b60007f000000000000000000000000000000000000000000000000000000000000000073ffffffffffffffffffffffffffffffffffffffff168273ffffffffffffffffffffffffffffffffffffffff16146106cf5760006106d2565b60015b9050919050565b60008060006106e785610579565b9150915080600a6106f891906131b8565b82856107049190613203565b61070e9190613274565b9250505092915050565b60016020528060005260406000206000915054906101000a900473ffffffffffffffffffffffffffffffffffffffff1681565b6005602052816000526040600020602052806000526040600020600091509150508060000160009054906101000a900473ffffffffffffffffffffffffffffffffffffffff16908060010160009054906101000a900473ffffffffffffffffffffffffffffffffffffffff16908060020154908060030154908060040154908060050154908060060160009054906101000a900460ff16905087565b6000600560008473ffffffffffffffffffffffffffffffffffffffff1673ffffffffffffffffffffffffffffffffffffffff168152602001908152602001600020600083815260200190815260200160002090508060010160009054906101000a900473ffffffffffffffffffffffffffffffffffffffff1673ffffffffffffffffffffffffffffffffffffffff163373ffffffffffffffffffffffffffffffffffffffff16146108cd576040517f08c379a00000000000000000000000000000000000000000000000000000000081526004016108c4906132f1565b60405180910390fd5b80600501544211610913576040517f08c379a000000000000000000000000000000000000000000000000000000000815260040161090a9061335d565b60405180910390fd5b60008060008060005b8560080180549050811015610af1578560080181815481106109415761094061337d565b5b9060005260206000200160009054906101000a900473ffffffffffffffffffffffffffffffffffffffff16945060008660070160008773ffffffffffffffffffffffffffffffffffffffff1673ffffffffffffffffffffffffffffffffffffffff16815260200190815260200160002060405180606001604052908160008201548152602001600182015481526020016002820160009054906101000a900473ffffffffffffffffffffffffffffffffffffffff1673ffffffffffffffffffffffffffffffffffffffff1673ffffffffffffffffffffffffffffffffffffffff168152505090506000816000015103610a3a5750610ade565b806000015194506000816040015190506000610a5582610673565b610ac757610ac2600160008473ffffffffffffffffffffffffffffffffffffffff1673ffffffffffffffffffffffffffffffffffffffff16815260200190815260200160002060009054906101000a900473ffffffffffffffffffffffffffffffffffffffff16886106d9565b610ac9565b865b905085811115610ada578095508794505b5050505b8080610ae9906133ac565b91505061091c565b50600073ffffffffffffffffffffffffffffffffffffffff168173ffffffffffffffffffffffffffffffffffffffff161480610b305750846003015482105b15610c5657338560010160006101000a81548173ffffffffffffffffffffffffffffffffffffffff021916908373ffffffffffffffffffffffffffffffffffffffff16021790555060058560060160006101000a81548160ff02191690836005811115610ba057610b9f612946565b5b02179055508673ffffffffffffffffffffffffffffffffffffffff166342842e0e3033896040518463ffffffff1660e01b8152600401610be2939291906133f4565b600060405180830381600087803b158015610bfc57600080fd5b505af1158015610c10573d6000803e3d6000fd5b505050507f4c52329b429b6bc14602f8d8e34d003593c51b818a57a24fbc132479501432ad87873342604051610c49949392919061342b565b60405180910390a1610e4b565b60008560070160008373ffffffffffffffffffffffffffffffffffffffff1673ffffffffffffffffffffffffffffffffffffffff16815260200190815260200160002060405180606001604052908160008201548152602001600182015481526020016002820160009054906101000a900473ffffffffffffffffffffffffffffffffffffffff1673ffffffffffffffffffffffffffffffffffffffff1673ffffffffffffffffffffffffffffffffffffffff16815250509050806040015173ffffffffffffffffffffffffffffffffffffffff166323b872dd833384600001516040518463ffffffff1660e01b8152600401610d55939291906133f4565b6020604051808303816000875af1158015610d74573d6000803e3d6000fd5b505050506040513d601f19601f82011682018060405250810190610d98919061349c565b508773ffffffffffffffffffffffffffffffffffffffff166342842e0e30848a6040518463ffffffff1660e01b8152600401610dd6939291906133f4565b600060405180830381600087803b158015610df057600080fd5b505af1158015610e04573d6000803e3d6000fd5b505050507f9af79c03d71f5375aad271d2d27dc3b4227362c41a7a2ab66072e4e6592e262b888833858742604051610e41969594939291906134c9565b60405180910390a1505b610e5587876122aa565b50505050505050565b600660009054906101000a900473ffffffffffffffffffffffffffffffffffffffff1673ffffffffffffffffffffffffffffffffffffffff163373ffffffffffffffffffffffffffffffffffffffff1614610eee576040517f08c379a0000000000000000000000000000000000000000000000000000000008152600401610ee590613576565b60405180910390fd5b60008103610f31576040517f08c379a0000000000000000000000000000000000000000000000000000000008152600401610f28906135e2565b60405180910390fd5b603c81610f3e9190613203565b60048190555050565b60008203610f8a576040517f08c379a0000000000000000000000000000000000000000000000000000000008152600401610f819061364e565b60405180910390fd5b6000600560008673ffffffffffffffffffffffffffffffffffffffff1673ffffffffffffffffffffffffffffffffffffffff1681526020019081526020016000206000858152602001908152602001600020905080600401544210158015610ff6575080600501544211155b611035576040517f08c379a000000000000000000000000000000000000000000000000000000000815260040161102c906136ba565b60405180910390fd5b60008160070160003373ffffffffffffffffffffffffffffffffffffffff1673ffffffffffffffffffffffffffffffffffffffff16815260200190815260200160002090506000801b8160010154036110c3576040517f08c379a00000000000000000000000000000000000000000000000000000000081526004016110ba90613726565b60405180910390fd5b60008160020160009054906101000a900473ffffffffffffffffffffffffffffffffffffffff169050848173ffffffffffffffffffffffffffffffffffffffff166370a08231336040518263ffffffff1660e01b8152600401611126919061290a565b602060405180830381865afa158015611143573d6000803e3d6000fd5b505050506040513d601f19601f820116820180604052508101906111679190613746565b10156111a8576040517f08c379a000000000000000000000000000000000000000000000000000000000815260040161119f906137bf565b60405180910390fd5b848173ffffffffffffffffffffffffffffffffffffffff1663dd62ed3e33306040518363ffffffff1660e01b81526004016111e4929190612db8565b602060405180830381865afa158015611201573d6000803e3d6000fd5b505050506040513d601f19601f820116820180604052508101906112259190613746565b1015611266576040517f08c379a000000000000000000000000000000000000000000000000000000000815260040161125d9061382b565b60405180910390fd5b600061129b33878760405160200161127f92919061388d565b60405160208183030381529060405280519060200120846125a9565b9050826001015481146112e3576040517f08c379a00000000000000000000000000000000000000000000000000000000081526004016112da90613905565b60405180910390fd5b85836000018190555060038460060160006101000a81548160ff0219169083600581111561131457611313612946565b5b02179055507fac1cdcb34c2f43796c50b2d0b00e98133621d7ea7593195241557dac6a5f184e88888333898b60405161135296959493929190613934565b60405180910390a15050505050505050565b6002600054036113a9576040517f08c379a00000000000000000000000000000000000000000000000000000000081526004016113a0906139e1565b60405180910390fd5b600260008190555060008690508073ffffffffffffffffffffffffffffffffffffffff16636352211e876040518263ffffffff1660e01b81526004016113ef919061281f565b602060405180830381865afa15801561140c573d6000803e3d6000fd5b505050506040513d601f19601f820116820180604052508101906114309190613a16565b73ffffffffffffffffffffffffffffffffffffffff163373ffffffffffffffffffffffffffffffffffffffff161461149d576040517f08c379a000000000000000000000000000000000000000000000000000000000815260040161149490613a8f565b60405180910390fd5b428410156114e0576040517f08c379a00000000000000000000000000000000000000000000000000000000081526004016114d790613afb565b60405180910390fd5b60008511611523576040517f08c379a000000000000000000000000000000000000000000000000000000000815260040161151a90613b67565b60405180910390fd5b600454846115319190613b87565b831015611573576040517f08c379a000000000000000000000000000000000000000000000000000000000815260040161156a90613c07565b60405180910390fd5b8282116115b5576040517f08c379a00000000000000000000000000000000000000000000000000000000081526004016115ac90613c73565b60405180910390fd5b6000600560008973ffffffffffffffffffffffffffffffffffffffff1673ffffffffffffffffffffffffffffffffffffffff168152602001908152602001600020600088815260200190815260200160002090506000816004015414611650576040517f08c379a000000000000000000000000000000000000000000000000000000000815260040161164790613cdf565b60405180910390fd5b338160010160006101000a81548173ffffffffffffffffffffffffffffffffffffffff021916908373ffffffffffffffffffffffffffffffffffffffff16021790555085816003018190555060018160060160006101000a81548160ff021916908360058111156116c4576116c3612946565b5b021790555084816002018190555083816004018190555082816005018190555060016003546116f39190613b87565b6003819055508173ffffffffffffffffffffffffffffffffffffffff166323b872dd33308a6040518463ffffffff1660e01b8152600401611736939291906133f4565b600060405180830381600087803b15801561175057600080fd5b505af1158015611764573d6000803e3d6000fd5b505050507fdf179f1d286c93c679334be11420131492ab86e4d75b9598ed0ff17508273b4e8888338985600201548989426040516117a9989796959493929190613cff565b60405180910390a150506001600081905550505050505050565b6117cb6125df565b6000600560008673ffffffffffffffffffffffffffffffffffffffff1673ffffffffffffffffffffffffffffffffffffffff168152602001908152602001600020600085815260200190815260200160002090506000816008018054905003611869576040517f08c379a000000000000000000000000000000000000000000000000000000000815260040161186090612edf565b60405180910390fd5b8060070160008473ffffffffffffffffffffffffffffffffffffffff1673ffffffffffffffffffffffffffffffffffffffff16815260200190815260200160002060405180606001604052908160008201548152602001600182015481526020016002820160009054906101000a900473ffffffffffffffffffffffffffffffffffffffff1673ffffffffffffffffffffffffffffffffffffffff1673ffffffffffffffffffffffffffffffffffffffff16815250509150509392505050565b60045481565b600260005403611974576040517f08c379a000000000000000000000000000000000000000000000000000000000815260040161196b906139e1565b60405180910390fd5b60026000819055506000600560008673ffffffffffffffffffffffffffffffffffffffff1673ffffffffffffffffffffffffffffffffffffffff16815260200190815260200160002060008581526020019081526020016000209050600073ffffffffffffffffffffffffffffffffffffffff168160010160009054906101000a900473ffffffffffffffffffffffffffffffffffffffff1673ffffffffffffffffffffffffffffffffffffffff1603611a63576040517f08c379a0000000000000000000000000000000000000000000000000000000008152600401611a5a90613dc9565b60405180910390fd5b600660009054906101000a900473ffffffffffffffffffffffffffffffffffffffff1673ffffffffffffffffffffffffffffffffffffffff163373ffffffffffffffffffffffffffffffffffffffff1603611af3576040517f08c379a0000000000000000000000000000000000000000000000000000000008152600401611aea90613e35565b60405180910390fd5b6000801b8303611b38576040517f08c379a0000000000000000000000000000000000000000000000000000000008152600401611b2f90613ea1565b60405180910390fd5b600073ffffffffffffffffffffffffffffffffffffffff16600160008473ffffffffffffffffffffffffffffffffffffffff1673ffffffffffffffffffffffffffffffffffffffff16815260200190815260200160002060009054906101000a900473ffffffffffffffffffffffffffffffffffffffff1673ffffffffffffffffffffffffffffffffffffffff16141580611bd85750611bd782610673565b5b611c17576040517f08c379a0000000000000000000000000000000000000000000000000000000008152600401611c0e90613f0d565b60405180910390fd5b8060020154421015611c5e576040517f08c379a0000000000000000000000000000000000000000000000000000000008152600401611c5590613f79565b60405180910390fd5b8060010160009054906101000a900473ffffffffffffffffffffffffffffffffffffffff1673ffffffffffffffffffffffffffffffffffffffff163373ffffffffffffffffffffffffffffffffffffffff1603611cf0576040517f08c379a0000000000000000000000000000000000000000000000000000000008152600401611ce790613fe5565b60405180910390fd5b4281600401541015611d37576040517f08c379a0000000000000000000000000000000000000000000000000000000008152600401611d2e90614051565b60405180910390fd5b60008160070160003373ffffffffffffffffffffffffffffffffffffffff1673ffffffffffffffffffffffffffffffffffffffff16815260200190815260200160002090506000801b816001015414611dc5576040517f08c379a0000000000000000000000000000000000000000000000000000000008152600401611dbc906140bd565b60405180910390fd5b611dd03385856125a9565b816001018190555060028260060160006101000a81548160ff02191690836005811115611e0057611dff612946565b5b0217905550828160020160006101000a81548173ffffffffffffffffffffffffffffffffffffffff021916908373ffffffffffffffffffffffffffffffffffffffff16021790555081600801339080600181540180825580915050600190039060005260206000200160009091909190916101000a81548173ffffffffffffffffffffffffffffffffffffffff021916908373ffffffffffffffffffffffffffffffffffffffff1602179055507fe86a7bf4f8980619e10345099db4bf2d07da85bf499e37fd7ecb0b5df95c62d886868642604051611ee294939291906140dd565b60405180910390a15050600160008190555050505050565b60606002805480602002602001604051908101604052809291908181526020016000905b82821015611ffc57838290600052602060002090600202016040518060400160405290816000820160009054906101000a900473ffffffffffffffffffffffffffffffffffffffff1673ffffffffffffffffffffffffffffffffffffffff1673ffffffffffffffffffffffffffffffffffffffff1681526020016001820160009054906101000a900473ffffffffffffffffffffffffffffffffffffffff1673ffffffffffffffffffffffffffffffffffffffff1673ffffffffffffffffffffffffffffffffffffffff168152505081526020019060010190611f1e565b50505050905090565b6002818154811061201557600080fd5b90600052602060002090600202016000915090508060000160009054906101000a900473ffffffffffffffffffffffffffffffffffffffff16908060010160009054906101000a900473ffffffffffffffffffffffffffffffffffffffff16905082565b60606000600560008573ffffffffffffffffffffffffffffffffffffffff1673ffffffffffffffffffffffffffffffffffffffff168152602001908152602001600020600084815260200190815260200160002060060160009054906101000a900460ff1660058111156120f0576120ef612946565b5b905060008160ff160361213a576040518060400160405280600a81526020017f556e61737369676e65640000000000000000000000000000000000000000000081525091506122a3565b60018160ff1603612182576040518060400160405280600981526020017f496e69746961746564000000000000000000000000000000000000000000000081525091506122a2565b60028160ff16036121ca576040518060400160405280600681526020017f426964646564000000000000000000000000000000000000000000000000000081525091506122a1565b60038160ff1603612212576040518060400160405280600881526020017f52657665616c656400000000000000000000000000000000000000000000000081525091506122a0565b60048160ff160361225a576040518060400160405280600881526020017f4578656375746564000000000000000000000000000000000000000000000000815250915061229f565b60058160ff160361229e576040518060400160405280600a81526020017f556e65786563757465640000000000000000000000000000000000000000000081525091505b5b5b5b5b5b5092915050565b6000600560008473ffffffffffffffffffffffffffffffffffffffff1673ffffffffffffffffffffffffffffffffffffffff1681526020019081526020016000206000838152602001908152602001600020905060008160070160008073ffffffffffffffffffffffffffffffffffffffff1673ffffffffffffffffffffffffffffffffffffffff16815260200190815260200160002060405180606001604052908160008201548152602001600182015481526020016002820160009054906101000a900473ffffffffffffffffffffffffffffffffffffffff1673ffffffffffffffffffffffffffffffffffffffff1673ffffffffffffffffffffffffffffffffffffffff1681525050905060005b82600801805490508110156124bd57818360070160008560080184815481106123e7576123e661337d565b5b9060005260206000200160009054906101000a900473ffffffffffffffffffffffffffffffffffffffff1673ffffffffffffffffffffffffffffffffffffffff1673ffffffffffffffffffffffffffffffffffffffff168152602001908152602001600020600082015181600001556020820151816001015560408201518160020160006101000a81548173ffffffffffffffffffffffffffffffffffffffff021916908373ffffffffffffffffffffffffffffffffffffffff16021790555090505080806124b5906133ac565b9150506123bb565b50600560008573ffffffffffffffffffffffffffffffffffffffff1673ffffffffffffffffffffffffffffffffffffffff1681526020019081526020016000206000848152602001908152602001600020600080820160006101000a81549073ffffffffffffffffffffffffffffffffffffffff02191690556001820160006101000a81549073ffffffffffffffffffffffffffffffffffffffff021916905560028201600090556003820160009055600482016000905560058201600090556006820160006101000a81549060ff02191690556008820160006125a19190612619565b505050505050565b60008383836040516020016125c09392919061416a565b6040516020818303038152906040528051906020012090509392505050565b60405180606001604052806000815260200160008019168152602001600073ffffffffffffffffffffffffffffffffffffffff1681525090565b5080546000825590600052602060002090810190612637919061263a565b50565b5b8082111561265357600081600090555060010161263b565b5090565b600080fd5b600073ffffffffffffffffffffffffffffffffffffffff82169050919050565b60006126878261265c565b9050919050565b6126978161267c565b81146126a257600080fd5b50565b6000813590506126b48161268e565b92915050565b6000819050919050565b6126cd816126ba565b81146126d857600080fd5b50565b6000813590506126ea816126c4565b92915050565b6000806040838503121561270757612706612657565b5b6000612715858286016126a5565b9250506020612726858286016126db565b9150509250929050565b600081519050919050565b600082825260208201905092915050565b6000819050602082019050919050565b6127658161267c565b82525050565b6000612777838361275c565b60208301905092915050565b6000602082019050919050565b600061279b82612730565b6127a5818561273b565b93506127b08361274c565b8060005b838110156127e15781516127c8888261276b565b97506127d383612783565b9250506001810190506127b4565b5085935050505092915050565b600060208201905081810360008301526128088184612790565b905092915050565b612819816126ba565b82525050565b60006020820190506128346000830184612810565b92915050565b6000602082840312156128505761284f612657565b5b600061285e848285016126a5565b91505092915050565b6000819050919050565b61287a81612867565b82525050565b600060ff82169050919050565b61289681612880565b82525050565b60006040820190506128b16000830185612871565b6128be602083018461288d565b9392505050565b60008115159050919050565b6128da816128c5565b82525050565b60006020820190506128f560008301846128d1565b92915050565b6129048161267c565b82525050565b600060208201905061291f60008301846128fb565b92915050565b60006129308261265c565b9050919050565b61294081612925565b82525050565b7f4e487b7100000000000000000000000000000000000000000000000000000000600052602160045260246000fd5b6006811061298657612985612946565b5b50565b600081905061299782612975565b919050565b60006129a782612989565b9050919050565b6129b78161299c565b82525050565b600060e0820190506129d2600083018a6128fb565b6129df6020830189612937565b6129ec6040830188612810565b6129f96060830187612810565b612a066080830186612810565b612a1360a0830185612810565b612a2060c08301846129ae565b98975050505050505050565b600060208284031215612a4257612a41612657565b5b6000612a50848285016126db565b91505092915050565b6000819050919050565b612a6c81612a59565b8114612a7757600080fd5b50565b600081359050612a8981612a63565b92915050565b60008060008060808587031215612aa957612aa8612657565b5b6000612ab7878288016126a5565b9450506020612ac8878288016126db565b9350506040612ad9878288016126db565b9250506060612aea87828801612a7a565b91505092959194509250565b60008060008060008060c08789031215612b1357612b12612657565b5b6000612b2189828a016126a5565b9650506020612b3289828a016126db565b9550506040612b4389828a016126db565b9450506060612b5489828a016126db565b9350506080612b6589828a016126db565b92505060a0612b7689828a016126db565b9150509295509295509295565b600080600060608486031215612b9c57612b9b612657565b5b6000612baa868287016126a5565b9350506020612bbb868287016126db565b9250506040612bcc868287016126a5565b9150509250925092565b612bdf816126ba565b82525050565b612bee81612a59565b82525050565b606082016000820151612c0a6000850182612bd6565b506020820151612c1d6020850182612be5565b506040820151612c30604085018261275c565b50505050565b6000606082019050612c4b6000830184612bf4565b92915050565b60008060008060808587031215612c6b57612c6a612657565b5b6000612c79878288016126a5565b9450506020612c8a878288016126db565b9350506040612c9b87828801612a7a565b9250506060612cac878288016126a5565b91505092959194509250565b600081519050919050565b600082825260208201905092915050565b6000819050602082019050919050565b604082016000820151612cfa600085018261275c565b506020820151612d0d602085018261275c565b50505050565b6000612d1f8383612ce4565b60408301905092915050565b6000602082019050919050565b6000612d4382612cb8565b612d4d8185612cc3565b9350612d5883612cd4565b8060005b83811015612d89578151612d708882612d13565b9750612d7b83612d2b565b925050600181019050612d5c565b5085935050505092915050565b60006020820190508181036000830152612db08184612d38565b905092915050565b6000604082019050612dcd60008301856128fb565b612dda60208301846128fb565b9392505050565b600081519050919050565b600082825260208201905092915050565b60005b83811015612e1b578082015181840152602081019050612e00565b60008484015250505050565b6000601f19601f8301169050919050565b6000612e4382612de1565b612e4d8185612dec565b9350612e5d818560208601612dfd565b612e6681612e27565b840191505092915050565b60006020820190508181036000830152612e8b8184612e38565b905092915050565b7f6e6f206269647300000000000000000000000000000000000000000000000000600082015250565b6000612ec9600783612dec565b9150612ed482612e93565b602082019050919050565b60006020820190508181036000830152612ef881612ebc565b9050919050565b600069ffffffffffffffffffff82169050919050565b612f1e81612eff565b8114612f2957600080fd5b50565b600081519050612f3b81612f15565b92915050565b612f4a81612867565b8114612f5557600080fd5b50565b600081519050612f6781612f41565b92915050565b600081519050612f7c816126c4565b92915050565b600080600080600060a08688031215612f9e57612f9d612657565b5b6000612fac88828901612f2c565b9550506020612fbd88828901612f58565b9450506040612fce88828901612f6d565b9350506060612fdf88828901612f6d565b9250506080612ff088828901612f2c565b9150509295509295909350565b61300681612880565b811461301157600080fd5b50565b60008151905061302381612ffd565b92915050565b60006020828403121561303f5761303e612657565b5b600061304d84828501613014565b91505092915050565b7f4e487b7100000000000000000000000000000000000000000000000000000000600052601160045260246000fd5b60008160011c9050919050565b6000808291508390505b60018511156130dc578086048111156130b8576130b7613056565b5b60018516156130c75780820291505b80810290506130d585613085565b945061309c565b94509492505050565b6000826130f557600190506131b1565b8161310357600090506131b1565b8160018114613119576002811461312357613152565b60019150506131b1565b60ff84111561313557613134613056565b5b8360020a91508482111561314c5761314b613056565b5b506131b1565b5060208310610133831016604e8410600b84101617156131875782820a90508381111561318257613181613056565b5b6131b1565b6131948484846001613092565b925090508184048111156131ab576131aa613056565b5b81810290505b9392505050565b60006131c3826126ba565b91506131ce83612880565b92506131fb7fffffffffffffffffffffffffffffffffffffffffffffffffffffffffffffffff84846130e5565b905092915050565b600061320e826126ba565b9150613219836126ba565b9250828202613227816126ba565b9150828204841483151761323e5761323d613056565b5b5092915050565b7f4e487b7100000000000000000000000000000000000000000000000000000000600052601260045260246000fd5b600061327f826126ba565b915061328a836126ba565b92508261329a57613299613245565b5b828204905092915050565b7f6e6f742061756374696f6e206f776e6572000000000000000000000000000000600082015250565b60006132db601183612dec565b91506132e6826132a5565b602082019050919050565b6000602082019050818103600083015261330a816132ce565b9050919050565b7f72657665616c207068617365206e6f74206f7665720000000000000000000000600082015250565b6000613347601583612dec565b915061335282613311565b602082019050919050565b600060208201905081810360008301526133768161333a565b9050919050565b7f4e487b7100000000000000000000000000000000000000000000000000000000600052603260045260246000fd5b60006133b7826126ba565b91507fffffffffffffffffffffffffffffffffffffffffffffffffffffffffffffffff82036133e9576133e8613056565b5b600182019050919050565b600060608201905061340960008301866128fb565b61341660208301856128fb565b6134236040830184612810565b949350505050565b600060808201905061344060008301876128fb565b61344d6020830186612810565b61345a60408301856128fb565b6134676060830184612810565b95945050505050565b613479816128c5565b811461348457600080fd5b50565b60008151905061349681613470565b92915050565b6000602082840312156134b2576134b1612657565b5b60006134c084828501613487565b91505092915050565b600060c0820190506134de60008301896128fb565b6134eb6020830188612810565b6134f860408301876128fb565b61350560608301866128fb565b6135126080830185612810565b61351f60a0830184612810565b979650505050505050565b7f63616e6e6f7420696e6372656173652074696d65000000000000000000000000600082015250565b6000613560601483612dec565b915061356b8261352a565b602082019050919050565b6000602082019050818103600083015261358f81613553565b9050919050565b7f61756374696f6e206475726174696f6e2063616e6e6f74206265207a65726f00600082015250565b60006135cc601f83612dec565b91506135d782613596565b602082019050919050565b600060208201905081810360008301526135fb816135bf565b9050919050565b7f7a65726f206269642076616c7565000000000000000000000000000000000000600082015250565b6000613638600e83612dec565b915061364382613602565b602082019050919050565b600060208201905081810360008301526136678161362b565b9050919050565b7f6e6f7420696e2072657665616c20706861736500000000000000000000000000600082015250565b60006136a4601383612dec565b91506136af8261366e565b602082019050919050565b600060208201905081810360008301526136d381613697565b9050919050565b7f6e6f2062696420636f6d6d69746d656e74000000000000000000000000000000600082015250565b6000613710601183612dec565b915061371b826136da565b602082019050919050565b6000602082019050818103600083015261373f81613703565b9050919050565b60006020828403121561375c5761375b612657565b5b600061376a84828501612f6d565b91505092915050565b7f696e7375666620746f6b656e2062616c00000000000000000000000000000000600082015250565b60006137a9601083612dec565b91506137b482613773565b602082019050919050565b600060208201905081810360008301526137d88161379c565b9050919050565b7f6c6f7720746f6b656e20616c6c6f77616e636500000000000000000000000000600082015250565b6000613815601383612dec565b9150613820826137df565b602082019050919050565b6000602082019050818103600083015261384481613808565b9050919050565b6000819050919050565b613866613861826126ba565b61384b565b82525050565b6000819050919050565b61388761388282612a59565b61386c565b82525050565b60006138998285613855565b6020820191506138a98284613876565b6020820191508190509392505050565b7f696e76616c696420626964206861736800000000000000000000000000000000600082015250565b60006138ef601083612dec565b91506138fa826138b9565b602082019050919050565b6000602082019050818103600083015261391e816138e2565b9050919050565b61392e81612a59565b82525050565b600060c08201905061394960008301896128fb565b6139566020830188612810565b6139636040830187613925565b61397060608301866128fb565b61397d6080830185613925565b61398a60a0830184612810565b979650505050505050565b7f5265656e7472616e637947756172643a207265656e7472616e742063616c6c00600082015250565b60006139cb601f83612dec565b91506139d682613995565b602082019050919050565b600060208201905081810360008301526139fa816139be565b9050919050565b600081519050613a108161268e565b92915050565b600060208284031215613a2c57613a2b612657565b5b6000613a3a84828501613a01565b91505092915050565b7f6e6f74206f776e65720000000000000000000000000000000000000000000000600082015250565b6000613a79600983612dec565b9150613a8482613a43565b602082019050919050565b60006020820190508181036000830152613aa881613a6c565b9050919050565b7f696e76616c69642061756374696f6e2073746172742074696d65000000000000600082015250565b6000613ae5601a83612dec565b9150613af082613aaf565b602082019050919050565b60006020820190508181036000830152613b1481613ad8565b9050919050565b7f61756374696f6e2070726963652063616e6e6f74206265207a65726f00000000600082015250565b6000613b51601c83612dec565b9150613b5c82613b1b565b602082019050919050565b60006020820190508181036000830152613b8081613b44565b9050919050565b6000613b92826126ba565b9150613b9d836126ba565b9250828201905080821115613bb557613bb4613056565b5b92915050565b7f696e76616c69642061756374696f6e20656e642074696d650000000000000000600082015250565b6000613bf1601883612dec565b9150613bfc82613bbb565b602082019050919050565b60006020820190508181036000830152613c2081613be4565b9050919050565b7f696e76616c69642072657665616c206475726174696f6e2074696d6500000000600082015250565b6000613c5d601c83612dec565b9150613c6882613c27565b602082019050919050565b60006020820190508181036000830152613c8c81613c50565b9050919050565b7f61756374696f6e20616c72656164792065786973740000000000000000000000600082015250565b6000613cc9601583612dec565b9150613cd482613c93565b602082019050919050565b60006020820190508181036000830152613cf881613cbc565b9050919050565b600061010082019050613d15600083018b6128fb565b613d22602083018a612810565b613d2f60408301896128fb565b613d3c6060830188612810565b613d496080830187612810565b613d5660a0830186612810565b613d6360c0830185612810565b613d7060e0830184612810565b9998505050505050505050565b7f6e6f6e2d6578697374656e742061756374696f6e206974656d00000000000000600082015250565b6000613db3601983612dec565b9150613dbe82613d7d565b602082019050919050565b60006020820190508181036000830152613de281613da6565b9050919050565b7f6465706c6f7965722063616e6e6f742062696400000000000000000000000000600082015250565b6000613e1f601383612dec565b9150613e2a82613de9565b602082019050919050565b60006020820190508181036000830152613e4e81613e12565b9050919050565b7f7a65726f2062696420636f6d6d69746d656e7400000000000000000000000000600082015250565b6000613e8b601383612dec565b9150613e9682613e55565b602082019050919050565b60006020820190508181036000830152613eba81613e7e565b9050919050565b7f696e76616c69642062696420746f6b656e000000000000000000000000000000600082015250565b6000613ef7601183612dec565b9150613f0282613ec1565b602082019050919050565b60006020820190508181036000830152613f2681613eea565b9050919050565b7f61756374696f6e20686173206e6f742073746172746564000000000000000000600082015250565b6000613f63601783612dec565b9150613f6e82613f2d565b602082019050919050565b60006020820190508181036000830152613f9281613f56565b9050919050565b7f61756374696f6e2073656c6c65722063616e6e6f742062696400000000000000600082015250565b6000613fcf601983612dec565b9150613fda82613f99565b602082019050919050565b60006020820190508181036000830152613ffe81613fc2565b9050919050565b7f61756374696f6e2068617320656e646564000000000000000000000000000000600082015250565b600061403b601183612dec565b915061404682614005565b602082019050919050565b6000602082019050818103600083015261406a8161402e565b9050919050565b7f696e697469616c697a656420626964436f6d6d69746d656e7400000000000000600082015250565b60006140a7601983612dec565b91506140b282614071565b602082019050919050565b600060208201905081810360008301526140d68161409a565b9050919050565b60006080820190506140f260008301876128fb565b6140ff6020830186612810565b61410c6040830185613925565b6141196060830184612810565b95945050505050565b60008160601b9050919050565b600061413a82614122565b9050919050565b600061414c8261412f565b9050919050565b61416461415f8261267c565b614141565b82525050565b60006141768286614153565b6014820191506141868285613876565b6020820191506141968284614153565b60148201915081905094935050505056fea2646970667358221220ce4e2d472b7a66d6521d37278688ae09b9108a78cb1086bac13773434c8bf32864736f6c63430008110033",
  "linkReferences": {},
  "deployedLinkReferences": {}
}