{
  "_format": "hh-sol-artifact-1",
  "contractName": "Dauction",
  "sourceName": "contracts/Dauction.sol",
  "abi": [
    {
      "inputs": [
        {
          "components": [
            {
              "internalType": "address",
              "name": "token",
              "type": "address"
            },
            {
              "internalType": "address",
              "name": "priceFeed",
              "type": "address"
            }
          ],
          "internalType": "struct Dauction.BidTokens[]",
          "name": "bidTokensArray",
          "type": "tuple[]"
        },
        {
          "internalType": "address",
          "name": "_USDT",
          "type": "address"
        }
      ],
      "stateMutability": "nonpayable",
      "type": "constructor"
    },
    {
      "anonymous": false,
      "inputs": [
        {
          "indexed": false,
          "internalType": "address",
          "name": "nft",
          "type": "address"
        },
        {
          "indexed": false,
          "internalType": "uint256",
          "name": "tokenId",
          "type": "uint256"
        },
        {
          "indexed": false,
          "internalType": "address",
          "name": "seller",
          "type": "address"
        },
        {
          "indexed": false,
          "internalType": "uint256",
          "name": "minBidPrice",
          "type": "uint256"
        },
        {
          "indexed": false,
          "internalType": "uint256",
          "name": "startTime",
          "type": "uint256"
        },
        {
          "indexed": false,
          "internalType": "uint256",
          "name": "endTime",
          "type": "uint256"
        },
        {
          "indexed": false,
          "internalType": "uint256",
          "name": "revealDuration",
          "type": "uint256"
        },
        {
          "indexed": false,
          "internalType": "uint256",
          "name": "auctionCreatedAt",
          "type": "uint256"
        }
      ],
      "name": "AuctionCreated",
      "type": "event"
    },
    {
      "anonymous": false,
      "inputs": [
        {
          "indexed": false,
          "internalType": "address",
          "name": "nftAddress",
          "type": "address"
        },
        {
          "indexed": false,
          "internalType": "uint256",
          "name": "tokenId",
          "type": "uint256"
        },
        {
          "indexed": false,
          "internalType": "address",
          "name": "previousOwner",
          "type": "address"
        },
        {
          "indexed": false,
          "internalType": "address",
          "name": "newOwner",
          "type": "address"
        },
        {
          "indexed": false,
          "internalType": "uint256",
          "name": "tokenAmountPaid",
          "type": "uint256"
        }
      ],
      "name": "AuctionSettled",
      "type": "event"
    },
    {
      "anonymous": false,
      "inputs": [
        {
          "indexed": false,
          "internalType": "address",
          "name": "nftAddress",
          "type": "address"
        },
        {
          "indexed": false,
          "internalType": "uint256",
          "name": "tokenId",
          "type": "uint256"
        },
        {
          "indexed": false,
          "internalType": "address",
          "name": "owner",
          "type": "address"
        },
        {
          "indexed": false,
          "internalType": "uint256",
          "name": "time",
          "type": "uint256"
        }
      ],
      "name": "AuctionUnsettled",
      "type": "event"
    },
    {
      "anonymous": false,
      "inputs": [
        {
          "indexed": false,
          "internalType": "address",
          "name": "nftContractAddress",
          "type": "address"
        },
        {
          "indexed": false,
          "internalType": "uint256",
          "name": "tokenId",
          "type": "uint256"
        },
        {
          "indexed": false,
          "internalType": "bytes32",
          "name": "bidCommitment",
          "type": "bytes32"
        },
        {
          "indexed": false,
          "internalType": "uint256",
          "name": "biddedAt",
          "type": "uint256"
        }
      ],
      "name": "BidCreated",
      "type": "event"
    },
    {
      "anonymous": false,
      "inputs": [
        {
          "indexed": false,
          "internalType": "address",
          "name": "tokenContract",
          "type": "address"
        },
        {
          "indexed": false,
          "internalType": "uint256",
          "name": "tokenId",
          "type": "uint256"
        },
        {
          "indexed": false,
          "internalType": "bytes32",
          "name": "bidHash",
          "type": "bytes32"
        },
        {
          "indexed": false,
          "internalType": "address",
          "name": "bidder",
          "type": "address"
        },
        {
          "indexed": false,
          "internalType": "bytes32",
          "name": "salt",
          "type": "bytes32"
        },
        {
          "indexed": false,
          "internalType": "uint256",
          "name": "bidValue",
          "type": "uint256"
        }
      ],
      "name": "BidRevealed",
      "type": "event"
    },
    {
      "inputs": [],
      "name": "MIN_AUCTION_PERIOD",
      "outputs": [
        {
          "internalType": "uint256",
          "name": "",
          "type": "uint256"
        }
      ],
      "stateMutability": "view",
      "type": "function"
    },
    {
      "inputs": [],
      "name": "activeAuctions",
      "outputs": [
        {
          "internalType": "uint256",
          "name": "",
          "type": "uint256"
        }
      ],
      "stateMutability": "view",
      "type": "function"
    },
    {
      "inputs": [
        {
          "internalType": "address",
          "name": "",
          "type": "address"
        },
        {
          "internalType": "uint256",
          "name": "",
          "type": "uint256"
        }
      ],
      "name": "auctions",
      "outputs": [
        {
          "internalType": "address payable",
          "name": "owner",
          "type": "address"
        },
        {
          "internalType": "uint256",
          "name": "startTime",
          "type": "uint256"
        },
        {
          "internalType": "uint256",
          "name": "minBidPrice",
          "type": "uint256"
        },
        {
          "internalType": "uint256",
          "name": "endTime",
          "type": "uint256"
        },
        {
          "internalType": "uint256",
          "name": "revealDuration",
          "type": "uint256"
        },
        {
          "internalType": "enum Dauction.AuctionStatus",
          "name": "auctionStatus",
          "type": "uint8"
        }
      ],
      "stateMutability": "view",
      "type": "function"
    },
    {
      "inputs": [
        {
          "internalType": "address",
          "name": "",
          "type": "address"
        }
      ],
      "name": "bidTokenToPriceFeed",
      "outputs": [
        {
          "internalType": "address",
          "name": "",
          "type": "address"
        }
      ],
      "stateMutability": "view",
      "type": "function"
    },
    {
      "inputs": [
        {
          "internalType": "uint256",
          "name": "",
          "type": "uint256"
        }
      ],
      "name": "bidTokens",
      "outputs": [
        {
          "internalType": "address",
          "name": "token",
          "type": "address"
        },
        {
          "internalType": "address",
          "name": "priceFeed",
          "type": "address"
        }
      ],
      "stateMutability": "view",
      "type": "function"
    },
    {
      "inputs": [
        {
          "internalType": "address",
          "name": "_priceFeed",
          "type": "address"
        },
        {
          "internalType": "uint256",
          "name": "bidAmount",
          "type": "uint256"
        }
      ],
      "name": "calculateBasePrice",
      "outputs": [
        {
          "internalType": "uint256",
          "name": "",
          "type": "uint256"
        }
      ],
      "stateMutability": "view",
      "type": "function"
    },
    {
      "inputs": [
        {
          "internalType": "address",
          "name": "_bidToken",
          "type": "address"
        }
      ],
      "name": "checkBidTokenUSDTEquivalence",
      "outputs": [
        {
          "internalType": "bool",
          "name": "",
          "type": "bool"
        }
      ],
      "stateMutability": "view",
      "type": "function"
    },
    {
      "inputs": [
        {
          "internalType": "address",
          "name": "tokenAddress",
          "type": "address"
        },
        {
          "internalType": "address",
          "name": "approver",
          "type": "address"
        },
        {
          "internalType": "uint256",
          "name": "bidValue",
          "type": "uint256"
        }
      ],
      "name": "checkTokenBalanceAndApproval",
      "outputs": [
        {
          "internalType": "bool",
          "name": "",
          "type": "bool"
        }
      ],
      "stateMutability": "view",
      "type": "function"
    },
    {
      "inputs": [
        {
          "internalType": "address",
          "name": "_nftAddress",
          "type": "address"
        },
        {
          "internalType": "uint256",
          "name": "_tokenId",
          "type": "uint256"
        },
        {
          "internalType": "uint256",
          "name": "_minBidPrice",
          "type": "uint256"
        },
        {
          "internalType": "uint256",
          "name": "_startTime",
          "type": "uint256"
        },
        {
          "internalType": "uint256",
          "name": "_endTime",
          "type": "uint256"
        },
        {
          "internalType": "uint256",
          "name": "_revealDuration",
          "type": "uint256"
        }
      ],
      "name": "createAuction",
      "outputs": [],
      "stateMutability": "nonpayable",
      "type": "function"
    },
    {
      "inputs": [
        {
          "internalType": "address",
          "name": "nftContractAddress",
          "type": "address"
        },
        {
          "internalType": "uint256",
          "name": "tokenId",
          "type": "uint256"
        },
        {
          "internalType": "bytes32",
          "name": "bidCommitment",
          "type": "bytes32"
        },
        {
          "internalType": "address",
          "name": "bidToken",
          "type": "address"
        }
      ],
      "name": "createBid",
      "outputs": [],
      "stateMutability": "nonpayable",
      "type": "function"
    },
    {
      "inputs": [
        {
          "internalType": "address",
          "name": "nftAddress",
          "type": "address"
        },
        {
          "internalType": "uint256",
          "name": "tokenId",
          "type": "uint256"
        }
      ],
      "name": "getAuctionStatus",
      "outputs": [
        {
          "internalType": "string",
          "name": "_auctionStatus",
          "type": "string"
        }
      ],
      "stateMutability": "view",
      "type": "function"
    },
    {
      "inputs": [
        {
          "internalType": "address",
          "name": "nftAddress",
          "type": "address"
        },
        {
          "internalType": "uint256",
          "name": "tokenId",
          "type": "uint256"
        },
        {
          "internalType": "address",
          "name": "bidder",
          "type": "address"
        }
      ],
      "name": "getBid",
      "outputs": [
        {
          "components": [
            {
              "internalType": "uint256",
              "name": "amountBidded",
              "type": "uint256"
            },
            {
              "internalType": "bytes32",
              "name": "bidCommitHash",
              "type": "bytes32"
            },
            {
              "internalType": "address",
              "name": "bidToken",
              "type": "address"
            }
          ],
          "internalType": "struct Dauction.Bid",
          "name": "",
          "type": "tuple"
        }
      ],
      "stateMutability": "view",
      "type": "function"
    },
    {
      "inputs": [],
      "name": "getBidTokens",
      "outputs": [
        {
          "components": [
            {
              "internalType": "address",
              "name": "token",
              "type": "address"
            },
            {
              "internalType": "address",
              "name": "priceFeed",
              "type": "address"
            }
          ],
          "internalType": "struct Dauction.BidTokens[]",
          "name": "",
          "type": "tuple[]"
        }
      ],
      "stateMutability": "view",
      "type": "function"
    },
    {
      "inputs": [
        {
          "internalType": "address",
          "name": "nftAddress",
          "type": "address"
        },
        {
          "internalType": "uint256",
          "name": "tokenId",
          "type": "uint256"
        }
      ],
      "name": "getBidders",
      "outputs": [
        {
          "internalType": "address[]",
          "name": "",
          "type": "address[]"
        }
      ],
      "stateMutability": "view",
      "type": "function"
    },
    {
      "inputs": [
        {
          "internalType": "address",
          "name": "_priceFeed",
          "type": "address"
        }
      ],
      "name": "getLatestPrice",
      "outputs": [
        {
          "internalType": "int256",
          "name": "",
          "type": "int256"
        },
        {
          "internalType": "uint8",
          "name": "",
          "type": "uint8"
        }
      ],
      "stateMutability": "view",
      "type": "function"
    },
    {
      "inputs": [
        {
          "internalType": "address",
          "name": "nftAddress",
          "type": "address"
        },
        {
          "internalType": "uint256",
          "name": "tokenId",
          "type": "uint256"
        }
      ],
      "name": "getMinBidPrice",
      "outputs": [
        {
          "internalType": "uint256",
          "name": "",
          "type": "uint256"
        }
      ],
      "stateMutability": "view",
      "type": "function"
    },
    {
      "inputs": [
        {
          "internalType": "address",
          "name": "nftAddress",
          "type": "address"
        },
        {
          "internalType": "uint256",
          "name": "tokenId",
          "type": "uint256"
        },
        {
          "internalType": "uint256",
          "name": "bidValue",
          "type": "uint256"
        },
        {
          "internalType": "bytes32",
          "name": "salt",
          "type": "bytes32"
        }
      ],
      "name": "revealBid",
      "outputs": [],
      "stateMutability": "nonpayable",
      "type": "function"
    },
    {
      "inputs": [
        {
          "internalType": "address",
          "name": "nftAddress",
          "type": "address"
        },
        {
          "internalType": "uint256",
          "name": "tokenId",
          "type": "uint256"
        }
      ],
      "name": "settleAuction",
      "outputs": [],
      "stateMutability": "nonpayable",
      "type": "function"
    },
    {
      "inputs": [],
      "name": "totalAuctions",
      "outputs": [
        {
          "internalType": "uint256",
          "name": "",
          "type": "uint256"
        }
      ],
      "stateMutability": "view",
      "type": "function"
    }
  ],
  "bytecode": "0x60a06040523480156200001157600080fd5b50604051620044b6380380620044b68339818101604052810190620000379190620003ec565b600160008190555060005b8251811015620001225782818151811062000062576200006162000452565b5b6020026020010151602001516001600085848151811062000088576200008762000452565b5b60200260200101516000015173ffffffffffffffffffffffffffffffffffffffff1673ffffffffffffffffffffffffffffffffffffffff16815260200190815260200160002060006101000a81548173ffffffffffffffffffffffffffffffffffffffff021916908373ffffffffffffffffffffffffffffffffffffffff16021790555080806200011990620004ba565b91505062000042565b508073ffffffffffffffffffffffffffffffffffffffff1660808173ffffffffffffffffffffffffffffffffffffffff168152505033600560006101000a81548173ffffffffffffffffffffffffffffffffffffffff021916908373ffffffffffffffffffffffffffffffffffffffff160217905550505062000507565b6000604051905090565b600080fd5b600080fd5b600080fd5b6000601f19601f8301169050919050565b7f4e487b7100000000000000000000000000000000000000000000000000000000600052604160045260246000fd5b6200020482620001b9565b810181811067ffffffffffffffff82111715620002265762000225620001ca565b5b80604052505050565b60006200023b620001a0565b9050620002498282620001f9565b919050565b600067ffffffffffffffff8211156200026c576200026b620001ca565b5b602082029050602081019050919050565b600080fd5b600080fd5b600073ffffffffffffffffffffffffffffffffffffffff82169050919050565b6000620002b48262000287565b9050919050565b620002c681620002a7565b8114620002d257600080fd5b50565b600081519050620002e681620002bb565b92915050565b60006040828403121562000305576200030462000282565b5b6200031160406200022f565b905060006200032384828501620002d5565b60008301525060206200033984828501620002d5565b60208301525092915050565b60006200035c62000356846200024e565b6200022f565b905080838252602082019050604084028301858111156200038257620003816200027d565b5b835b81811015620003af57806200039a8882620002ec565b84526020840193505060408101905062000384565b5050509392505050565b600082601f830112620003d157620003d0620001b4565b5b8151620003e384826020860162000345565b91505092915050565b60008060408385031215620004065762000405620001aa565b5b600083015167ffffffffffffffff811115620004275762000426620001af565b5b6200043585828601620003b9565b92505060206200044885828601620002d5565b9150509250929050565b7f4e487b7100000000000000000000000000000000000000000000000000000000600052603260045260246000fd5b7f4e487b7100000000000000000000000000000000000000000000000000000000600052601160045260246000fd5b6000819050919050565b6000620004c782620004b0565b91507fffffffffffffffffffffffffffffffffffffffffffffffffffffffffffffffff8203620004fc57620004fb62000481565b5b600182019050919050565b608051613f9362000523600039600061064f0152613f936000f3fe608060405234801561001057600080fd5b506004361061010b5760003560e01c80635138b08c116100a2578063b34171b511610071578063b34171b5146102f6578063c2e0e7e014610326578063d59feb6a14610342578063e6f7fbd414610360578063f8a206fa146103915761010b565b80635138b08c146102845780637887df85146102a0578063791bb4ef146102bc57806398984de6146102d85761010b565b8063194d07ca116100de578063194d07ca146101bf5780631e8a0b32146101ef57806333d31bf51461021f57806344f91c1e1461024f5761010b565b80630d587c1e14610110578063102784981461014057806316002f4a1461017057806316345f181461018e575b600080fd5b61012a6004803603810190610125919061259a565b6103c1565b6040516101379190612698565b60405180910390f35b61015a6004803603810190610155919061259a565b6104ed565b60405161016791906126c9565b60405180910390f35b61017861054b565b60405161018591906126c9565b60405180910390f35b6101a860048036038101906101a391906126e4565b610551565b6040516101b6929190612746565b60405180910390f35b6101d960048036038101906101d491906126e4565b61064b565b6040516101e6919061278a565b60405180910390f35b6102096004803603810190610204919061259a565b6106b1565b60405161021691906126c9565b60405180910390f35b610239600480360381019061023491906126e4565b6106f0565b60405161024691906127b4565b60405180910390f35b6102696004803603810190610264919061259a565b610723565b60405161027b96959493929190612867565b60405180910390f35b61029e6004803603810190610299919061259a565b610799565b005b6102ba60048036038101906102b591906128fe565b610e18565b005b6102d660048036038101906102d19190612965565b611235565b005b6102e0611694565b6040516102ed91906126c9565b60405180910390f35b610310600480360381019061030b91906129f2565b61169a565b60405161031d9190612aa5565b60405180910390f35b610340600480360381019061033b9190612ac0565b611800565b005b61034a611dcb565b6040516103579190612c05565b60405180910390f35b61037a60048036038101906103759190612c27565b611ed6565b604051610388929190612c54565b60405180910390f35b6103ab60048036038101906103a6919061259a565b611f4a565b6040516103b89190612d0d565b60405180910390f35b60606000600460008573ffffffffffffffffffffffffffffffffffffffff1673ffffffffffffffffffffffffffffffffffffffff168152602001908152602001600020600084815260200190815260200160002060070180548060200260200160405190810160405280929190818152602001828054801561049857602002820191906000526020600020905b8160009054906101000a900473ffffffffffffffffffffffffffffffffffffffff1673ffffffffffffffffffffffffffffffffffffffff168152602001906001019080831161044e575b5050505050905060008151036104e3576040517f08c379a00000000000000000000000000000000000000000000000000000000081526004016104da90612d7b565b60405180910390fd5b8091505092915050565b6000600460008473ffffffffffffffffffffffffffffffffffffffff1673ffffffffffffffffffffffffffffffffffffffff168152602001908152602001600020600083815260200190815260200160002060020154905092915050565b60035481565b60008060008373ffffffffffffffffffffffffffffffffffffffff1663feaf968c6040518163ffffffff1660e01b815260040160a060405180830381865afa1580156105a1573d6000803e3d6000fd5b505050506040513d601f19601f820116820180604052508101906105c59190612e1e565b50505091505060008473ffffffffffffffffffffffffffffffffffffffff1663313ce5676040518163ffffffff1660e01b8152600401602060405180830381865afa158015610618573d6000803e3d6000fd5b505050506040513d601f19601f8201168201806040525081019061063c9190612ec5565b90508181935093505050915091565b60007f000000000000000000000000000000000000000000000000000000000000000073ffffffffffffffffffffffffffffffffffffffff168273ffffffffffffffffffffffffffffffffffffffff16146106a75760006106aa565b60015b9050919050565b60008060006106bf85610551565b9150915080600a6106d09190613054565b82856106dc919061309f565b6106e69190613110565b9250505092915050565b60016020528060005260406000206000915054906101000a900473ffffffffffffffffffffffffffffffffffffffff1681565b6004602052816000526040600020602052806000526040600020600091509150508060000160009054906101000a900473ffffffffffffffffffffffffffffffffffffffff16908060010154908060020154908060030154908060040154908060050160009054906101000a900460ff16905086565b6000600460008473ffffffffffffffffffffffffffffffffffffffff1673ffffffffffffffffffffffffffffffffffffffff168152602001908152602001600020600083815260200190815260200160002090508060000160009054906101000a900473ffffffffffffffffffffffffffffffffffffffff1673ffffffffffffffffffffffffffffffffffffffff163373ffffffffffffffffffffffffffffffffffffffff161461087f576040517f08c379a00000000000000000000000000000000000000000000000000000000081526004016108769061318d565b60405180910390fd5b806004015442116108c5576040517f08c379a00000000000000000000000000000000000000000000000000000000081526004016108bc906131f9565b60405180910390fd5b60008060008060005b8560070180549050811015610aa3578560070181815481106108f3576108f2613219565b5b9060005260206000200160009054906101000a900473ffffffffffffffffffffffffffffffffffffffff16945060008660060160008773ffffffffffffffffffffffffffffffffffffffff1673ffffffffffffffffffffffffffffffffffffffff16815260200190815260200160002060405180606001604052908160008201548152602001600182015481526020016002820160009054906101000a900473ffffffffffffffffffffffffffffffffffffffff1673ffffffffffffffffffffffffffffffffffffffff1673ffffffffffffffffffffffffffffffffffffffff1681525050905060008160000151036109ec5750610a90565b806000015194506000816040015190506000610a078261064b565b610a7957610a74600160008473ffffffffffffffffffffffffffffffffffffffff1673ffffffffffffffffffffffffffffffffffffffff16815260200190815260200160002060009054906101000a900473ffffffffffffffffffffffffffffffffffffffff16886106b1565b610a7b565b865b905085811115610a8c578095508794505b5050505b8080610a9b90613248565b9150506108ce565b50600073ffffffffffffffffffffffffffffffffffffffff168173ffffffffffffffffffffffffffffffffffffffff161480610ae25750846002015482105b15610c1257338560000160006101000a81548173ffffffffffffffffffffffffffffffffffffffff021916908373ffffffffffffffffffffffffffffffffffffffff16021790555060058560050160006101000a81548160ff02191690836005811115610b5257610b516127f0565b5b02179055508673ffffffffffffffffffffffffffffffffffffffff166342842e0e3033896040518463ffffffff1660e01b8152600401610b9493929190613290565b600060405180830381600087803b158015610bae57600080fd5b505af1158015610bc2573d6000803e3d6000fd5b50505050610bd0878761217b565b7f4c52329b429b6bc14602f8d8e34d003593c51b818a57a24fbc132479501432ad87873342604051610c0594939291906132c7565b60405180910390a1610e05565b60008560060160008373ffffffffffffffffffffffffffffffffffffffff1673ffffffffffffffffffffffffffffffffffffffff16815260200190815260200160002060405180606001604052908160008201548152602001600182015481526020016002820160009054906101000a900473ffffffffffffffffffffffffffffffffffffffff1673ffffffffffffffffffffffffffffffffffffffff1673ffffffffffffffffffffffffffffffffffffffff16815250509050806040015173ffffffffffffffffffffffffffffffffffffffff166323b872dd833384600001516040518463ffffffff1660e01b8152600401610d1193929190613290565b6020604051808303816000875af1158015610d30573d6000803e3d6000fd5b505050506040513d601f19601f82011682018060405250810190610d549190613338565b508773ffffffffffffffffffffffffffffffffffffffff166342842e0e30848a6040518463ffffffff1660e01b8152600401610d9293929190613290565b600060405180830381600087803b158015610dac57600080fd5b505af1158015610dc0573d6000803e3d6000fd5b505050507fd89ac72b811465c6564ec26b5b26028c4682af9011a5f67bd34a50a095d0b13b8888338587604051610dfb959493929190613365565b60405180910390a1505b610e0f878761217b565b50505050505050565b60008203610e5b576040517f08c379a0000000000000000000000000000000000000000000000000000000008152600401610e5290613404565b60405180910390fd5b6000600460008673ffffffffffffffffffffffffffffffffffffffff1673ffffffffffffffffffffffffffffffffffffffff1681526020019081526020016000206000858152602001908152602001600020905080600301544210158015610ec7575080600401544211155b610f06576040517f08c379a0000000000000000000000000000000000000000000000000000000008152600401610efd90613470565b60405180910390fd5b60008160060160003373ffffffffffffffffffffffffffffffffffffffff1673ffffffffffffffffffffffffffffffffffffffff16815260200190815260200160002090506000801b816001015403610f94576040517f08c379a0000000000000000000000000000000000000000000000000000000008152600401610f8b906134dc565b60405180910390fd5b60008160020160009054906101000a900473ffffffffffffffffffffffffffffffffffffffff169050848173ffffffffffffffffffffffffffffffffffffffff166370a08231336040518263ffffffff1660e01b8152600401610ff791906127b4565b602060405180830381865afa158015611014573d6000803e3d6000fd5b505050506040513d601f19601f8201168201806040525081019061103891906134fc565b1015611079576040517f08c379a000000000000000000000000000000000000000000000000000000000815260040161107090613575565b60405180910390fd5b848173ffffffffffffffffffffffffffffffffffffffff1663dd62ed3e33306040518363ffffffff1660e01b81526004016110b5929190612c54565b602060405180830381865afa1580156110d2573d6000803e3d6000fd5b505050506040513d601f19601f820116820180604052508101906110f691906134fc565b1015611137576040517f08c379a000000000000000000000000000000000000000000000000000000000815260040161112e906135e1565b60405180910390fd5b600061116c338787604051602001611150929190613643565b6040516020818303038152906040528051906020012084612453565b9050826001015481146111b4576040517f08c379a00000000000000000000000000000000000000000000000000000000081526004016111ab906136bb565b60405180910390fd5b85836000018190555060038460050160006101000a81548160ff021916908360058111156111e5576111e46127f0565b5b02179055507fac1cdcb34c2f43796c50b2d0b00e98133621d7ea7593195241557dac6a5f184e88888333898b604051611223969594939291906136ea565b60405180910390a15050505050505050565b60026000540361127a576040517f08c379a000000000000000000000000000000000000000000000000000000000815260040161127190613797565b60405180910390fd5b600260008190555060008690508073ffffffffffffffffffffffffffffffffffffffff16636352211e876040518263ffffffff1660e01b81526004016112c091906126c9565b602060405180830381865afa1580156112dd573d6000803e3d6000fd5b505050506040513d601f19601f8201168201806040525081019061130191906137cc565b73ffffffffffffffffffffffffffffffffffffffff163373ffffffffffffffffffffffffffffffffffffffff161461136e576040517f08c379a000000000000000000000000000000000000000000000000000000000815260040161136590613845565b60405180910390fd5b428410156113b1576040517f08c379a00000000000000000000000000000000000000000000000000000000081526004016113a8906138b1565b60405180910390fd5b600085116113f4576040517f08c379a00000000000000000000000000000000000000000000000000000000081526004016113eb9061391d565b60405180910390fd5b610e1084611402919061393d565b831015611444576040517f08c379a000000000000000000000000000000000000000000000000000000000815260040161143b906139bd565b60405180910390fd5b828211611486576040517f08c379a000000000000000000000000000000000000000000000000000000000815260040161147d90613a29565b60405180910390fd5b6000600460008973ffffffffffffffffffffffffffffffffffffffff1673ffffffffffffffffffffffffffffffffffffffff168152602001908152602001600020600088815260200190815260200160002090506000816003015414611521576040517f08c379a000000000000000000000000000000000000000000000000000000000815260040161151890613a95565b60405180910390fd5b338160000160006101000a81548173ffffffffffffffffffffffffffffffffffffffff021916908373ffffffffffffffffffffffffffffffffffffffff16021790555085816002018190555060018160050160006101000a81548160ff02191690836005811115611595576115946127f0565b5b021790555084816001018190555083816003018190555082816004018190555060016003546115c4919061393d565b6003819055508173ffffffffffffffffffffffffffffffffffffffff166323b872dd33308a6040518463ffffffff1660e01b815260040161160793929190613290565b600060405180830381600087803b15801561162157600080fd5b505af1158015611635573d6000803e3d6000fd5b505050507fdf179f1d286c93c679334be11420131492ab86e4d75b9598ed0ff17508273b4e88883389856001015489894260405161167a989796959493929190613ab5565b60405180910390a150506001600081905550505050505050565b610e1081565b6116a2612489565b6000600460008673ffffffffffffffffffffffffffffffffffffffff1673ffffffffffffffffffffffffffffffffffffffff168152602001908152602001600020600085815260200190815260200160002090506000816007018054905003611740576040517f08c379a000000000000000000000000000000000000000000000000000000000815260040161173790612d7b565b60405180910390fd5b8060060160008473ffffffffffffffffffffffffffffffffffffffff1673ffffffffffffffffffffffffffffffffffffffff16815260200190815260200160002060405180606001604052908160008201548152602001600182015481526020016002820160009054906101000a900473ffffffffffffffffffffffffffffffffffffffff1673ffffffffffffffffffffffffffffffffffffffff1673ffffffffffffffffffffffffffffffffffffffff16815250509150509392505050565b600260005403611845576040517f08c379a000000000000000000000000000000000000000000000000000000000815260040161183c90613797565b60405180910390fd5b60026000819055506000600460008673ffffffffffffffffffffffffffffffffffffffff1673ffffffffffffffffffffffffffffffffffffffff16815260200190815260200160002060008581526020019081526020016000209050600073ffffffffffffffffffffffffffffffffffffffff168160000160009054906101000a900473ffffffffffffffffffffffffffffffffffffffff1673ffffffffffffffffffffffffffffffffffffffff1603611934576040517f08c379a000000000000000000000000000000000000000000000000000000000815260040161192b90613b7f565b60405180910390fd5b600560009054906101000a900473ffffffffffffffffffffffffffffffffffffffff1673ffffffffffffffffffffffffffffffffffffffff163373ffffffffffffffffffffffffffffffffffffffff16036119c4576040517f08c379a00000000000000000000000000000000000000000000000000000000081526004016119bb90613beb565b60405180910390fd5b6000801b8303611a09576040517f08c379a0000000000000000000000000000000000000000000000000000000008152600401611a0090613c57565b60405180910390fd5b600073ffffffffffffffffffffffffffffffffffffffff16600160008473ffffffffffffffffffffffffffffffffffffffff1673ffffffffffffffffffffffffffffffffffffffff16815260200190815260200160002060009054906101000a900473ffffffffffffffffffffffffffffffffffffffff1673ffffffffffffffffffffffffffffffffffffffff16141580611aa95750611aa88261064b565b5b611ae8576040517f08c379a0000000000000000000000000000000000000000000000000000000008152600401611adf90613cc3565b60405180910390fd5b8060010154421015611b2f576040517f08c379a0000000000000000000000000000000000000000000000000000000008152600401611b2690613d2f565b60405180910390fd5b8060000160009054906101000a900473ffffffffffffffffffffffffffffffffffffffff1673ffffffffffffffffffffffffffffffffffffffff163373ffffffffffffffffffffffffffffffffffffffff1603611bc1576040517f08c379a0000000000000000000000000000000000000000000000000000000008152600401611bb890613d9b565b60405180910390fd5b4281600301541015611c08576040517f08c379a0000000000000000000000000000000000000000000000000000000008152600401611bff90613e07565b60405180910390fd5b60008160060160003373ffffffffffffffffffffffffffffffffffffffff1673ffffffffffffffffffffffffffffffffffffffff16815260200190815260200160002090506000801b816001015414611c96576040517f08c379a0000000000000000000000000000000000000000000000000000000008152600401611c8d90613e73565b60405180910390fd5b611ca1338585612453565b816001018190555060028260050160006101000a81548160ff02191690836005811115611cd157611cd06127f0565b5b0217905550828160020160006101000a81548173ffffffffffffffffffffffffffffffffffffffff021916908373ffffffffffffffffffffffffffffffffffffffff16021790555081600701339080600181540180825580915050600190039060005260206000200160009091909190916101000a81548173ffffffffffffffffffffffffffffffffffffffff021916908373ffffffffffffffffffffffffffffffffffffffff1602179055507fe86a7bf4f8980619e10345099db4bf2d07da85bf499e37fd7ecb0b5df95c62d886868642604051611db39493929190613e93565b60405180910390a15050600160008190555050505050565b60606002805480602002602001604051908101604052809291908181526020016000905b82821015611ecd57838290600052602060002090600202016040518060400160405290816000820160009054906101000a900473ffffffffffffffffffffffffffffffffffffffff1673ffffffffffffffffffffffffffffffffffffffff1673ffffffffffffffffffffffffffffffffffffffff1681526020016001820160009054906101000a900473ffffffffffffffffffffffffffffffffffffffff1673ffffffffffffffffffffffffffffffffffffffff1673ffffffffffffffffffffffffffffffffffffffff168152505081526020019060010190611def565b50505050905090565b60028181548110611ee657600080fd5b90600052602060002090600202016000915090508060000160009054906101000a900473ffffffffffffffffffffffffffffffffffffffff16908060010160009054906101000a900473ffffffffffffffffffffffffffffffffffffffff16905082565b60606000600460008573ffffffffffffffffffffffffffffffffffffffff1673ffffffffffffffffffffffffffffffffffffffff168152602001908152602001600020600084815260200190815260200160002060050160009054906101000a900460ff166005811115611fc157611fc06127f0565b5b905060008160ff160361200b576040518060400160405280600a81526020017f556e61737369676e6564000000000000000000000000000000000000000000008152509150612174565b60018160ff1603612053576040518060400160405280600981526020017f496e6974696174656400000000000000000000000000000000000000000000008152509150612173565b60028160ff160361209b576040518060400160405280600681526020017f42696464656400000000000000000000000000000000000000000000000000008152509150612172565b60038160ff16036120e3576040518060400160405280600881526020017f52657665616c65640000000000000000000000000000000000000000000000008152509150612171565b60048160ff160361212b576040518060400160405280600881526020017f45786563757465640000000000000000000000000000000000000000000000008152509150612170565b60058160ff160361216f576040518060400160405280600a81526020017f556e65786563757465640000000000000000000000000000000000000000000081525091505b5b5b5b5b5b5092915050565b6000600460008473ffffffffffffffffffffffffffffffffffffffff1673ffffffffffffffffffffffffffffffffffffffff1681526020019081526020016000206000838152602001908152602001600020905060008160060160008073ffffffffffffffffffffffffffffffffffffffff1673ffffffffffffffffffffffffffffffffffffffff16815260200190815260200160002060405180606001604052908160008201548152602001600182015481526020016002820160009054906101000a900473ffffffffffffffffffffffffffffffffffffffff1673ffffffffffffffffffffffffffffffffffffffff1673ffffffffffffffffffffffffffffffffffffffff1681525050905060005b826007018054905081101561238e57818360060160008560070184815481106122b8576122b7613219565b5b9060005260206000200160009054906101000a900473ffffffffffffffffffffffffffffffffffffffff1673ffffffffffffffffffffffffffffffffffffffff1673ffffffffffffffffffffffffffffffffffffffff168152602001908152602001600020600082015181600001556020820151816001015560408201518160020160006101000a81548173ffffffffffffffffffffffffffffffffffffffff021916908373ffffffffffffffffffffffffffffffffffffffff160217905550905050808061238690613248565b91505061228c565b50600460008573ffffffffffffffffffffffffffffffffffffffff1673ffffffffffffffffffffffffffffffffffffffff1681526020019081526020016000206000848152602001908152602001600020600080820160006101000a81549073ffffffffffffffffffffffffffffffffffffffff021916905560018201600090556002820160009055600382016000905560048201600090556005820160006101000a81549060ff021916905560078201600061244b91906124c3565b505050505050565b600083838360405160200161246a93929190613f20565b6040516020818303038152906040528051906020012090509392505050565b60405180606001604052806000815260200160008019168152602001600073ffffffffffffffffffffffffffffffffffffffff1681525090565b50805460008255906000526020600020908101906124e191906124e4565b50565b5b808211156124fd5760008160009055506001016124e5565b5090565b600080fd5b600073ffffffffffffffffffffffffffffffffffffffff82169050919050565b600061253182612506565b9050919050565b61254181612526565b811461254c57600080fd5b50565b60008135905061255e81612538565b92915050565b6000819050919050565b61257781612564565b811461258257600080fd5b50565b6000813590506125948161256e565b92915050565b600080604083850312156125b1576125b0612501565b5b60006125bf8582860161254f565b92505060206125d085828601612585565b9150509250929050565b600081519050919050565b600082825260208201905092915050565b6000819050602082019050919050565b61260f81612526565b82525050565b60006126218383612606565b60208301905092915050565b6000602082019050919050565b6000612645826125da565b61264f81856125e5565b935061265a836125f6565b8060005b8381101561268b5781516126728882612615565b975061267d8361262d565b92505060018101905061265e565b5085935050505092915050565b600060208201905081810360008301526126b2818461263a565b905092915050565b6126c381612564565b82525050565b60006020820190506126de60008301846126ba565b92915050565b6000602082840312156126fa576126f9612501565b5b60006127088482850161254f565b91505092915050565b6000819050919050565b61272481612711565b82525050565b600060ff82169050919050565b6127408161272a565b82525050565b600060408201905061275b600083018561271b565b6127686020830184612737565b9392505050565b60008115159050919050565b6127848161276f565b82525050565b600060208201905061279f600083018461277b565b92915050565b6127ae81612526565b82525050565b60006020820190506127c960008301846127a5565b92915050565b60006127da82612506565b9050919050565b6127ea816127cf565b82525050565b7f4e487b7100000000000000000000000000000000000000000000000000000000600052602160045260246000fd5b600681106128305761282f6127f0565b5b50565b60008190506128418261281f565b919050565b600061285182612833565b9050919050565b61286181612846565b82525050565b600060c08201905061287c60008301896127e1565b61288960208301886126ba565b61289660408301876126ba565b6128a360608301866126ba565b6128b060808301856126ba565b6128bd60a0830184612858565b979650505050505050565b6000819050919050565b6128db816128c8565b81146128e657600080fd5b50565b6000813590506128f8816128d2565b92915050565b6000806000806080858703121561291857612917612501565b5b60006129268782880161254f565b945050602061293787828801612585565b935050604061294887828801612585565b9250506060612959878288016128e9565b91505092959194509250565b60008060008060008060c0878903121561298257612981612501565b5b600061299089828a0161254f565b96505060206129a189828a01612585565b95505060406129b289828a01612585565b94505060606129c389828a01612585565b93505060806129d489828a01612585565b92505060a06129e589828a01612585565b9150509295509295509295565b600080600060608486031215612a0b57612a0a612501565b5b6000612a198682870161254f565b9350506020612a2a86828701612585565b9250506040612a3b8682870161254f565b9150509250925092565b612a4e81612564565b82525050565b612a5d816128c8565b82525050565b606082016000820151612a796000850182612a45565b506020820151612a8c6020850182612a54565b506040820151612a9f6040850182612606565b50505050565b6000606082019050612aba6000830184612a63565b92915050565b60008060008060808587031215612ada57612ad9612501565b5b6000612ae88782880161254f565b9450506020612af987828801612585565b9350506040612b0a878288016128e9565b9250506060612b1b8782880161254f565b91505092959194509250565b600081519050919050565b600082825260208201905092915050565b6000819050602082019050919050565b604082016000820151612b696000850182612606565b506020820151612b7c6020850182612606565b50505050565b6000612b8e8383612b53565b60408301905092915050565b6000602082019050919050565b6000612bb282612b27565b612bbc8185612b32565b9350612bc783612b43565b8060005b83811015612bf8578151612bdf8882612b82565b9750612bea83612b9a565b925050600181019050612bcb565b5085935050505092915050565b60006020820190508181036000830152612c1f8184612ba7565b905092915050565b600060208284031215612c3d57612c3c612501565b5b6000612c4b84828501612585565b91505092915050565b6000604082019050612c6960008301856127a5565b612c7660208301846127a5565b9392505050565b600081519050919050565b600082825260208201905092915050565b60005b83811015612cb7578082015181840152602081019050612c9c565b60008484015250505050565b6000601f19601f8301169050919050565b6000612cdf82612c7d565b612ce98185612c88565b9350612cf9818560208601612c99565b612d0281612cc3565b840191505092915050565b60006020820190508181036000830152612d278184612cd4565b905092915050565b7f6e6f206269647300000000000000000000000000000000000000000000000000600082015250565b6000612d65600783612c88565b9150612d7082612d2f565b602082019050919050565b60006020820190508181036000830152612d9481612d58565b9050919050565b600069ffffffffffffffffffff82169050919050565b612dba81612d9b565b8114612dc557600080fd5b50565b600081519050612dd781612db1565b92915050565b612de681612711565b8114612df157600080fd5b50565b600081519050612e0381612ddd565b92915050565b600081519050612e188161256e565b92915050565b600080600080600060a08688031215612e3a57612e39612501565b5b6000612e4888828901612dc8565b9550506020612e5988828901612df4565b9450506040612e6a88828901612e09565b9350506060612e7b88828901612e09565b9250506080612e8c88828901612dc8565b9150509295509295909350565b612ea28161272a565b8114612ead57600080fd5b50565b600081519050612ebf81612e99565b92915050565b600060208284031215612edb57612eda612501565b5b6000612ee984828501612eb0565b91505092915050565b7f4e487b7100000000000000000000000000000000000000000000000000000000600052601160045260246000fd5b60008160011c9050919050565b6000808291508390505b6001851115612f7857808604811115612f5457612f53612ef2565b5b6001851615612f635780820291505b8081029050612f7185612f21565b9450612f38565b94509492505050565b600082612f91576001905061304d565b81612f9f576000905061304d565b8160018114612fb55760028114612fbf57612fee565b600191505061304d565b60ff841115612fd157612fd0612ef2565b5b8360020a915084821115612fe857612fe7612ef2565b5b5061304d565b5060208310610133831016604e8410600b84101617156130235782820a90508381111561301e5761301d612ef2565b5b61304d565b6130308484846001612f2e565b9250905081840481111561304757613046612ef2565b5b81810290505b9392505050565b600061305f82612564565b915061306a8361272a565b92506130977fffffffffffffffffffffffffffffffffffffffffffffffffffffffffffffffff8484612f81565b905092915050565b60006130aa82612564565b91506130b583612564565b92508282026130c381612564565b915082820484148315176130da576130d9612ef2565b5b5092915050565b7f4e487b7100000000000000000000000000000000000000000000000000000000600052601260045260246000fd5b600061311b82612564565b915061312683612564565b925082613136576131356130e1565b5b828204905092915050565b7f6e6f742061756374696f6e206f776e6572000000000000000000000000000000600082015250565b6000613177601183612c88565b915061318282613141565b602082019050919050565b600060208201905081810360008301526131a68161316a565b9050919050565b7f72657665616c207068617365206e6f74206f7665720000000000000000000000600082015250565b60006131e3601583612c88565b91506131ee826131ad565b602082019050919050565b60006020820190508181036000830152613212816131d6565b9050919050565b7f4e487b7100000000000000000000000000000000000000000000000000000000600052603260045260246000fd5b600061325382612564565b91507fffffffffffffffffffffffffffffffffffffffffffffffffffffffffffffffff820361328557613284612ef2565b5b600182019050919050565b60006060820190506132a560008301866127a5565b6132b260208301856127a5565b6132bf60408301846126ba565b949350505050565b60006080820190506132dc60008301876127a5565b6132e960208301866126ba565b6132f660408301856127a5565b61330360608301846126ba565b95945050505050565b6133158161276f565b811461332057600080fd5b50565b6000815190506133328161330c565b92915050565b60006020828403121561334e5761334d612501565b5b600061335c84828501613323565b91505092915050565b600060a08201905061337a60008301886127a5565b61338760208301876126ba565b61339460408301866127a5565b6133a160608301856127a5565b6133ae60808301846126ba565b9695505050505050565b7f7a65726f206269642076616c7565000000000000000000000000000000000000600082015250565b60006133ee600e83612c88565b91506133f9826133b8565b602082019050919050565b6000602082019050818103600083015261341d816133e1565b9050919050565b7f6e6f7420696e2072657665616c20706861736500000000000000000000000000600082015250565b600061345a601383612c88565b915061346582613424565b602082019050919050565b600060208201905081810360008301526134898161344d565b9050919050565b7f6e6f2062696420636f6d6d69746d656e74000000000000000000000000000000600082015250565b60006134c6601183612c88565b91506134d182613490565b602082019050919050565b600060208201905081810360008301526134f5816134b9565b9050919050565b60006020828403121561351257613511612501565b5b600061352084828501612e09565b91505092915050565b7f696e7375666620746f6b656e2062616c00000000000000000000000000000000600082015250565b600061355f601083612c88565b915061356a82613529565b602082019050919050565b6000602082019050818103600083015261358e81613552565b9050919050565b7f6c6f7720746f6b656e20616c6c6f77616e636500000000000000000000000000600082015250565b60006135cb601383612c88565b91506135d682613595565b602082019050919050565b600060208201905081810360008301526135fa816135be565b9050919050565b6000819050919050565b61361c61361782612564565b613601565b82525050565b6000819050919050565b61363d613638826128c8565b613622565b82525050565b600061364f828561360b565b60208201915061365f828461362c565b6020820191508190509392505050565b7f696e76616c696420626964206861736800000000000000000000000000000000600082015250565b60006136a5601083612c88565b91506136b08261366f565b602082019050919050565b600060208201905081810360008301526136d481613698565b9050919050565b6136e4816128c8565b82525050565b600060c0820190506136ff60008301896127a5565b61370c60208301886126ba565b61371960408301876136db565b61372660608301866127a5565b61373360808301856136db565b61374060a08301846126ba565b979650505050505050565b7f5265656e7472616e637947756172643a207265656e7472616e742063616c6c00600082015250565b6000613781601f83612c88565b915061378c8261374b565b602082019050919050565b600060208201905081810360008301526137b081613774565b9050919050565b6000815190506137c681612538565b92915050565b6000602082840312156137e2576137e1612501565b5b60006137f0848285016137b7565b91505092915050565b7f6e6f74206f776e65720000000000000000000000000000000000000000000000600082015250565b600061382f600983612c88565b915061383a826137f9565b602082019050919050565b6000602082019050818103600083015261385e81613822565b9050919050565b7f696e76616c69642061756374696f6e2073746172742074696d65000000000000600082015250565b600061389b601a83612c88565b91506138a682613865565b602082019050919050565b600060208201905081810360008301526138ca8161388e565b9050919050565b7f61756374696f6e2070726963652063616e6e6f74206265207a65726f00000000600082015250565b6000613907601c83612c88565b9150613912826138d1565b602082019050919050565b60006020820190508181036000830152613936816138fa565b9050919050565b600061394882612564565b915061395383612564565b925082820190508082111561396b5761396a612ef2565b5b92915050565b7f696e76616c69642061756374696f6e20656e642074696d650000000000000000600082015250565b60006139a7601883612c88565b91506139b282613971565b602082019050919050565b600060208201905081810360008301526139d68161399a565b9050919050565b7f696e76616c69642072657665616c206475726174696f6e2074696d6500000000600082015250565b6000613a13601c83612c88565b9150613a1e826139dd565b602082019050919050565b60006020820190508181036000830152613a4281613a06565b9050919050565b7f61756374696f6e20616c72656164792065786973740000000000000000000000600082015250565b6000613a7f601583612c88565b9150613a8a82613a49565b602082019050919050565b60006020820190508181036000830152613aae81613a72565b9050919050565b600061010082019050613acb600083018b6127a5565b613ad8602083018a6126ba565b613ae560408301896127a5565b613af260608301886126ba565b613aff60808301876126ba565b613b0c60a08301866126ba565b613b1960c08301856126ba565b613b2660e08301846126ba565b9998505050505050505050565b7f6e6f6e2d6578697374656e742061756374696f6e206974656d00000000000000600082015250565b6000613b69601983612c88565b9150613b7482613b33565b602082019050919050565b60006020820190508181036000830152613b9881613b5c565b9050919050565b7f6465706c6f7965722063616e6e6f742062696400000000000000000000000000600082015250565b6000613bd5601383612c88565b9150613be082613b9f565b602082019050919050565b60006020820190508181036000830152613c0481613bc8565b9050919050565b7f7a65726f2062696420636f6d6d69746d656e7400000000000000000000000000600082015250565b6000613c41601383612c88565b9150613c4c82613c0b565b602082019050919050565b60006020820190508181036000830152613c7081613c34565b9050919050565b7f696e76616c69642062696420746f6b656e000000000000000000000000000000600082015250565b6000613cad601183612c88565b9150613cb882613c77565b602082019050919050565b60006020820190508181036000830152613cdc81613ca0565b9050919050565b7f61756374696f6e20686173206e6f742073746172746564000000000000000000600082015250565b6000613d19601783612c88565b9150613d2482613ce3565b602082019050919050565b60006020820190508181036000830152613d4881613d0c565b9050919050565b7f61756374696f6e2073656c6c65722063616e6e6f742062696400000000000000600082015250565b6000613d85601983612c88565b9150613d9082613d4f565b602082019050919050565b60006020820190508181036000830152613db481613d78565b9050919050565b7f61756374696f6e2068617320656e646564000000000000000000000000000000600082015250565b6000613df1601183612c88565b9150613dfc82613dbb565b602082019050919050565b60006020820190508181036000830152613e2081613de4565b9050919050565b7f696e697469616c697a656420626964436f6d6d69746d656e7400000000000000600082015250565b6000613e5d601983612c88565b9150613e6882613e27565b602082019050919050565b60006020820190508181036000830152613e8c81613e50565b9050919050565b6000608082019050613ea860008301876127a5565b613eb560208301866126ba565b613ec260408301856136db565b613ecf60608301846126ba565b95945050505050565b60008160601b9050919050565b6000613ef082613ed8565b9050919050565b6000613f0282613ee5565b9050919050565b613f1a613f1582612526565b613ef7565b82525050565b6000613f2c8286613f09565b601482019150613f3c828561362c565b602082019150613f4c8284613f09565b60148201915081905094935050505056fea2646970667358221220a286ff05086e033d8fe53ca534f08c869096f9c34464d5274067488f69ea3e3064736f6c63430008110033",
  "linkReferences": {},
  "deployedLinkReferences": {}
}