{
  "_format": "hh-sol-artifact-1",
  "contractName": "Dauction",
  "sourceName": "contracts/Dauction.sol",
  "abi": [
    {
      "inputs": [
        {
          "components": [
            {
              "internalType": "address",
              "name": "token",
              "type": "address"
            },
            {
              "internalType": "address",
              "name": "priceFeed",
              "type": "address"
            }
          ],
          "internalType": "struct Dauction.BidTokens[]",
          "name": "bidTokensArray",
          "type": "tuple[]"
        },
        {
          "internalType": "address",
          "name": "_USDT",
          "type": "address"
        }
      ],
      "stateMutability": "nonpayable",
      "type": "constructor"
    },
    {
      "anonymous": false,
      "inputs": [
        {
          "indexed": false,
          "internalType": "address",
          "name": "nft",
          "type": "address"
        },
        {
          "indexed": false,
          "internalType": "uint256",
          "name": "tokenId",
          "type": "uint256"
        },
        {
          "indexed": false,
          "internalType": "address",
          "name": "seller",
          "type": "address"
        },
        {
          "indexed": false,
          "internalType": "uint256",
          "name": "minBidPrice",
          "type": "uint256"
        },
        {
          "indexed": false,
          "internalType": "uint256",
          "name": "startTime",
          "type": "uint256"
        },
        {
          "indexed": false,
          "internalType": "uint256",
          "name": "endTime",
          "type": "uint256"
        },
        {
          "indexed": false,
          "internalType": "uint256",
          "name": "revealDuration",
          "type": "uint256"
        },
        {
          "indexed": false,
          "internalType": "uint256",
          "name": "auctionCreatedAt",
          "type": "uint256"
        }
      ],
      "name": "AuctionCreated",
      "type": "event"
    },
    {
      "anonymous": false,
      "inputs": [
        {
          "indexed": false,
          "internalType": "address",
          "name": "nftAddress",
          "type": "address"
        },
        {
          "indexed": false,
          "internalType": "uint256",
          "name": "tokenId",
          "type": "uint256"
        },
        {
          "indexed": false,
          "internalType": "address",
          "name": "previousOwner",
          "type": "address"
        },
        {
          "indexed": false,
          "internalType": "address",
          "name": "newOwner",
          "type": "address"
        },
        {
          "indexed": false,
          "internalType": "uint256",
          "name": "tokenAmountPaid",
          "type": "uint256"
        }
      ],
      "name": "AuctionSettled",
      "type": "event"
    },
    {
      "anonymous": false,
      "inputs": [
        {
          "indexed": false,
          "internalType": "address",
          "name": "nftAddress",
          "type": "address"
        },
        {
          "indexed": false,
          "internalType": "uint256",
          "name": "tokenId",
          "type": "uint256"
        },
        {
          "indexed": false,
          "internalType": "address",
          "name": "owner",
          "type": "address"
        },
        {
          "indexed": false,
          "internalType": "uint256",
          "name": "time",
          "type": "uint256"
        }
      ],
      "name": "AuctionUnsettled",
      "type": "event"
    },
    {
      "anonymous": false,
      "inputs": [
        {
          "indexed": false,
          "internalType": "address",
          "name": "nftContractAddress",
          "type": "address"
        },
        {
          "indexed": false,
          "internalType": "uint256",
          "name": "tokenId",
          "type": "uint256"
        },
        {
          "indexed": false,
          "internalType": "bytes32",
          "name": "bidCommitment",
          "type": "bytes32"
        },
        {
          "indexed": false,
          "internalType": "uint256",
          "name": "biddedAt",
          "type": "uint256"
        }
      ],
      "name": "BidCreated",
      "type": "event"
    },
    {
      "anonymous": false,
      "inputs": [
        {
          "indexed": false,
          "internalType": "address",
          "name": "tokenContract",
          "type": "address"
        },
        {
          "indexed": false,
          "internalType": "uint256",
          "name": "tokenId",
          "type": "uint256"
        },
        {
          "indexed": false,
          "internalType": "bytes32",
          "name": "bidHash",
          "type": "bytes32"
        },
        {
          "indexed": false,
          "internalType": "address",
          "name": "bidder",
          "type": "address"
        },
        {
          "indexed": false,
          "internalType": "bytes32",
          "name": "salt",
          "type": "bytes32"
        },
        {
          "indexed": false,
          "internalType": "uint256",
          "name": "bidValue",
          "type": "uint256"
        }
      ],
      "name": "BidRevealed",
      "type": "event"
    },
    {
      "inputs": [],
      "name": "MIN_AUCTION_PERIOD",
      "outputs": [
        {
          "internalType": "uint256",
          "name": "",
          "type": "uint256"
        }
      ],
      "stateMutability": "view",
      "type": "function"
    },
    {
      "inputs": [],
      "name": "activeAuctions",
      "outputs": [
        {
          "internalType": "uint256",
          "name": "",
          "type": "uint256"
        }
      ],
      "stateMutability": "view",
      "type": "function"
    },
    {
      "inputs": [
        {
          "internalType": "address",
          "name": "",
          "type": "address"
        },
        {
          "internalType": "uint256",
          "name": "",
          "type": "uint256"
        }
      ],
      "name": "auctions",
      "outputs": [
        {
          "internalType": "address payable",
          "name": "owner",
          "type": "address"
        },
        {
          "internalType": "uint256",
          "name": "startTime",
          "type": "uint256"
        },
        {
          "internalType": "uint256",
          "name": "minBidPrice",
          "type": "uint256"
        },
        {
          "internalType": "uint256",
          "name": "endTime",
          "type": "uint256"
        },
        {
          "internalType": "uint256",
          "name": "revealDuration",
          "type": "uint256"
        },
        {
          "internalType": "enum Dauction.AuctionStatus",
          "name": "auctionStatus",
          "type": "uint8"
        }
      ],
      "stateMutability": "view",
      "type": "function"
    },
    {
      "inputs": [
        {
          "internalType": "uint256",
          "name": "",
          "type": "uint256"
        }
      ],
      "name": "bidTokenParamsArray",
      "outputs": [
        {
          "internalType": "address",
          "name": "token",
          "type": "address"
        },
        {
          "internalType": "address",
          "name": "priceFeed",
          "type": "address"
        }
      ],
      "stateMutability": "view",
      "type": "function"
    },
    {
      "inputs": [
        {
          "internalType": "address",
          "name": "",
          "type": "address"
        }
      ],
      "name": "bidTokenToPriceFeed",
      "outputs": [
        {
          "internalType": "address",
          "name": "",
          "type": "address"
        }
      ],
      "stateMutability": "view",
      "type": "function"
    },
    {
      "inputs": [
        {
          "internalType": "uint256",
          "name": "",
          "type": "uint256"
        }
      ],
      "name": "bidTokens",
      "outputs": [
        {
          "internalType": "address",
          "name": "token",
          "type": "address"
        },
        {
          "internalType": "address",
          "name": "priceFeed",
          "type": "address"
        }
      ],
      "stateMutability": "view",
      "type": "function"
    },
    {
      "inputs": [
        {
          "internalType": "address",
          "name": "_priceFeed",
          "type": "address"
        },
        {
          "internalType": "uint256",
          "name": "bidAmount",
          "type": "uint256"
        }
      ],
      "name": "calculateBasePrice",
      "outputs": [
        {
          "internalType": "uint256",
          "name": "",
          "type": "uint256"
        }
      ],
      "stateMutability": "view",
      "type": "function"
    },
    {
      "inputs": [
        {
          "internalType": "address",
          "name": "_bidToken",
          "type": "address"
        }
      ],
      "name": "checkBidTokenUSDTEquivalence",
      "outputs": [
        {
          "internalType": "bool",
          "name": "",
          "type": "bool"
        }
      ],
      "stateMutability": "view",
      "type": "function"
    },
    {
      "inputs": [
        {
          "internalType": "address",
          "name": "_nftAddress",
          "type": "address"
        },
        {
          "internalType": "uint256",
          "name": "_tokenId",
          "type": "uint256"
        },
        {
          "internalType": "uint256",
          "name": "_minBidPrice",
          "type": "uint256"
        },
        {
          "internalType": "uint256",
          "name": "_startTime",
          "type": "uint256"
        },
        {
          "internalType": "uint256",
          "name": "_endTime",
          "type": "uint256"
        },
        {
          "internalType": "uint256",
          "name": "_revealDuration",
          "type": "uint256"
        }
      ],
      "name": "createAuction",
      "outputs": [],
      "stateMutability": "nonpayable",
      "type": "function"
    },
    {
      "inputs": [
        {
          "internalType": "address",
          "name": "nftContractAddress",
          "type": "address"
        },
        {
          "internalType": "uint256",
          "name": "tokenId",
          "type": "uint256"
        },
        {
          "internalType": "bytes32",
          "name": "bidCommitment",
          "type": "bytes32"
        },
        {
          "internalType": "address",
          "name": "bidToken",
          "type": "address"
        }
      ],
      "name": "createBid",
      "outputs": [],
      "stateMutability": "nonpayable",
      "type": "function"
    },
    {
      "inputs": [
        {
          "internalType": "address",
          "name": "nftAddress",
          "type": "address"
        },
        {
          "internalType": "uint256",
          "name": "tokenId",
          "type": "uint256"
        }
      ],
      "name": "getAuctionStatus",
      "outputs": [
        {
          "internalType": "string",
          "name": "_auctionStatus",
          "type": "string"
        }
      ],
      "stateMutability": "view",
      "type": "function"
    },
    {
      "inputs": [
        {
          "internalType": "address",
          "name": "nftAddress",
          "type": "address"
        },
        {
          "internalType": "uint256",
          "name": "tokenId",
          "type": "uint256"
        },
        {
          "internalType": "address",
          "name": "bidder",
          "type": "address"
        }
      ],
      "name": "getBid",
      "outputs": [
        {
          "components": [
            {
              "internalType": "uint256",
              "name": "amountBidded",
              "type": "uint256"
            },
            {
              "internalType": "bytes32",
              "name": "bidCommitHash",
              "type": "bytes32"
            },
            {
              "internalType": "address",
              "name": "bidToken",
              "type": "address"
            }
          ],
          "internalType": "struct Dauction.Bid",
          "name": "",
          "type": "tuple"
        }
      ],
      "stateMutability": "view",
      "type": "function"
    },
    {
      "inputs": [],
      "name": "getBidTokens",
      "outputs": [
        {
          "components": [
            {
              "internalType": "address",
              "name": "token",
              "type": "address"
            },
            {
              "internalType": "address",
              "name": "priceFeed",
              "type": "address"
            }
          ],
          "internalType": "struct Dauction.BidTokens[]",
          "name": "",
          "type": "tuple[]"
        }
      ],
      "stateMutability": "view",
      "type": "function"
    },
    {
      "inputs": [
        {
          "internalType": "address",
          "name": "nftAddress",
          "type": "address"
        },
        {
          "internalType": "uint256",
          "name": "tokenId",
          "type": "uint256"
        }
      ],
      "name": "getBidders",
      "outputs": [
        {
          "internalType": "address[]",
          "name": "",
          "type": "address[]"
        }
      ],
      "stateMutability": "view",
      "type": "function"
    },
    {
      "inputs": [
        {
          "internalType": "address",
          "name": "_priceFeed",
          "type": "address"
        }
      ],
      "name": "getLatestPrice",
      "outputs": [
        {
          "internalType": "int256",
          "name": "",
          "type": "int256"
        },
        {
          "internalType": "uint8",
          "name": "",
          "type": "uint8"
        }
      ],
      "stateMutability": "view",
      "type": "function"
    },
    {
      "inputs": [
        {
          "internalType": "address",
          "name": "nftAddress",
          "type": "address"
        },
        {
          "internalType": "uint256",
          "name": "tokenId",
          "type": "uint256"
        }
      ],
      "name": "getMinBidPrice",
      "outputs": [
        {
          "internalType": "uint256",
          "name": "",
          "type": "uint256"
        }
      ],
      "stateMutability": "view",
      "type": "function"
    },
    {
      "inputs": [
        {
          "internalType": "address",
          "name": "nftAddress",
          "type": "address"
        },
        {
          "internalType": "uint256",
          "name": "tokenId",
          "type": "uint256"
        },
        {
          "internalType": "uint256",
          "name": "bidValue",
          "type": "uint256"
        },
        {
          "internalType": "bytes32",
          "name": "salt",
          "type": "bytes32"
        }
      ],
      "name": "revealBid",
      "outputs": [],
      "stateMutability": "nonpayable",
      "type": "function"
    },
    {
      "inputs": [
        {
          "internalType": "address",
          "name": "nftAddress",
          "type": "address"
        },
        {
          "internalType": "uint256",
          "name": "tokenId",
          "type": "uint256"
        }
      ],
      "name": "settleAuction",
      "outputs": [],
      "stateMutability": "nonpayable",
      "type": "function"
    }
  ],
  "bytecode": "0x60a06040523480156200001157600080fd5b5060405162004e6438038062004e64833981810160405281019062000037919062000727565b60016000819055506200004962000495565b60005b83518110156200028b578381815181106200006c576200006b6200078d565b5b602002602001015160200151600160008684815181106200009257620000916200078d565b5b60200260200101516000015173ffffffffffffffffffffffffffffffffffffffff1673ffffffffffffffffffffffffffffffffffffffff16815260200190815260200160002060006101000a81548173ffffffffffffffffffffffffffffffffffffffff021916908373ffffffffffffffffffffffffffffffffffffffff160217905550620001836040518060400160405280600881526020017f746f6b656e2025730000000000000000000000000000000000000000000000008152508583815181106200016657620001656200078d565b5b602002602001015160000151620003c660201b6200244d1760201c565b620001f06040518060400160405280601381526020017f6e616d6520636f6e7374727563746f7220257300000000000000000000000000815250858381518110620001d357620001d26200078d565b5b602002602001015160200151620003c660201b6200244d1760201c565b60405180604001604052808583815181106200021157620002106200078d565b5b60200260200101516000015173ffffffffffffffffffffffffffffffffffffffff1681526020018583815181106200024e576200024d6200078d565b5b60200260200101516020015173ffffffffffffffffffffffffffffffffffffffff16815250915080806200028290620007f5565b9150506200004c565b50600281908060018154018082558091505060019003906000526020600020906002020160009091909190915060008201518160000160006101000a81548173ffffffffffffffffffffffffffffffffffffffff021916908373ffffffffffffffffffffffffffffffffffffffff16021790555060208201518160010160006101000a81548173ffffffffffffffffffffffffffffffffffffffff021916908373ffffffffffffffffffffffffffffffffffffffff16021790555050508173ffffffffffffffffffffffffffffffffffffffff1660808173ffffffffffffffffffffffffffffffffffffffff168152505033600660006101000a81548173ffffffffffffffffffffffffffffffffffffffff021916908373ffffffffffffffffffffffffffffffffffffffff16021790555050505062000910565b620004688282604051602401620003df929190620008dc565b6040516020818303038152906040527f319af333000000000000000000000000000000000000000000000000000000007bffffffffffffffffffffffffffffffffffffffffffffffffffffffff19166020820180517bffffffffffffffffffffffffffffffffffffffffffffffffffffffff83818316178352505050506200046c60201b60201c565b5050565b60008151905060006a636f6e736f6c652e6c6f679050602083016000808483855afa5050505050565b6040518060400160405280600073ffffffffffffffffffffffffffffffffffffffff168152602001600073ffffffffffffffffffffffffffffffffffffffff1681525090565b6000604051905090565b600080fd5b600080fd5b600080fd5b6000601f19601f8301169050919050565b7f4e487b7100000000000000000000000000000000000000000000000000000000600052604160045260246000fd5b6200053f82620004f4565b810181811067ffffffffffffffff8211171562000561576200056062000505565b5b80604052505050565b600062000576620004db565b905062000584828262000534565b919050565b600067ffffffffffffffff821115620005a757620005a662000505565b5b602082029050602081019050919050565b600080fd5b600080fd5b600073ffffffffffffffffffffffffffffffffffffffff82169050919050565b6000620005ef82620005c2565b9050919050565b6200060181620005e2565b81146200060d57600080fd5b50565b6000815190506200062181620005f6565b92915050565b60006040828403121562000640576200063f620005bd565b5b6200064c60406200056a565b905060006200065e8482850162000610565b6000830152506020620006748482850162000610565b60208301525092915050565b600062000697620006918462000589565b6200056a565b90508083825260208201905060408402830185811115620006bd57620006bc620005b8565b5b835b81811015620006ea5780620006d5888262000627565b845260208401935050604081019050620006bf565b5050509392505050565b600082601f8301126200070c576200070b620004ef565b5b81516200071e84826020860162000680565b91505092915050565b60008060408385031215620007415762000740620004e5565b5b600083015167ffffffffffffffff811115620007625762000761620004ea565b5b6200077085828601620006f4565b9250506020620007838582860162000610565b9150509250929050565b7f4e487b7100000000000000000000000000000000000000000000000000000000600052603260045260246000fd5b7f4e487b7100000000000000000000000000000000000000000000000000000000600052601160045260246000fd5b6000819050919050565b60006200080282620007eb565b91507fffffffffffffffffffffffffffffffffffffffffffffffffffffffffffffffff8203620008375762000836620007bc565b5b600182019050919050565b600081519050919050565b600082825260208201905092915050565b60005b838110156200087e57808201518184015260208101905062000861565b60008484015250505050565b6000620008978262000842565b620008a381856200084d565b9350620008b58185602086016200085e565b620008c081620004f4565b840191505092915050565b620008d681620005e2565b82525050565b60006040820190508181036000830152620008f881856200088a565b9050620009096020830184620008cb565b9392505050565b6080516145386200092c600039600061068501526145386000f3fe608060405234801561001057600080fd5b50600436106101165760003560e01c80637887df85116100a2578063bf2b0cda11610071578063bf2b0cda14610331578063c2e0e7e014610362578063d59feb6a1461037e578063e6f7fbd41461039c578063f8a206fa146103cd57610116565b80637887df85146102ab578063791bb4ef146102c757806398984de6146102e3578063b34171b51461030157610116565b80631e8a0b32116100e95780631e8a0b32146101dc57806333d31bf51461020c57806344f91c1e1461023c5780635090d0c6146102715780635138b08c1461028f57610116565b80630d587c1e1461011b578063102784981461014b57806316345f181461017b578063194d07ca146101ac575b600080fd5b61013560048036038101906101309190612a04565b6103fd565b6040516101429190612b02565b60405180910390f35b61016560048036038101906101609190612a04565b610529565b6040516101729190612b33565b60405180910390f35b61019560048036038101906101909190612b4e565b610587565b6040516101a3929190612bb0565b60405180910390f35b6101c660048036038101906101c19190612b4e565b610681565b6040516101d39190612bf4565b60405180910390f35b6101f660048036038101906101f19190612a04565b6106e7565b6040516102039190612b33565b60405180910390f35b61022660048036038101906102219190612b4e565b610726565b6040516102339190612c1e565b60405180910390f35b61025660048036038101906102519190612a04565b610759565b60405161026896959493929190612cd1565b60405180910390f35b6102796107cf565b6040516102869190612b33565b60405180910390f35b6102a960048036038101906102a49190612a04565b6107d5565b005b6102c560048036038101906102c09190612d68565b610f93565b005b6102e160048036038101906102dc9190612dcf565b61148c565b005b6102eb6118ec565b6040516102f89190612b33565b60405180910390f35b61031b60048036038101906103169190612e5c565b6118f2565b6040516103289190612f0f565b60405180910390f35b61034b60048036038101906103469190612f2a565b611a58565b604051610359929190612f57565b60405180910390f35b61037c60048036038101906103779190612f80565b611acc565b005b6103866120e6565b60405161039391906130c5565b60405180910390f35b6103b660048036038101906103b19190612f2a565b6121f1565b6040516103c4929190612f57565b60405180910390f35b6103e760048036038101906103e29190612a04565b612265565b6040516103f49190613177565b60405180910390f35b60606000600460008573ffffffffffffffffffffffffffffffffffffffff1673ffffffffffffffffffffffffffffffffffffffff16815260200190815260200160002060008481526020019081526020016000206007018054806020026020016040519081016040528092919081815260200182805480156104d457602002820191906000526020600020905b8160009054906101000a900473ffffffffffffffffffffffffffffffffffffffff1673ffffffffffffffffffffffffffffffffffffffff168152602001906001019080831161048a575b50505050509050600081510361051f576040517f08c379a0000000000000000000000000000000000000000000000000000000008152600401610516906131e5565b60405180910390fd5b8091505092915050565b6000600460008473ffffffffffffffffffffffffffffffffffffffff1673ffffffffffffffffffffffffffffffffffffffff168152602001908152602001600020600083815260200190815260200160002060020154905092915050565b60008060008373ffffffffffffffffffffffffffffffffffffffff1663feaf968c6040518163ffffffff1660e01b815260040160a060405180830381865afa1580156105d7573d6000803e3d6000fd5b505050506040513d601f19601f820116820180604052508101906105fb9190613288565b50505091505060008473ffffffffffffffffffffffffffffffffffffffff1663313ce5676040518163ffffffff1660e01b8152600401602060405180830381865afa15801561064e573d6000803e3d6000fd5b505050506040513d601f19601f82011682018060405250810190610672919061332f565b90508181935093505050915091565b60007f000000000000000000000000000000000000000000000000000000000000000073ffffffffffffffffffffffffffffffffffffffff168273ffffffffffffffffffffffffffffffffffffffff16146106dd5760006106e0565b60015b9050919050565b60008060006106f585610587565b9150915080600a61070691906134be565b82856107129190613509565b61071c919061357a565b9250505092915050565b60016020528060005260406000206000915054906101000a900473ffffffffffffffffffffffffffffffffffffffff1681565b6004602052816000526040600020602052806000526040600020600091509150508060000160009054906101000a900473ffffffffffffffffffffffffffffffffffffffff16908060010154908060020154908060030154908060040154908060050160009054906101000a900460ff16905086565b60035481565b6000600460008473ffffffffffffffffffffffffffffffffffffffff1673ffffffffffffffffffffffffffffffffffffffff168152602001908152602001600020600083815260200190815260200160002090508060000160009054906101000a900473ffffffffffffffffffffffffffffffffffffffff1673ffffffffffffffffffffffffffffffffffffffff163373ffffffffffffffffffffffffffffffffffffffff16146108bb576040517f08c379a00000000000000000000000000000000000000000000000000000000081526004016108b2906135f7565b60405180910390fd5b80600401544211610901576040517f08c379a00000000000000000000000000000000000000000000000000000000081526004016108f890613663565b60405180910390fd5b60008060008060005b8560070180549050811015610b7f5785600701818154811061092f5761092e613683565b5b9060005260206000200160009054906101000a900473ffffffffffffffffffffffffffffffffffffffff16945060008660060160008773ffffffffffffffffffffffffffffffffffffffff1673ffffffffffffffffffffffffffffffffffffffff16815260200190815260200160002060405180606001604052908160008201548152602001600182015481526020016002820160009054906101000a900473ffffffffffffffffffffffffffffffffffffffff1673ffffffffffffffffffffffffffffffffffffffff1673ffffffffffffffffffffffffffffffffffffffff168152505090506000816000015103610a285750610b6c565b80600001519450600081604001519050610a776040518060400160405280601b81526020017f62696420616d6f756e74206265666f72652074656e6172792025730000000000815250876124e9565b6000610a8282610681565b610af457610aef600160008473ffffffffffffffffffffffffffffffffffffffff1673ffffffffffffffffffffffffffffffffffffffff16815260200190815260200160002060009054906101000a900473ffffffffffffffffffffffffffffffffffffffff16886106e7565b610af6565b865b9050610b1a6040518060600160405280602281526020016144e160229139826124e9565b85811115610b6857610b616040518060400160405280601281526020017f666f726d61747465642070726963652025730000000000000000000000000000815250826124e9565b8095508794505b5050505b8080610b77906136b2565b91505061090a565b50600073ffffffffffffffffffffffffffffffffffffffff168173ffffffffffffffffffffffffffffffffffffffff161480610bbe5750846002015482105b15610d0857338560000160006101000a81548173ffffffffffffffffffffffffffffffffffffffff021916908373ffffffffffffffffffffffffffffffffffffffff16021790555060058560050160006101000a81548160ff02191690836005811115610c2e57610c2d612c5a565b5b02179055508673ffffffffffffffffffffffffffffffffffffffff166342842e0e308760000160009054906101000a900473ffffffffffffffffffffffffffffffffffffffff16896040518463ffffffff1660e01b8152600401610c9493929190613759565b600060405180830381600087803b158015610cae57600080fd5b505af1158015610cc2573d6000803e3d6000fd5b505050507f4c52329b429b6bc14602f8d8e34d003593c51b818a57a24fbc132479501432ad87873342604051610cfb9493929190613790565b60405180910390a1610f8a565b610d476040518060400160405280601d81526020017f68696768657374206269646465725f5f66726f6d20646175633a2025730000008152508261244d565b60008560060160008373ffffffffffffffffffffffffffffffffffffffff1673ffffffffffffffffffffffffffffffffffffffff16815260200190815260200160002060405180606001604052908160008201548152602001600182015481526020016002820160009054906101000a900473ffffffffffffffffffffffffffffffffffffffff1673ffffffffffffffffffffffffffffffffffffffff1673ffffffffffffffffffffffffffffffffffffffff16815250509050806040015173ffffffffffffffffffffffffffffffffffffffff166323b872dd833384600001516040518463ffffffff1660e01b8152600401610e46939291906137d5565b6020604051808303816000875af1158015610e65573d6000803e3d6000fd5b505050506040513d601f19601f82011682018060405250810190610e899190613838565b50610eac6040518060600160405280602381526020016144be60239139846124e9565b8773ffffffffffffffffffffffffffffffffffffffff166342842e0e30848a6040518463ffffffff1660e01b8152600401610ee9939291906137d5565b600060405180830381600087803b158015610f0357600080fd5b505af1158015610f17573d6000803e3d6000fd5b50505050610f258888612585565b7fd89ac72b811465c6564ec26b5b26028c4682af9011a5f67bd34a50a095d0b13b8888338960000160009054906101000a900473ffffffffffffffffffffffffffffffffffffffff1687604051610f80959493929190613865565b60405180910390a1505b50505050505050565b60008203610fd6576040517f08c379a0000000000000000000000000000000000000000000000000000000008152600401610fcd90613904565b60405180910390fd5b6000600460008673ffffffffffffffffffffffffffffffffffffffff1673ffffffffffffffffffffffffffffffffffffffff168152602001908152602001600020600085815260200190815260200160002090508060030154421015611071576040517f08c379a000000000000000000000000000000000000000000000000000000000815260040161106890613970565b60405180910390fd5b80600301544210158015611089575080600401544211155b6110c8576040517f08c379a00000000000000000000000000000000000000000000000000000000081526004016110bf90613663565b60405180910390fd5b60008160060160003373ffffffffffffffffffffffffffffffffffffffff1673ffffffffffffffffffffffffffffffffffffffff16815260200190815260200160002090506000801b816001015403611156576040517f08c379a000000000000000000000000000000000000000000000000000000000815260040161114d906139dc565b60405180910390fd5b60008160020160009054906101000a900473ffffffffffffffffffffffffffffffffffffffff169050848173ffffffffffffffffffffffffffffffffffffffff166370a08231336040518263ffffffff1660e01b81526004016111b99190612c1e565b602060405180830381865afa1580156111d6573d6000803e3d6000fd5b505050506040513d601f19601f820116820180604052508101906111fa91906139fc565b101561123b576040517f08c379a000000000000000000000000000000000000000000000000000000000815260040161123290613a75565b60405180910390fd5b848173ffffffffffffffffffffffffffffffffffffffff1663dd62ed3e33306040518363ffffffff1660e01b8152600401611277929190612f57565b602060405180830381865afa158015611294573d6000803e3d6000fd5b505050506040513d601f19601f820116820180604052508101906112b891906139fc565b10156112f9576040517f08c379a00000000000000000000000000000000000000000000000000000000081526004016112f090613ae1565b60405180910390fd5b6000858560405160200161130e929190613b43565b6040516020818303038152906040528051906020012090506000611333338385612894565b9050600460008a73ffffffffffffffffffffffffffffffffffffffff1673ffffffffffffffffffffffffffffffffffffffff168152602001908152602001600020600089815260200190815260200160002060060160003373ffffffffffffffffffffffffffffffffffffffff1673ffffffffffffffffffffffffffffffffffffffff16815260200190815260200160002060010154811461140a576040517f08c379a000000000000000000000000000000000000000000000000000000000815260040161140190613bbb565b60405180910390fd5b86846000018190555060038560050160006101000a81548160ff0219169083600581111561143b5761143a612c5a565b5b02179055507fac1cdcb34c2f43796c50b2d0b00e98133621d7ea7593195241557dac6a5f184e898983338a8c60405161147996959493929190613bea565b60405180910390a1505050505050505050565b6002600054036114d1576040517f08c379a00000000000000000000000000000000000000000000000000000000081526004016114c890613c97565b60405180910390fd5b600260008190555060008690508673ffffffffffffffffffffffffffffffffffffffff16636352211e876040518263ffffffff1660e01b81526004016115179190612b33565b602060405180830381865afa158015611534573d6000803e3d6000fd5b505050506040513d601f19601f820116820180604052508101906115589190613ccc565b73ffffffffffffffffffffffffffffffffffffffff163373ffffffffffffffffffffffffffffffffffffffff16146115c5576040517f08c379a00000000000000000000000000000000000000000000000000000000081526004016115bc90613d45565b60405180910390fd5b42841015611608576040517f08c379a00000000000000000000000000000000000000000000000000000000081526004016115ff90613db1565b60405180910390fd5b6000851161164b576040517f08c379a000000000000000000000000000000000000000000000000000000000815260040161164290613e1d565b60405180910390fd5b610e10846116599190613e3d565b83101561169b576040517f08c379a000000000000000000000000000000000000000000000000000000000815260040161169290613ebd565b60405180910390fd5b828210156116de576040517f08c379a00000000000000000000000000000000000000000000000000000000081526004016116d590613f29565b60405180910390fd5b6000600460008973ffffffffffffffffffffffffffffffffffffffff1673ffffffffffffffffffffffffffffffffffffffff168152602001908152602001600020600088815260200190815260200160002090506000816003015414611779576040517f08c379a000000000000000000000000000000000000000000000000000000000815260040161177090613f95565b60405180910390fd5b338160000160006101000a81548173ffffffffffffffffffffffffffffffffffffffff021916908373ffffffffffffffffffffffffffffffffffffffff16021790555085816002018190555060018160050160006101000a81548160ff021916908360058111156117ed576117ec612c5a565b5b0217905550848160010181905550838160030181905550828160040181905550600160035461181c9190613e3d565b6003819055508173ffffffffffffffffffffffffffffffffffffffff166323b872dd33308a6040518463ffffffff1660e01b815260040161185f939291906137d5565b600060405180830381600087803b15801561187957600080fd5b505af115801561188d573d6000803e3d6000fd5b505050507fdf179f1d286c93c679334be11420131492ab86e4d75b9598ed0ff17508273b4e8888338985600101548989426040516118d2989796959493929190613fb5565b60405180910390a150506001600081905550505050505050565b610e1081565b6118fa6128f3565b6000600460008673ffffffffffffffffffffffffffffffffffffffff1673ffffffffffffffffffffffffffffffffffffffff168152602001908152602001600020600085815260200190815260200160002090506000816007018054905003611998576040517f08c379a000000000000000000000000000000000000000000000000000000000815260040161198f906131e5565b60405180910390fd5b8060060160008473ffffffffffffffffffffffffffffffffffffffff1673ffffffffffffffffffffffffffffffffffffffff16815260200190815260200160002060405180606001604052908160008201548152602001600182015481526020016002820160009054906101000a900473ffffffffffffffffffffffffffffffffffffffff1673ffffffffffffffffffffffffffffffffffffffff1673ffffffffffffffffffffffffffffffffffffffff16815250509150509392505050565b60058181548110611a6857600080fd5b90600052602060002090600202016000915090508060000160009054906101000a900473ffffffffffffffffffffffffffffffffffffffff16908060010160009054906101000a900473ffffffffffffffffffffffffffffffffffffffff16905082565b600260005403611b11576040517f08c379a0000000000000000000000000000000000000000000000000000000008152600401611b0890613c97565b60405180910390fd5b6002600081905550600073ffffffffffffffffffffffffffffffffffffffff16600460008673ffffffffffffffffffffffffffffffffffffffff1673ffffffffffffffffffffffffffffffffffffffff168152602001908152602001600020600085815260200190815260200160002060000160009054906101000a900473ffffffffffffffffffffffffffffffffffffffff1673ffffffffffffffffffffffffffffffffffffffff1603611bfb576040517f08c379a0000000000000000000000000000000000000000000000000000000008152600401611bf29061407f565b60405180910390fd5b600660009054906101000a900473ffffffffffffffffffffffffffffffffffffffff1673ffffffffffffffffffffffffffffffffffffffff163373ffffffffffffffffffffffffffffffffffffffff1603611c8b576040517f08c379a0000000000000000000000000000000000000000000000000000000008152600401611c82906140eb565b60405180910390fd5b6000801b8203611cd0576040517f08c379a0000000000000000000000000000000000000000000000000000000008152600401611cc790614157565b60405180910390fd5b600073ffffffffffffffffffffffffffffffffffffffff16600160008373ffffffffffffffffffffffffffffffffffffffff1673ffffffffffffffffffffffffffffffffffffffff16815260200190815260200160002060009054906101000a900473ffffffffffffffffffffffffffffffffffffffff1673ffffffffffffffffffffffffffffffffffffffff16141580611d705750611d6f81610681565b5b611daf576040517f08c379a0000000000000000000000000000000000000000000000000000000008152600401611da6906141c3565b60405180910390fd5b6000600460008673ffffffffffffffffffffffffffffffffffffffff1673ffffffffffffffffffffffffffffffffffffffff168152602001908152602001600020600085815260200190815260200160002090508060010154421015611e4a576040517f08c379a0000000000000000000000000000000000000000000000000000000008152600401611e419061422f565b60405180910390fd5b8060000160009054906101000a900473ffffffffffffffffffffffffffffffffffffffff1673ffffffffffffffffffffffffffffffffffffffff163373ffffffffffffffffffffffffffffffffffffffff1603611edc576040517f08c379a0000000000000000000000000000000000000000000000000000000008152600401611ed39061429b565b60405180910390fd5b4281600301541015611f23576040517f08c379a0000000000000000000000000000000000000000000000000000000008152600401611f1a90614307565b60405180910390fd5b60008160060160003373ffffffffffffffffffffffffffffffffffffffff1673ffffffffffffffffffffffffffffffffffffffff16815260200190815260200160002090506000801b816001015414611fb1576040517f08c379a0000000000000000000000000000000000000000000000000000000008152600401611fa890614373565b60405180910390fd5b611fbc338585612894565b816001018190555060028260050160006101000a81548160ff02191690836005811115611fec57611feb612c5a565b5b0217905550828160020160006101000a81548173ffffffffffffffffffffffffffffffffffffffff021916908373ffffffffffffffffffffffffffffffffffffffff16021790555081600701339080600181540180825580915050600190039060005260206000200160009091909190916101000a81548173ffffffffffffffffffffffffffffffffffffffff021916908373ffffffffffffffffffffffffffffffffffffffff1602179055507fe86a7bf4f8980619e10345099db4bf2d07da85bf499e37fd7ecb0b5df95c62d8868686426040516120ce9493929190614393565b60405180910390a15050600160008190555050505050565b60606002805480602002602001604051908101604052809291908181526020016000905b828210156121e857838290600052602060002090600202016040518060400160405290816000820160009054906101000a900473ffffffffffffffffffffffffffffffffffffffff1673ffffffffffffffffffffffffffffffffffffffff1673ffffffffffffffffffffffffffffffffffffffff1681526020016001820160009054906101000a900473ffffffffffffffffffffffffffffffffffffffff1673ffffffffffffffffffffffffffffffffffffffff1673ffffffffffffffffffffffffffffffffffffffff16815250508152602001906001019061210a565b50505050905090565b6002818154811061220157600080fd5b90600052602060002090600202016000915090508060000160009054906101000a900473ffffffffffffffffffffffffffffffffffffffff16908060010160009054906101000a900473ffffffffffffffffffffffffffffffffffffffff16905082565b60606000600460008573ffffffffffffffffffffffffffffffffffffffff1673ffffffffffffffffffffffffffffffffffffffff168152602001908152602001600020600084815260200190815260200160002060050160009054906101000a900460ff1660058111156122dc576122db612c5a565b5b905060008160ff1603612326576040518060400160405280600a81526020017f556e61737369676e6564000000000000000000000000000000000000000000008152509150612446565b60018160ff160361236e576040518060400160405280600981526020017f496e6974696174656400000000000000000000000000000000000000000000008152509150612445565b60028160ff16036123b6576040518060400160405280600681526020017f42696464656400000000000000000000000000000000000000000000000000008152509150612444565b60038160ff16036123fe576040518060400160405280600881526020017f45786563757465640000000000000000000000000000000000000000000000008152509150612443565b60048160ff1603612442576040518060400160405280600a81526020017f556e65786563757465640000000000000000000000000000000000000000000081525091505b5b5b5b5b5092915050565b6124e582826040516024016124639291906143d8565b6040516020818303038152906040527f319af333000000000000000000000000000000000000000000000000000000007bffffffffffffffffffffffffffffffffffffffffffffffffffffffff19166020820180517bffffffffffffffffffffffffffffffffffffffffffffffffffffffff83818316178352505050506128ca565b5050565b61258182826040516024016124ff929190614408565b6040516020818303038152906040527fb60e72cc000000000000000000000000000000000000000000000000000000007bffffffffffffffffffffffffffffffffffffffffffffffffffffffff19166020820180517bffffffffffffffffffffffffffffffffffffffffffffffffffffffff83818316178352505050506128ca565b5050565b6000600460008473ffffffffffffffffffffffffffffffffffffffff1673ffffffffffffffffffffffffffffffffffffffff168152602001908152602001600020600083815260200190815260200160002090508060000160009054906101000a900473ffffffffffffffffffffffffffffffffffffffff1673ffffffffffffffffffffffffffffffffffffffff163373ffffffffffffffffffffffffffffffffffffffff161461266b576040517f08c379a0000000000000000000000000000000000000000000000000000000008152600401612662906135f7565b60405180910390fd5b60005b81600701805490508110156127d0578160060160008073ffffffffffffffffffffffffffffffffffffffff1673ffffffffffffffffffffffffffffffffffffffff1681526020019081526020016000208260060160008460070184815481106126da576126d9613683565b5b9060005260206000200160009054906101000a900473ffffffffffffffffffffffffffffffffffffffff1673ffffffffffffffffffffffffffffffffffffffff1673ffffffffffffffffffffffffffffffffffffffff16815260200190815260200160002060008201548160000155600182015481600101556002820160009054906101000a900473ffffffffffffffffffffffffffffffffffffffff168160020160006101000a81548173ffffffffffffffffffffffffffffffffffffffff021916908373ffffffffffffffffffffffffffffffffffffffff16021790555090505080806127c8906136b2565b91505061266e565b50600460008473ffffffffffffffffffffffffffffffffffffffff1673ffffffffffffffffffffffffffffffffffffffff1681526020019081526020016000206000838152602001908152602001600020600080820160006101000a81549073ffffffffffffffffffffffffffffffffffffffff021916905560018201600090556002820160009055600382016000905560048201600090556005820160006101000a81549060ff021916905560078201600061288d919061292d565b5050505050565b60008383836040516020016128ab93929190614480565b6040516020818303038152906040528051906020012090509392505050565b60008151905060006a636f6e736f6c652e6c6f679050602083016000808483855afa5050505050565b60405180606001604052806000815260200160008019168152602001600073ffffffffffffffffffffffffffffffffffffffff1681525090565b508054600082559060005260206000209081019061294b919061294e565b50565b5b8082111561296757600081600090555060010161294f565b5090565b600080fd5b600073ffffffffffffffffffffffffffffffffffffffff82169050919050565b600061299b82612970565b9050919050565b6129ab81612990565b81146129b657600080fd5b50565b6000813590506129c8816129a2565b92915050565b6000819050919050565b6129e1816129ce565b81146129ec57600080fd5b50565b6000813590506129fe816129d8565b92915050565b60008060408385031215612a1b57612a1a61296b565b5b6000612a29858286016129b9565b9250506020612a3a858286016129ef565b9150509250929050565b600081519050919050565b600082825260208201905092915050565b6000819050602082019050919050565b612a7981612990565b82525050565b6000612a8b8383612a70565b60208301905092915050565b6000602082019050919050565b6000612aaf82612a44565b612ab98185612a4f565b9350612ac483612a60565b8060005b83811015612af5578151612adc8882612a7f565b9750612ae783612a97565b925050600181019050612ac8565b5085935050505092915050565b60006020820190508181036000830152612b1c8184612aa4565b905092915050565b612b2d816129ce565b82525050565b6000602082019050612b486000830184612b24565b92915050565b600060208284031215612b6457612b6361296b565b5b6000612b72848285016129b9565b91505092915050565b6000819050919050565b612b8e81612b7b565b82525050565b600060ff82169050919050565b612baa81612b94565b82525050565b6000604082019050612bc56000830185612b85565b612bd26020830184612ba1565b9392505050565b60008115159050919050565b612bee81612bd9565b82525050565b6000602082019050612c096000830184612be5565b92915050565b612c1881612990565b82525050565b6000602082019050612c336000830184612c0f565b92915050565b6000612c4482612970565b9050919050565b612c5481612c39565b82525050565b7f4e487b7100000000000000000000000000000000000000000000000000000000600052602160045260246000fd5b60068110612c9a57612c99612c5a565b5b50565b6000819050612cab82612c89565b919050565b6000612cbb82612c9d565b9050919050565b612ccb81612cb0565b82525050565b600060c082019050612ce66000830189612c4b565b612cf36020830188612b24565b612d006040830187612b24565b612d0d6060830186612b24565b612d1a6080830185612b24565b612d2760a0830184612cc2565b979650505050505050565b6000819050919050565b612d4581612d32565b8114612d5057600080fd5b50565b600081359050612d6281612d3c565b92915050565b60008060008060808587031215612d8257612d8161296b565b5b6000612d90878288016129b9565b9450506020612da1878288016129ef565b9350506040612db2878288016129ef565b9250506060612dc387828801612d53565b91505092959194509250565b60008060008060008060c08789031215612dec57612deb61296b565b5b6000612dfa89828a016129b9565b9650506020612e0b89828a016129ef565b9550506040612e1c89828a016129ef565b9450506060612e2d89828a016129ef565b9350506080612e3e89828a016129ef565b92505060a0612e4f89828a016129ef565b9150509295509295509295565b600080600060608486031215612e7557612e7461296b565b5b6000612e83868287016129b9565b9350506020612e94868287016129ef565b9250506040612ea5868287016129b9565b9150509250925092565b612eb8816129ce565b82525050565b612ec781612d32565b82525050565b606082016000820151612ee36000850182612eaf565b506020820151612ef66020850182612ebe565b506040820151612f096040850182612a70565b50505050565b6000606082019050612f246000830184612ecd565b92915050565b600060208284031215612f4057612f3f61296b565b5b6000612f4e848285016129ef565b91505092915050565b6000604082019050612f6c6000830185612c0f565b612f796020830184612c0f565b9392505050565b60008060008060808587031215612f9a57612f9961296b565b5b6000612fa8878288016129b9565b9450506020612fb9878288016129ef565b9350506040612fca87828801612d53565b9250506060612fdb878288016129b9565b91505092959194509250565b600081519050919050565b600082825260208201905092915050565b6000819050602082019050919050565b6040820160008201516130296000850182612a70565b50602082015161303c6020850182612a70565b50505050565b600061304e8383613013565b60408301905092915050565b6000602082019050919050565b600061307282612fe7565b61307c8185612ff2565b935061308783613003565b8060005b838110156130b857815161309f8882613042565b97506130aa8361305a565b92505060018101905061308b565b5085935050505092915050565b600060208201905081810360008301526130df8184613067565b905092915050565b600081519050919050565b600082825260208201905092915050565b60005b83811015613121578082015181840152602081019050613106565b60008484015250505050565b6000601f19601f8301169050919050565b6000613149826130e7565b61315381856130f2565b9350613163818560208601613103565b61316c8161312d565b840191505092915050565b60006020820190508181036000830152613191818461313e565b905092915050565b7f6e6f206269647300000000000000000000000000000000000000000000000000600082015250565b60006131cf6007836130f2565b91506131da82613199565b602082019050919050565b600060208201905081810360008301526131fe816131c2565b9050919050565b600069ffffffffffffffffffff82169050919050565b61322481613205565b811461322f57600080fd5b50565b6000815190506132418161321b565b92915050565b61325081612b7b565b811461325b57600080fd5b50565b60008151905061326d81613247565b92915050565b600081519050613282816129d8565b92915050565b600080600080600060a086880312156132a4576132a361296b565b5b60006132b288828901613232565b95505060206132c38882890161325e565b94505060406132d488828901613273565b93505060606132e588828901613273565b92505060806132f688828901613232565b9150509295509295909350565b61330c81612b94565b811461331757600080fd5b50565b60008151905061332981613303565b92915050565b6000602082840312156133455761334461296b565b5b60006133538482850161331a565b91505092915050565b7f4e487b7100000000000000000000000000000000000000000000000000000000600052601160045260246000fd5b60008160011c9050919050565b6000808291508390505b60018511156133e2578086048111156133be576133bd61335c565b5b60018516156133cd5780820291505b80810290506133db8561338b565b94506133a2565b94509492505050565b6000826133fb57600190506134b7565b8161340957600090506134b7565b816001811461341f576002811461342957613458565b60019150506134b7565b60ff84111561343b5761343a61335c565b5b8360020a9150848211156134525761345161335c565b5b506134b7565b5060208310610133831016604e8410600b841016171561348d5782820a9050838111156134885761348761335c565b5b6134b7565b61349a8484846001613398565b925090508184048111156134b1576134b061335c565b5b81810290505b9392505050565b60006134c9826129ce565b91506134d483612b94565b92506135017fffffffffffffffffffffffffffffffffffffffffffffffffffffffffffffffff84846133eb565b905092915050565b6000613514826129ce565b915061351f836129ce565b925082820261352d816129ce565b915082820484148315176135445761354361335c565b5b5092915050565b7f4e487b7100000000000000000000000000000000000000000000000000000000600052601260045260246000fd5b6000613585826129ce565b9150613590836129ce565b9250826135a05761359f61354b565b5b828204905092915050565b7f6e6f742061756374696f6e206f776e6572000000000000000000000000000000600082015250565b60006135e16011836130f2565b91506135ec826135ab565b602082019050919050565b60006020820190508181036000830152613610816135d4565b9050919050565b7f6e6f7420696e2072657665616c20706861736500000000000000000000000000600082015250565b600061364d6013836130f2565b915061365882613617565b602082019050919050565b6000602082019050818103600083015261367c81613640565b9050919050565b7f4e487b7100000000000000000000000000000000000000000000000000000000600052603260045260246000fd5b60006136bd826129ce565b91507fffffffffffffffffffffffffffffffffffffffffffffffffffffffffffffffff82036136ef576136ee61335c565b5b600182019050919050565b6000819050919050565b600061371f61371a61371584612970565b6136fa565b612970565b9050919050565b600061373182613704565b9050919050565b600061374382613726565b9050919050565b61375381613738565b82525050565b600060608201905061376e6000830186612c0f565b61377b602083018561374a565b6137886040830184612b24565b949350505050565b60006080820190506137a56000830187612c0f565b6137b26020830186612b24565b6137bf6040830185612c0f565b6137cc6060830184612b24565b95945050505050565b60006060820190506137ea6000830186612c0f565b6137f76020830185612c0f565b6138046040830184612b24565b949350505050565b61381581612bd9565b811461382057600080fd5b50565b6000815190506138328161380c565b92915050565b60006020828403121561384e5761384d61296b565b5b600061385c84828501613823565b91505092915050565b600060a08201905061387a6000830188612c0f565b6138876020830187612b24565b6138946040830186612c0f565b6138a1606083018561374a565b6138ae6080830184612b24565b9695505050505050565b7f7a65726f206269642076616c7565000000000000000000000000000000000000600082015250565b60006138ee600e836130f2565b91506138f9826138b8565b602082019050919050565b6000602082019050818103600083015261391d816138e1565b9050919050565b7f61756374696f6e206e6f7420656e646564207965740000000000000000000000600082015250565b600061395a6015836130f2565b915061396582613924565b602082019050919050565b600060208201905081810360008301526139898161394d565b9050919050565b7f6e6f2062696420636f6d6d69746d656e74000000000000000000000000000000600082015250565b60006139c66011836130f2565b91506139d182613990565b602082019050919050565b600060208201905081810360008301526139f5816139b9565b9050919050565b600060208284031215613a1257613a1161296b565b5b6000613a2084828501613273565b91505092915050565b7f696e7375666620746f6b656e2062616c00000000000000000000000000000000600082015250565b6000613a5f6010836130f2565b9150613a6a82613a29565b602082019050919050565b60006020820190508181036000830152613a8e81613a52565b9050919050565b7f6c6f7720746f6b656e20616c6c6f77616e636500000000000000000000000000600082015250565b6000613acb6013836130f2565b9150613ad682613a95565b602082019050919050565b60006020820190508181036000830152613afa81613abe565b9050919050565b6000819050919050565b613b1c613b17826129ce565b613b01565b82525050565b6000819050919050565b613b3d613b3882612d32565b613b22565b82525050565b6000613b4f8285613b0b565b602082019150613b5f8284613b2c565b6020820191508190509392505050565b7f696e76616c696420626964206861736800000000000000000000000000000000600082015250565b6000613ba56010836130f2565b9150613bb082613b6f565b602082019050919050565b60006020820190508181036000830152613bd481613b98565b9050919050565b613be481612d32565b82525050565b600060c082019050613bff6000830189612c0f565b613c0c6020830188612b24565b613c196040830187613bdb565b613c266060830186612c0f565b613c336080830185613bdb565b613c4060a0830184612b24565b979650505050505050565b7f5265656e7472616e637947756172643a207265656e7472616e742063616c6c00600082015250565b6000613c81601f836130f2565b9150613c8c82613c4b565b602082019050919050565b60006020820190508181036000830152613cb081613c74565b9050919050565b600081519050613cc6816129a2565b92915050565b600060208284031215613ce257613ce161296b565b5b6000613cf084828501613cb7565b91505092915050565b7f6e6f74206f776e65720000000000000000000000000000000000000000000000600082015250565b6000613d2f6009836130f2565b9150613d3a82613cf9565b602082019050919050565b60006020820190508181036000830152613d5e81613d22565b9050919050565b7f696e76616c69642061756374696f6e2073746172742074696d65000000000000600082015250565b6000613d9b601a836130f2565b9150613da682613d65565b602082019050919050565b60006020820190508181036000830152613dca81613d8e565b9050919050565b7f61756374696f6e2070726963652063616e6e6f74206265207a65726f00000000600082015250565b6000613e07601c836130f2565b9150613e1282613dd1565b602082019050919050565b60006020820190508181036000830152613e3681613dfa565b9050919050565b6000613e48826129ce565b9150613e53836129ce565b9250828201905080821115613e6b57613e6a61335c565b5b92915050565b7f696e76616c69642061756374696f6e20656e642074696d650000000000000000600082015250565b6000613ea76018836130f2565b9150613eb282613e71565b602082019050919050565b60006020820190508181036000830152613ed681613e9a565b9050919050565b7f696e76616c69642072657665616c206475726174696f6e2074696d6500000000600082015250565b6000613f13601c836130f2565b9150613f1e82613edd565b602082019050919050565b60006020820190508181036000830152613f4281613f06565b9050919050565b7f61756374696f6e20616c72656164792065786973740000000000000000000000600082015250565b6000613f7f6015836130f2565b9150613f8a82613f49565b602082019050919050565b60006020820190508181036000830152613fae81613f72565b9050919050565b600061010082019050613fcb600083018b612c0f565b613fd8602083018a612b24565b613fe56040830189612c0f565b613ff26060830188612b24565b613fff6080830187612b24565b61400c60a0830186612b24565b61401960c0830185612b24565b61402660e0830184612b24565b9998505050505050505050565b7f6e6f6e2d6578697374656e742061756374696f6e206974656d00000000000000600082015250565b60006140696019836130f2565b915061407482614033565b602082019050919050565b600060208201905081810360008301526140988161405c565b9050919050565b7f6465706c6f7965722063616e6e6f742062696400000000000000000000000000600082015250565b60006140d56013836130f2565b91506140e08261409f565b602082019050919050565b60006020820190508181036000830152614104816140c8565b9050919050565b7f7a65726f2062696420636f6d6d69746d656e7400000000000000000000000000600082015250565b60006141416013836130f2565b915061414c8261410b565b602082019050919050565b6000602082019050818103600083015261417081614134565b9050919050565b7f696e76616c69642062696420746f6b656e000000000000000000000000000000600082015250565b60006141ad6011836130f2565b91506141b882614177565b602082019050919050565b600060208201905081810360008301526141dc816141a0565b9050919050565b7f61756374696f6e20686173206e6f742073746172746564000000000000000000600082015250565b60006142196017836130f2565b9150614224826141e3565b602082019050919050565b600060208201905081810360008301526142488161420c565b9050919050565b7f61756374696f6e2073656c6c65722063616e6e6f742062696400000000000000600082015250565b60006142856019836130f2565b91506142908261424f565b602082019050919050565b600060208201905081810360008301526142b481614278565b9050919050565b7f61756374696f6e2068617320656e646564000000000000000000000000000000600082015250565b60006142f16011836130f2565b91506142fc826142bb565b602082019050919050565b60006020820190508181036000830152614320816142e4565b9050919050565b7f696e697469616c697a656420626964436f6d6d69746d656e7400000000000000600082015250565b600061435d6019836130f2565b915061436882614327565b602082019050919050565b6000602082019050818103600083015261438c81614350565b9050919050565b60006080820190506143a86000830187612c0f565b6143b56020830186612b24565b6143c26040830185613bdb565b6143cf6060830184612b24565b95945050505050565b600060408201905081810360008301526143f2818561313e565b90506144016020830184612c0f565b9392505050565b60006040820190508181036000830152614422818561313e565b90506144316020830184612b24565b9392505050565b60008160601b9050919050565b600061445082614438565b9050919050565b600061446282614445565b9050919050565b61447a61447582612990565b614457565b82525050565b600061448c8286614469565b60148201915061449c8285613b2c565b6020820191506144ac8284614469565b60148201915081905094935050505056fe686967686573742062696420616d6f756e742066726f6d206461756374696f6e202573666f726d61747465642070726963652066726f6d206461756374696f6e5f5f202573a2646970667358221220054272b843724c1dd3f53b7f4b8d7154d11109ab1b17570b9ad220ed6dd17b4564736f6c63430008110033",
  "linkReferences": {},
  "deployedLinkReferences": {}
}