{
  "_format": "hh-sol-artifact-1",
  "contractName": "Dauction",
  "sourceName": "contracts/Dauction.sol",
  "abi": [
    {
      "inputs": [
        {
          "components": [
            {
              "internalType": "address",
              "name": "token",
              "type": "address"
            },
            {
              "internalType": "address",
              "name": "priceFeed",
              "type": "address"
            }
          ],
          "internalType": "struct Dauction.BidTokens[]",
          "name": "bidTokensArray",
          "type": "tuple[]"
        },
        {
          "internalType": "address",
          "name": "_USDT",
          "type": "address"
        }
      ],
      "stateMutability": "nonpayable",
      "type": "constructor"
    },
    {
      "anonymous": false,
      "inputs": [
        {
          "indexed": false,
          "internalType": "address",
          "name": "nft",
          "type": "address"
        },
        {
          "indexed": false,
          "internalType": "uint256",
          "name": "tokenId",
          "type": "uint256"
        },
        {
          "indexed": false,
          "internalType": "address",
          "name": "seller",
          "type": "address"
        },
        {
          "indexed": false,
          "internalType": "uint256",
          "name": "minBidPrice",
          "type": "uint256"
        },
        {
          "indexed": false,
          "internalType": "uint256",
          "name": "startTime",
          "type": "uint256"
        },
        {
          "indexed": false,
          "internalType": "uint256",
          "name": "endTime",
          "type": "uint256"
        },
        {
          "indexed": false,
          "internalType": "uint256",
          "name": "revealDuration",
          "type": "uint256"
        },
        {
          "indexed": false,
          "internalType": "uint256",
          "name": "auctionCreatedAt",
          "type": "uint256"
        }
      ],
      "name": "AuctionCreated",
      "type": "event"
    },
    {
      "anonymous": false,
      "inputs": [
        {
          "indexed": false,
          "internalType": "address",
          "name": "nftAddress",
          "type": "address"
        },
        {
          "indexed": false,
          "internalType": "uint256",
          "name": "tokenId",
          "type": "uint256"
        },
        {
          "indexed": false,
          "internalType": "address",
          "name": "previousOwner",
          "type": "address"
        },
        {
          "indexed": false,
          "internalType": "address",
          "name": "newOwner",
          "type": "address"
        },
        {
          "indexed": false,
          "internalType": "uint256",
          "name": "tokenAmountPaid",
          "type": "uint256"
        }
      ],
      "name": "AuctionSettled",
      "type": "event"
    },
    {
      "anonymous": false,
      "inputs": [
        {
          "indexed": false,
          "internalType": "address",
          "name": "nftAddress",
          "type": "address"
        },
        {
          "indexed": false,
          "internalType": "uint256",
          "name": "tokenId",
          "type": "uint256"
        },
        {
          "indexed": false,
          "internalType": "address",
          "name": "owner",
          "type": "address"
        },
        {
          "indexed": false,
          "internalType": "uint256",
          "name": "time",
          "type": "uint256"
        }
      ],
      "name": "AuctionUnsettled",
      "type": "event"
    },
    {
      "anonymous": false,
      "inputs": [
        {
          "indexed": false,
          "internalType": "address",
          "name": "nftContractAddress",
          "type": "address"
        },
        {
          "indexed": false,
          "internalType": "uint256",
          "name": "tokenId",
          "type": "uint256"
        },
        {
          "indexed": false,
          "internalType": "bytes32",
          "name": "bidCommitment",
          "type": "bytes32"
        },
        {
          "indexed": false,
          "internalType": "uint256",
          "name": "biddedAt",
          "type": "uint256"
        }
      ],
      "name": "BidCreated",
      "type": "event"
    },
    {
      "anonymous": false,
      "inputs": [
        {
          "indexed": false,
          "internalType": "address",
          "name": "tokenContract",
          "type": "address"
        },
        {
          "indexed": false,
          "internalType": "uint256",
          "name": "tokenId",
          "type": "uint256"
        },
        {
          "indexed": false,
          "internalType": "bytes32",
          "name": "bidHash",
          "type": "bytes32"
        },
        {
          "indexed": false,
          "internalType": "address",
          "name": "bidder",
          "type": "address"
        },
        {
          "indexed": false,
          "internalType": "bytes32",
          "name": "salt",
          "type": "bytes32"
        },
        {
          "indexed": false,
          "internalType": "uint256",
          "name": "bidValue",
          "type": "uint256"
        }
      ],
      "name": "BidRevealed",
      "type": "event"
    },
    {
      "inputs": [],
      "name": "MIN_AUCTION_PERIOD",
      "outputs": [
        {
          "internalType": "uint256",
          "name": "",
          "type": "uint256"
        }
      ],
      "stateMutability": "view",
      "type": "function"
    },
    {
      "inputs": [
        {
          "internalType": "address",
          "name": "",
          "type": "address"
        },
        {
          "internalType": "uint256",
          "name": "",
          "type": "uint256"
        }
      ],
      "name": "auctions",
      "outputs": [
        {
          "internalType": "address payable",
          "name": "owner",
          "type": "address"
        },
        {
          "internalType": "uint256",
          "name": "startTime",
          "type": "uint256"
        },
        {
          "internalType": "uint256",
          "name": "minBidPrice",
          "type": "uint256"
        },
        {
          "internalType": "uint256",
          "name": "endTime",
          "type": "uint256"
        },
        {
          "internalType": "uint256",
          "name": "revealDuration",
          "type": "uint256"
        },
        {
          "internalType": "enum Dauction.AuctionStatus",
          "name": "auctionStatus",
          "type": "uint8"
        }
      ],
      "stateMutability": "view",
      "type": "function"
    },
    {
      "inputs": [
        {
          "internalType": "address",
          "name": "",
          "type": "address"
        }
      ],
      "name": "bidTokenToPriceFeed",
      "outputs": [
        {
          "internalType": "address",
          "name": "",
          "type": "address"
        }
      ],
      "stateMutability": "view",
      "type": "function"
    },
    {
      "inputs": [
        {
          "internalType": "uint256",
          "name": "",
          "type": "uint256"
        }
      ],
      "name": "bidTokens",
      "outputs": [
        {
          "internalType": "address",
          "name": "token",
          "type": "address"
        },
        {
          "internalType": "address",
          "name": "priceFeed",
          "type": "address"
        }
      ],
      "stateMutability": "view",
      "type": "function"
    },
    {
      "inputs": [
        {
          "internalType": "address",
          "name": "_priceFeed",
          "type": "address"
        },
        {
          "internalType": "uint256",
          "name": "bidAmount",
          "type": "uint256"
        }
      ],
      "name": "calculateBasePrice",
      "outputs": [
        {
          "internalType": "uint256",
          "name": "",
          "type": "uint256"
        }
      ],
      "stateMutability": "view",
      "type": "function"
    },
    {
      "inputs": [
        {
          "internalType": "address",
          "name": "_bidToken",
          "type": "address"
        }
      ],
      "name": "checkBidTokenUSDTEquivalence",
      "outputs": [
        {
          "internalType": "bool",
          "name": "",
          "type": "bool"
        }
      ],
      "stateMutability": "view",
      "type": "function"
    },
    {
      "inputs": [
        {
          "internalType": "address",
          "name": "_nftAddress",
          "type": "address"
        },
        {
          "internalType": "uint256",
          "name": "_tokenId",
          "type": "uint256"
        },
        {
          "internalType": "uint256",
          "name": "_minBidPrice",
          "type": "uint256"
        },
        {
          "internalType": "uint256",
          "name": "_startTime",
          "type": "uint256"
        },
        {
          "internalType": "uint256",
          "name": "_endTime",
          "type": "uint256"
        },
        {
          "internalType": "uint256",
          "name": "_revealDuration",
          "type": "uint256"
        }
      ],
      "name": "createAuction",
      "outputs": [],
      "stateMutability": "nonpayable",
      "type": "function"
    },
    {
      "inputs": [
        {
          "internalType": "address",
          "name": "nftContractAddress",
          "type": "address"
        },
        {
          "internalType": "uint256",
          "name": "tokenId",
          "type": "uint256"
        },
        {
          "internalType": "bytes32",
          "name": "bidCommitment",
          "type": "bytes32"
        },
        {
          "internalType": "address",
          "name": "bidToken",
          "type": "address"
        }
      ],
      "name": "createBid",
      "outputs": [],
      "stateMutability": "nonpayable",
      "type": "function"
    },
    {
      "inputs": [
        {
          "internalType": "address",
          "name": "nftAddress",
          "type": "address"
        },
        {
          "internalType": "uint256",
          "name": "tokenId",
          "type": "uint256"
        }
      ],
      "name": "getAuctionStatus",
      "outputs": [
        {
          "internalType": "string",
          "name": "_auctionStatus",
          "type": "string"
        }
      ],
      "stateMutability": "view",
      "type": "function"
    },
    {
      "inputs": [
        {
          "internalType": "address",
          "name": "nftAddress",
          "type": "address"
        },
        {
          "internalType": "uint256",
          "name": "tokenId",
          "type": "uint256"
        },
        {
          "internalType": "address",
          "name": "bidder",
          "type": "address"
        }
      ],
      "name": "getBid",
      "outputs": [
        {
          "components": [
            {
              "internalType": "uint256",
              "name": "amountBidded",
              "type": "uint256"
            },
            {
              "internalType": "bytes32",
              "name": "bidCommitHash",
              "type": "bytes32"
            },
            {
              "internalType": "address",
              "name": "bidToken",
              "type": "address"
            }
          ],
          "internalType": "struct Dauction.Bid",
          "name": "",
          "type": "tuple"
        }
      ],
      "stateMutability": "view",
      "type": "function"
    },
    {
      "inputs": [],
      "name": "getBidTokens",
      "outputs": [
        {
          "components": [
            {
              "internalType": "address",
              "name": "token",
              "type": "address"
            },
            {
              "internalType": "address",
              "name": "priceFeed",
              "type": "address"
            }
          ],
          "internalType": "struct Dauction.BidTokens[]",
          "name": "",
          "type": "tuple[]"
        }
      ],
      "stateMutability": "view",
      "type": "function"
    },
    {
      "inputs": [
        {
          "internalType": "address",
          "name": "nftAddress",
          "type": "address"
        },
        {
          "internalType": "uint256",
          "name": "tokenId",
          "type": "uint256"
        }
      ],
      "name": "getBidders",
      "outputs": [
        {
          "internalType": "address[]",
          "name": "",
          "type": "address[]"
        }
      ],
      "stateMutability": "view",
      "type": "function"
    },
    {
      "inputs": [
        {
          "internalType": "address",
          "name": "_priceFeed",
          "type": "address"
        }
      ],
      "name": "getLatestPrice",
      "outputs": [
        {
          "internalType": "int256",
          "name": "",
          "type": "int256"
        },
        {
          "internalType": "uint8",
          "name": "",
          "type": "uint8"
        }
      ],
      "stateMutability": "view",
      "type": "function"
    },
    {
      "inputs": [
        {
          "internalType": "address",
          "name": "nftAddress",
          "type": "address"
        },
        {
          "internalType": "uint256",
          "name": "tokenId",
          "type": "uint256"
        }
      ],
      "name": "getMinBidPrice",
      "outputs": [
        {
          "internalType": "uint256",
          "name": "",
          "type": "uint256"
        }
      ],
      "stateMutability": "view",
      "type": "function"
    },
    {
      "inputs": [
        {
          "internalType": "address",
          "name": "nftAddress",
          "type": "address"
        },
        {
          "internalType": "uint256",
          "name": "tokenId",
          "type": "uint256"
        },
        {
          "internalType": "uint256",
          "name": "bidValue",
          "type": "uint256"
        },
        {
          "internalType": "bytes32",
          "name": "salt",
          "type": "bytes32"
        }
      ],
      "name": "revealBid",
      "outputs": [],
      "stateMutability": "nonpayable",
      "type": "function"
    },
    {
      "inputs": [
        {
          "internalType": "address",
          "name": "nftAddress",
          "type": "address"
        },
        {
          "internalType": "uint256",
          "name": "tokenId",
          "type": "uint256"
        }
      ],
      "name": "settleAuction",
      "outputs": [],
      "stateMutability": "nonpayable",
      "type": "function"
    },
    {
      "inputs": [],
      "name": "totalAuctions",
      "outputs": [
        {
          "internalType": "uint256",
          "name": "",
          "type": "uint256"
        }
      ],
      "stateMutability": "view",
      "type": "function"
    }
  ],
  "bytecode": "0x60a06040523480156200001157600080fd5b50604051620047d4380380620047d48339818101604052810190620000379190620003ec565b600160008190555060005b8251811015620001225782818151811062000062576200006162000452565b5b6020026020010151602001516001600085848151811062000088576200008762000452565b5b60200260200101516000015173ffffffffffffffffffffffffffffffffffffffff1673ffffffffffffffffffffffffffffffffffffffff16815260200190815260200160002060006101000a81548173ffffffffffffffffffffffffffffffffffffffff021916908373ffffffffffffffffffffffffffffffffffffffff16021790555080806200011990620004ba565b91505062000042565b508073ffffffffffffffffffffffffffffffffffffffff1660808173ffffffffffffffffffffffffffffffffffffffff168152505033600560006101000a81548173ffffffffffffffffffffffffffffffffffffffff021916908373ffffffffffffffffffffffffffffffffffffffff160217905550505062000507565b6000604051905090565b600080fd5b600080fd5b600080fd5b6000601f19601f8301169050919050565b7f4e487b7100000000000000000000000000000000000000000000000000000000600052604160045260246000fd5b6200020482620001b9565b810181811067ffffffffffffffff82111715620002265762000225620001ca565b5b80604052505050565b60006200023b620001a0565b9050620002498282620001f9565b919050565b600067ffffffffffffffff8211156200026c576200026b620001ca565b5b602082029050602081019050919050565b600080fd5b600080fd5b600073ffffffffffffffffffffffffffffffffffffffff82169050919050565b6000620002b48262000287565b9050919050565b620002c681620002a7565b8114620002d257600080fd5b50565b600081519050620002e681620002bb565b92915050565b60006040828403121562000305576200030462000282565b5b6200031160406200022f565b905060006200032384828501620002d5565b60008301525060206200033984828501620002d5565b60208301525092915050565b60006200035c62000356846200024e565b6200022f565b905080838252602082019050604084028301858111156200038257620003816200027d565b5b835b81811015620003af57806200039a8882620002ec565b84526020840193505060408101905062000384565b5050509392505050565b600082601f830112620003d157620003d0620001b4565b5b8151620003e384826020860162000345565b91505092915050565b60008060408385031215620004065762000405620001aa565b5b600083015167ffffffffffffffff811115620004275762000426620001af565b5b6200043585828601620003b9565b92505060206200044885828601620002d5565b9150509250929050565b7f4e487b7100000000000000000000000000000000000000000000000000000000600052603260045260246000fd5b7f4e487b7100000000000000000000000000000000000000000000000000000000600052601160045260246000fd5b6000819050919050565b6000620004c782620004b0565b91507fffffffffffffffffffffffffffffffffffffffffffffffffffffffffffffffff8203620004fc57620004fb62000481565b5b600182019050919050565b6080516142b162000523600039600061064f01526142b16000f3fe608060405234801561001057600080fd5b506004361061010b5760003560e01c80635138b08c116100a2578063b34171b511610071578063b34171b5146102f6578063c2e0e7e014610326578063d59feb6a14610342578063e6f7fbd414610360578063f8a206fa146103915761010b565b80635138b08c146102845780637887df85146102a0578063791bb4ef146102bc57806398984de6146102d85761010b565b8063194d07ca116100de578063194d07ca146101bf5780631e8a0b32146101ef57806333d31bf51461021f57806344f91c1e1461024f5761010b565b80630d587c1e14610110578063102784981461014057806316002f4a1461017057806316345f181461018e575b600080fd5b61012a60048036038101906101259190612820565b6103c1565b604051610137919061291e565b60405180910390f35b61015a60048036038101906101559190612820565b6104ed565b604051610167919061294f565b60405180910390f35b61017861054b565b604051610185919061294f565b60405180910390f35b6101a860048036038101906101a3919061296a565b610551565b6040516101b69291906129cc565b60405180910390f35b6101d960048036038101906101d4919061296a565b61064b565b6040516101e69190612a10565b60405180910390f35b61020960048036038101906102049190612820565b6106b1565b604051610216919061294f565b60405180910390f35b6102396004803603810190610234919061296a565b6106f0565b6040516102469190612a3a565b60405180910390f35b61026960048036038101906102649190612820565b610723565b60405161027b96959493929190612aed565b60405180910390f35b61029e60048036038101906102999190612820565b610799565b005b6102ba60048036038101906102b59190612b84565b610f3d565b005b6102d660048036038101906102d19190612beb565b61135a565b005b6102e06117b9565b6040516102ed919061294f565b60405180910390f35b610310600480360381019061030b9190612c78565b6117bf565b60405161031d9190612d2b565b60405180910390f35b610340600480360381019061033b9190612d46565b611925565b005b61034a611ef0565b6040516103579190612e8b565b60405180910390f35b61037a60048036038101906103759190612ead565b611ffb565b604051610388929190612eda565b60405180910390f35b6103ab60048036038101906103a69190612820565b61206f565b6040516103b89190612f93565b60405180910390f35b60606000600460008573ffffffffffffffffffffffffffffffffffffffff1673ffffffffffffffffffffffffffffffffffffffff168152602001908152602001600020600084815260200190815260200160002060070180548060200260200160405190810160405280929190818152602001828054801561049857602002820191906000526020600020905b8160009054906101000a900473ffffffffffffffffffffffffffffffffffffffff1673ffffffffffffffffffffffffffffffffffffffff168152602001906001019080831161044e575b5050505050905060008151036104e3576040517f08c379a00000000000000000000000000000000000000000000000000000000081526004016104da90613001565b60405180910390fd5b8091505092915050565b6000600460008473ffffffffffffffffffffffffffffffffffffffff1673ffffffffffffffffffffffffffffffffffffffff168152602001908152602001600020600083815260200190815260200160002060020154905092915050565b60035481565b60008060008373ffffffffffffffffffffffffffffffffffffffff1663feaf968c6040518163ffffffff1660e01b815260040160a060405180830381865afa1580156105a1573d6000803e3d6000fd5b505050506040513d601f19601f820116820180604052508101906105c591906130a4565b50505091505060008473ffffffffffffffffffffffffffffffffffffffff1663313ce5676040518163ffffffff1660e01b8152600401602060405180830381865afa158015610618573d6000803e3d6000fd5b505050506040513d601f19601f8201168201806040525081019061063c919061314b565b90508181935093505050915091565b60007f000000000000000000000000000000000000000000000000000000000000000073ffffffffffffffffffffffffffffffffffffffff168273ffffffffffffffffffffffffffffffffffffffff16146106a75760006106aa565b60015b9050919050565b60008060006106bf85610551565b9150915080600a6106d091906132da565b82856106dc9190613325565b6106e69190613396565b9250505092915050565b60016020528060005260406000206000915054906101000a900473ffffffffffffffffffffffffffffffffffffffff1681565b6004602052816000526040600020602052806000526040600020600091509150508060000160009054906101000a900473ffffffffffffffffffffffffffffffffffffffff16908060010154908060020154908060030154908060040154908060050160009054906101000a900460ff16905086565b6000600460008473ffffffffffffffffffffffffffffffffffffffff1673ffffffffffffffffffffffffffffffffffffffff168152602001908152602001600020600083815260200190815260200160002090508060000160009054906101000a900473ffffffffffffffffffffffffffffffffffffffff1673ffffffffffffffffffffffffffffffffffffffff163373ffffffffffffffffffffffffffffffffffffffff161461087f576040517f08c379a000000000000000000000000000000000000000000000000000000000815260040161087690613413565b60405180910390fd5b806004015442116108c5576040517f08c379a00000000000000000000000000000000000000000000000000000000081526004016108bc9061347f565b60405180910390fd5b60008060008060005b8560070180549050811015610b43578560070181815481106108f3576108f261349f565b5b9060005260206000200160009054906101000a900473ffffffffffffffffffffffffffffffffffffffff16945060008660060160008773ffffffffffffffffffffffffffffffffffffffff1673ffffffffffffffffffffffffffffffffffffffff16815260200190815260200160002060405180606001604052908160008201548152602001600182015481526020016002820160009054906101000a900473ffffffffffffffffffffffffffffffffffffffff1673ffffffffffffffffffffffffffffffffffffffff1673ffffffffffffffffffffffffffffffffffffffff1681525050905060008160000151036109ec5750610b30565b80600001519450600081604001519050610a3b6040518060400160405280601b81526020017f62696420616d6f756e74206265666f72652074656e6172792025730000000000815250876122a0565b6000610a468261064b565b610ab857610ab3600160008473ffffffffffffffffffffffffffffffffffffffff1673ffffffffffffffffffffffffffffffffffffffff16815260200190815260200160002060009054906101000a900473ffffffffffffffffffffffffffffffffffffffff16886106b1565b610aba565b865b9050610ade60405180606001604052806022815260200161425a60229139826122a0565b85811115610b2c57610b256040518060400160405280601281526020017f666f726d61747465642070726963652025730000000000000000000000000000815250826122a0565b8095508794505b5050505b8080610b3b906134ce565b9150506108ce565b50600073ffffffffffffffffffffffffffffffffffffffff168173ffffffffffffffffffffffffffffffffffffffff161480610b825750846002015482105b15610cb257338560000160006101000a81548173ffffffffffffffffffffffffffffffffffffffff021916908373ffffffffffffffffffffffffffffffffffffffff16021790555060058560050160006101000a81548160ff02191690836005811115610bf257610bf1612a76565b5b02179055508673ffffffffffffffffffffffffffffffffffffffff166342842e0e3033896040518463ffffffff1660e01b8152600401610c3493929190613516565b600060405180830381600087803b158015610c4e57600080fd5b505af1158015610c62573d6000803e3d6000fd5b50505050610c70878761233c565b7f4c52329b429b6bc14602f8d8e34d003593c51b818a57a24fbc132479501432ad87873342604051610ca5949392919061354d565b60405180910390a1610f2a565b610cf16040518060400160405280601d81526020017f68696768657374206269646465725f5f66726f6d20646175633a20257300000081525082612614565b60008560060160008373ffffffffffffffffffffffffffffffffffffffff1673ffffffffffffffffffffffffffffffffffffffff16815260200190815260200160002060405180606001604052908160008201548152602001600182015481526020016002820160009054906101000a900473ffffffffffffffffffffffffffffffffffffffff1673ffffffffffffffffffffffffffffffffffffffff1673ffffffffffffffffffffffffffffffffffffffff16815250509050806040015173ffffffffffffffffffffffffffffffffffffffff166323b872dd833384600001516040518463ffffffff1660e01b8152600401610df093929190613516565b6020604051808303816000875af1158015610e0f573d6000803e3d6000fd5b505050506040513d601f19601f82011682018060405250810190610e3391906135be565b50610e5660405180606001604052806023815260200161423760239139846122a0565b8773ffffffffffffffffffffffffffffffffffffffff166342842e0e30848a6040518463ffffffff1660e01b8152600401610e9393929190613516565b600060405180830381600087803b158015610ead57600080fd5b505af1158015610ec1573d6000803e3d6000fd5b505050507fd89ac72b811465c6564ec26b5b26028c4682af9011a5f67bd34a50a095d0b13b8888338960000160009054906101000a900473ffffffffffffffffffffffffffffffffffffffff1687604051610f2095949392919061364a565b60405180910390a1505b610f34878761233c565b50505050505050565b60008203610f80576040517f08c379a0000000000000000000000000000000000000000000000000000000008152600401610f77906136e9565b60405180910390fd5b6000600460008673ffffffffffffffffffffffffffffffffffffffff1673ffffffffffffffffffffffffffffffffffffffff1681526020019081526020016000206000858152602001908152602001600020905080600301544210158015610fec575080600401544211155b61102b576040517f08c379a00000000000000000000000000000000000000000000000000000000081526004016110229061347f565b60405180910390fd5b60008160060160003373ffffffffffffffffffffffffffffffffffffffff1673ffffffffffffffffffffffffffffffffffffffff16815260200190815260200160002090506000801b8160010154036110b9576040517f08c379a00000000000000000000000000000000000000000000000000000000081526004016110b090613755565b60405180910390fd5b60008160020160009054906101000a900473ffffffffffffffffffffffffffffffffffffffff169050848173ffffffffffffffffffffffffffffffffffffffff166370a08231336040518263ffffffff1660e01b815260040161111c9190612a3a565b602060405180830381865afa158015611139573d6000803e3d6000fd5b505050506040513d601f19601f8201168201806040525081019061115d9190613775565b101561119e576040517f08c379a0000000000000000000000000000000000000000000000000000000008152600401611195906137ee565b60405180910390fd5b848173ffffffffffffffffffffffffffffffffffffffff1663dd62ed3e33306040518363ffffffff1660e01b81526004016111da929190612eda565b602060405180830381865afa1580156111f7573d6000803e3d6000fd5b505050506040513d601f19601f8201168201806040525081019061121b9190613775565b101561125c576040517f08c379a00000000000000000000000000000000000000000000000000000000081526004016112539061385a565b60405180910390fd5b60006112913387876040516020016112759291906138bc565b60405160208183030381529060405280519060200120846126b0565b9050826001015481146112d9576040517f08c379a00000000000000000000000000000000000000000000000000000000081526004016112d090613934565b60405180910390fd5b85836000018190555060038460050160006101000a81548160ff0219169083600581111561130a57611309612a76565b5b02179055507fac1cdcb34c2f43796c50b2d0b00e98133621d7ea7593195241557dac6a5f184e88888333898b60405161134896959493929190613963565b60405180910390a15050505050505050565b60026000540361139f576040517f08c379a000000000000000000000000000000000000000000000000000000000815260040161139690613a10565b60405180910390fd5b600260008190555060008690508073ffffffffffffffffffffffffffffffffffffffff16636352211e876040518263ffffffff1660e01b81526004016113e5919061294f565b602060405180830381865afa158015611402573d6000803e3d6000fd5b505050506040513d601f19601f820116820180604052508101906114269190613a45565b73ffffffffffffffffffffffffffffffffffffffff163373ffffffffffffffffffffffffffffffffffffffff1614611493576040517f08c379a000000000000000000000000000000000000000000000000000000000815260040161148a90613abe565b60405180910390fd5b428410156114d6576040517f08c379a00000000000000000000000000000000000000000000000000000000081526004016114cd90613b2a565b60405180910390fd5b60008511611519576040517f08c379a000000000000000000000000000000000000000000000000000000000815260040161151090613b96565b60405180910390fd5b610e10846115279190613bb6565b831015611569576040517f08c379a000000000000000000000000000000000000000000000000000000000815260040161156090613c36565b60405180910390fd5b8282116115ab576040517f08c379a00000000000000000000000000000000000000000000000000000000081526004016115a290613ca2565b60405180910390fd5b6000600460008973ffffffffffffffffffffffffffffffffffffffff1673ffffffffffffffffffffffffffffffffffffffff168152602001908152602001600020600088815260200190815260200160002090506000816003015414611646576040517f08c379a000000000000000000000000000000000000000000000000000000000815260040161163d90613d0e565b60405180910390fd5b338160000160006101000a81548173ffffffffffffffffffffffffffffffffffffffff021916908373ffffffffffffffffffffffffffffffffffffffff16021790555085816002018190555060018160050160006101000a81548160ff021916908360058111156116ba576116b9612a76565b5b021790555084816001018190555083816003018190555082816004018190555060016003546116e99190613bb6565b6003819055508173ffffffffffffffffffffffffffffffffffffffff166323b872dd33308a6040518463ffffffff1660e01b815260040161172c93929190613516565b600060405180830381600087803b15801561174657600080fd5b505af115801561175a573d6000803e3d6000fd5b505050507fdf179f1d286c93c679334be11420131492ab86e4d75b9598ed0ff17508273b4e88883389856001015489894260405161179f989796959493929190613d2e565b60405180910390a150506001600081905550505050505050565b610e1081565b6117c761270f565b6000600460008673ffffffffffffffffffffffffffffffffffffffff1673ffffffffffffffffffffffffffffffffffffffff168152602001908152602001600020600085815260200190815260200160002090506000816007018054905003611865576040517f08c379a000000000000000000000000000000000000000000000000000000000815260040161185c90613001565b60405180910390fd5b8060060160008473ffffffffffffffffffffffffffffffffffffffff1673ffffffffffffffffffffffffffffffffffffffff16815260200190815260200160002060405180606001604052908160008201548152602001600182015481526020016002820160009054906101000a900473ffffffffffffffffffffffffffffffffffffffff1673ffffffffffffffffffffffffffffffffffffffff1673ffffffffffffffffffffffffffffffffffffffff16815250509150509392505050565b60026000540361196a576040517f08c379a000000000000000000000000000000000000000000000000000000000815260040161196190613a10565b60405180910390fd5b60026000819055506000600460008673ffffffffffffffffffffffffffffffffffffffff1673ffffffffffffffffffffffffffffffffffffffff16815260200190815260200160002060008581526020019081526020016000209050600073ffffffffffffffffffffffffffffffffffffffff168160000160009054906101000a900473ffffffffffffffffffffffffffffffffffffffff1673ffffffffffffffffffffffffffffffffffffffff1603611a59576040517f08c379a0000000000000000000000000000000000000000000000000000000008152600401611a5090613df8565b60405180910390fd5b600560009054906101000a900473ffffffffffffffffffffffffffffffffffffffff1673ffffffffffffffffffffffffffffffffffffffff163373ffffffffffffffffffffffffffffffffffffffff1603611ae9576040517f08c379a0000000000000000000000000000000000000000000000000000000008152600401611ae090613e64565b60405180910390fd5b6000801b8303611b2e576040517f08c379a0000000000000000000000000000000000000000000000000000000008152600401611b2590613ed0565b60405180910390fd5b600073ffffffffffffffffffffffffffffffffffffffff16600160008473ffffffffffffffffffffffffffffffffffffffff1673ffffffffffffffffffffffffffffffffffffffff16815260200190815260200160002060009054906101000a900473ffffffffffffffffffffffffffffffffffffffff1673ffffffffffffffffffffffffffffffffffffffff16141580611bce5750611bcd8261064b565b5b611c0d576040517f08c379a0000000000000000000000000000000000000000000000000000000008152600401611c0490613f3c565b60405180910390fd5b8060010154421015611c54576040517f08c379a0000000000000000000000000000000000000000000000000000000008152600401611c4b90613fa8565b60405180910390fd5b8060000160009054906101000a900473ffffffffffffffffffffffffffffffffffffffff1673ffffffffffffffffffffffffffffffffffffffff163373ffffffffffffffffffffffffffffffffffffffff1603611ce6576040517f08c379a0000000000000000000000000000000000000000000000000000000008152600401611cdd90614014565b60405180910390fd5b4281600301541015611d2d576040517f08c379a0000000000000000000000000000000000000000000000000000000008152600401611d2490614080565b60405180910390fd5b60008160060160003373ffffffffffffffffffffffffffffffffffffffff1673ffffffffffffffffffffffffffffffffffffffff16815260200190815260200160002090506000801b816001015414611dbb576040517f08c379a0000000000000000000000000000000000000000000000000000000008152600401611db2906140ec565b60405180910390fd5b611dc63385856126b0565b816001018190555060028260050160006101000a81548160ff02191690836005811115611df657611df5612a76565b5b0217905550828160020160006101000a81548173ffffffffffffffffffffffffffffffffffffffff021916908373ffffffffffffffffffffffffffffffffffffffff16021790555081600701339080600181540180825580915050600190039060005260206000200160009091909190916101000a81548173ffffffffffffffffffffffffffffffffffffffff021916908373ffffffffffffffffffffffffffffffffffffffff1602179055507fe86a7bf4f8980619e10345099db4bf2d07da85bf499e37fd7ecb0b5df95c62d886868642604051611ed8949392919061410c565b60405180910390a15050600160008190555050505050565b60606002805480602002602001604051908101604052809291908181526020016000905b82821015611ff257838290600052602060002090600202016040518060400160405290816000820160009054906101000a900473ffffffffffffffffffffffffffffffffffffffff1673ffffffffffffffffffffffffffffffffffffffff1673ffffffffffffffffffffffffffffffffffffffff1681526020016001820160009054906101000a900473ffffffffffffffffffffffffffffffffffffffff1673ffffffffffffffffffffffffffffffffffffffff1673ffffffffffffffffffffffffffffffffffffffff168152505081526020019060010190611f14565b50505050905090565b6002818154811061200b57600080fd5b90600052602060002090600202016000915090508060000160009054906101000a900473ffffffffffffffffffffffffffffffffffffffff16908060010160009054906101000a900473ffffffffffffffffffffffffffffffffffffffff16905082565b60606000600460008573ffffffffffffffffffffffffffffffffffffffff1673ffffffffffffffffffffffffffffffffffffffff168152602001908152602001600020600084815260200190815260200160002060050160009054906101000a900460ff1660058111156120e6576120e5612a76565b5b905060008160ff1603612130576040518060400160405280600a81526020017f556e61737369676e6564000000000000000000000000000000000000000000008152509150612299565b60018160ff1603612178576040518060400160405280600981526020017f496e6974696174656400000000000000000000000000000000000000000000008152509150612298565b60028160ff16036121c0576040518060400160405280600681526020017f42696464656400000000000000000000000000000000000000000000000000008152509150612297565b60038160ff1603612208576040518060400160405280600881526020017f52657665616c65640000000000000000000000000000000000000000000000008152509150612296565b60048160ff1603612250576040518060400160405280600881526020017f45786563757465640000000000000000000000000000000000000000000000008152509150612295565b60058160ff1603612294576040518060400160405280600a81526020017f556e65786563757465640000000000000000000000000000000000000000000081525091505b5b5b5b5b5b5092915050565b61233882826040516024016122b6929190614151565b6040516020818303038152906040527fb60e72cc000000000000000000000000000000000000000000000000000000007bffffffffffffffffffffffffffffffffffffffffffffffffffffffff19166020820180517bffffffffffffffffffffffffffffffffffffffffffffffffffffffff83818316178352505050506126e6565b5050565b6000600460008473ffffffffffffffffffffffffffffffffffffffff1673ffffffffffffffffffffffffffffffffffffffff1681526020019081526020016000206000838152602001908152602001600020905060008160060160008073ffffffffffffffffffffffffffffffffffffffff1673ffffffffffffffffffffffffffffffffffffffff16815260200190815260200160002060405180606001604052908160008201548152602001600182015481526020016002820160009054906101000a900473ffffffffffffffffffffffffffffffffffffffff1673ffffffffffffffffffffffffffffffffffffffff1673ffffffffffffffffffffffffffffffffffffffff1681525050905060005b826007018054905081101561254f57818360060160008560070184815481106124795761247861349f565b5b9060005260206000200160009054906101000a900473ffffffffffffffffffffffffffffffffffffffff1673ffffffffffffffffffffffffffffffffffffffff1673ffffffffffffffffffffffffffffffffffffffff168152602001908152602001600020600082015181600001556020820151816001015560408201518160020160006101000a81548173ffffffffffffffffffffffffffffffffffffffff021916908373ffffffffffffffffffffffffffffffffffffffff1602179055509050508080612547906134ce565b91505061244d565b50600460008573ffffffffffffffffffffffffffffffffffffffff1673ffffffffffffffffffffffffffffffffffffffff1681526020019081526020016000206000848152602001908152602001600020600080820160006101000a81549073ffffffffffffffffffffffffffffffffffffffff021916905560018201600090556002820160009055600382016000905560048201600090556005820160006101000a81549060ff021916905560078201600061260c9190612749565b505050505050565b6126ac828260405160240161262a929190614181565b6040516020818303038152906040527f319af333000000000000000000000000000000000000000000000000000000007bffffffffffffffffffffffffffffffffffffffffffffffffffffffff19166020820180517bffffffffffffffffffffffffffffffffffffffffffffffffffffffff83818316178352505050506126e6565b5050565b60008383836040516020016126c7939291906141f9565b6040516020818303038152906040528051906020012090509392505050565b60008151905060006a636f6e736f6c652e6c6f679050602083016000808483855afa5050505050565b60405180606001604052806000815260200160008019168152602001600073ffffffffffffffffffffffffffffffffffffffff1681525090565b5080546000825590600052602060002090810190612767919061276a565b50565b5b8082111561278357600081600090555060010161276b565b5090565b600080fd5b600073ffffffffffffffffffffffffffffffffffffffff82169050919050565b60006127b78261278c565b9050919050565b6127c7816127ac565b81146127d257600080fd5b50565b6000813590506127e4816127be565b92915050565b6000819050919050565b6127fd816127ea565b811461280857600080fd5b50565b60008135905061281a816127f4565b92915050565b6000806040838503121561283757612836612787565b5b6000612845858286016127d5565b92505060206128568582860161280b565b9150509250929050565b600081519050919050565b600082825260208201905092915050565b6000819050602082019050919050565b612895816127ac565b82525050565b60006128a7838361288c565b60208301905092915050565b6000602082019050919050565b60006128cb82612860565b6128d5818561286b565b93506128e08361287c565b8060005b838110156129115781516128f8888261289b565b9750612903836128b3565b9250506001810190506128e4565b5085935050505092915050565b6000602082019050818103600083015261293881846128c0565b905092915050565b612949816127ea565b82525050565b60006020820190506129646000830184612940565b92915050565b6000602082840312156129805761297f612787565b5b600061298e848285016127d5565b91505092915050565b6000819050919050565b6129aa81612997565b82525050565b600060ff82169050919050565b6129c6816129b0565b82525050565b60006040820190506129e160008301856129a1565b6129ee60208301846129bd565b9392505050565b60008115159050919050565b612a0a816129f5565b82525050565b6000602082019050612a256000830184612a01565b92915050565b612a34816127ac565b82525050565b6000602082019050612a4f6000830184612a2b565b92915050565b6000612a608261278c565b9050919050565b612a7081612a55565b82525050565b7f4e487b7100000000000000000000000000000000000000000000000000000000600052602160045260246000fd5b60068110612ab657612ab5612a76565b5b50565b6000819050612ac782612aa5565b919050565b6000612ad782612ab9565b9050919050565b612ae781612acc565b82525050565b600060c082019050612b026000830189612a67565b612b0f6020830188612940565b612b1c6040830187612940565b612b296060830186612940565b612b366080830185612940565b612b4360a0830184612ade565b979650505050505050565b6000819050919050565b612b6181612b4e565b8114612b6c57600080fd5b50565b600081359050612b7e81612b58565b92915050565b60008060008060808587031215612b9e57612b9d612787565b5b6000612bac878288016127d5565b9450506020612bbd8782880161280b565b9350506040612bce8782880161280b565b9250506060612bdf87828801612b6f565b91505092959194509250565b60008060008060008060c08789031215612c0857612c07612787565b5b6000612c1689828a016127d5565b9650506020612c2789828a0161280b565b9550506040612c3889828a0161280b565b9450506060612c4989828a0161280b565b9350506080612c5a89828a0161280b565b92505060a0612c6b89828a0161280b565b9150509295509295509295565b600080600060608486031215612c9157612c90612787565b5b6000612c9f868287016127d5565b9350506020612cb08682870161280b565b9250506040612cc1868287016127d5565b9150509250925092565b612cd4816127ea565b82525050565b612ce381612b4e565b82525050565b606082016000820151612cff6000850182612ccb565b506020820151612d126020850182612cda565b506040820151612d25604085018261288c565b50505050565b6000606082019050612d406000830184612ce9565b92915050565b60008060008060808587031215612d6057612d5f612787565b5b6000612d6e878288016127d5565b9450506020612d7f8782880161280b565b9350506040612d9087828801612b6f565b9250506060612da1878288016127d5565b91505092959194509250565b600081519050919050565b600082825260208201905092915050565b6000819050602082019050919050565b604082016000820151612def600085018261288c565b506020820151612e02602085018261288c565b50505050565b6000612e148383612dd9565b60408301905092915050565b6000602082019050919050565b6000612e3882612dad565b612e428185612db8565b9350612e4d83612dc9565b8060005b83811015612e7e578151612e658882612e08565b9750612e7083612e20565b925050600181019050612e51565b5085935050505092915050565b60006020820190508181036000830152612ea58184612e2d565b905092915050565b600060208284031215612ec357612ec2612787565b5b6000612ed18482850161280b565b91505092915050565b6000604082019050612eef6000830185612a2b565b612efc6020830184612a2b565b9392505050565b600081519050919050565b600082825260208201905092915050565b60005b83811015612f3d578082015181840152602081019050612f22565b60008484015250505050565b6000601f19601f8301169050919050565b6000612f6582612f03565b612f6f8185612f0e565b9350612f7f818560208601612f1f565b612f8881612f49565b840191505092915050565b60006020820190508181036000830152612fad8184612f5a565b905092915050565b7f6e6f206269647300000000000000000000000000000000000000000000000000600082015250565b6000612feb600783612f0e565b9150612ff682612fb5565b602082019050919050565b6000602082019050818103600083015261301a81612fde565b9050919050565b600069ffffffffffffffffffff82169050919050565b61304081613021565b811461304b57600080fd5b50565b60008151905061305d81613037565b92915050565b61306c81612997565b811461307757600080fd5b50565b60008151905061308981613063565b92915050565b60008151905061309e816127f4565b92915050565b600080600080600060a086880312156130c0576130bf612787565b5b60006130ce8882890161304e565b95505060206130df8882890161307a565b94505060406130f08882890161308f565b93505060606131018882890161308f565b92505060806131128882890161304e565b9150509295509295909350565b613128816129b0565b811461313357600080fd5b50565b6000815190506131458161311f565b92915050565b60006020828403121561316157613160612787565b5b600061316f84828501613136565b91505092915050565b7f4e487b7100000000000000000000000000000000000000000000000000000000600052601160045260246000fd5b60008160011c9050919050565b6000808291508390505b60018511156131fe578086048111156131da576131d9613178565b5b60018516156131e95780820291505b80810290506131f7856131a7565b94506131be565b94509492505050565b60008261321757600190506132d3565b8161322557600090506132d3565b816001811461323b576002811461324557613274565b60019150506132d3565b60ff84111561325757613256613178565b5b8360020a91508482111561326e5761326d613178565b5b506132d3565b5060208310610133831016604e8410600b84101617156132a95782820a9050838111156132a4576132a3613178565b5b6132d3565b6132b684848460016131b4565b925090508184048111156132cd576132cc613178565b5b81810290505b9392505050565b60006132e5826127ea565b91506132f0836129b0565b925061331d7fffffffffffffffffffffffffffffffffffffffffffffffffffffffffffffffff8484613207565b905092915050565b6000613330826127ea565b915061333b836127ea565b9250828202613349816127ea565b915082820484148315176133605761335f613178565b5b5092915050565b7f4e487b7100000000000000000000000000000000000000000000000000000000600052601260045260246000fd5b60006133a1826127ea565b91506133ac836127ea565b9250826133bc576133bb613367565b5b828204905092915050565b7f6e6f742061756374696f6e206f776e6572000000000000000000000000000000600082015250565b60006133fd601183612f0e565b9150613408826133c7565b602082019050919050565b6000602082019050818103600083015261342c816133f0565b9050919050565b7f6e6f7420696e2072657665616c20706861736500000000000000000000000000600082015250565b6000613469601383612f0e565b915061347482613433565b602082019050919050565b600060208201905081810360008301526134988161345c565b9050919050565b7f4e487b7100000000000000000000000000000000000000000000000000000000600052603260045260246000fd5b60006134d9826127ea565b91507fffffffffffffffffffffffffffffffffffffffffffffffffffffffffffffffff820361350b5761350a613178565b5b600182019050919050565b600060608201905061352b6000830186612a2b565b6135386020830185612a2b565b6135456040830184612940565b949350505050565b60006080820190506135626000830187612a2b565b61356f6020830186612940565b61357c6040830185612a2b565b6135896060830184612940565b95945050505050565b61359b816129f5565b81146135a657600080fd5b50565b6000815190506135b881613592565b92915050565b6000602082840312156135d4576135d3612787565b5b60006135e2848285016135a9565b91505092915050565b6000819050919050565b600061361061360b6136068461278c565b6135eb565b61278c565b9050919050565b6000613622826135f5565b9050919050565b600061363482613617565b9050919050565b61364481613629565b82525050565b600060a08201905061365f6000830188612a2b565b61366c6020830187612940565b6136796040830186612a2b565b613686606083018561363b565b6136936080830184612940565b9695505050505050565b7f7a65726f206269642076616c7565000000000000000000000000000000000000600082015250565b60006136d3600e83612f0e565b91506136de8261369d565b602082019050919050565b60006020820190508181036000830152613702816136c6565b9050919050565b7f6e6f2062696420636f6d6d69746d656e74000000000000000000000000000000600082015250565b600061373f601183612f0e565b915061374a82613709565b602082019050919050565b6000602082019050818103600083015261376e81613732565b9050919050565b60006020828403121561378b5761378a612787565b5b60006137998482850161308f565b91505092915050565b7f696e7375666620746f6b656e2062616c00000000000000000000000000000000600082015250565b60006137d8601083612f0e565b91506137e3826137a2565b602082019050919050565b60006020820190508181036000830152613807816137cb565b9050919050565b7f6c6f7720746f6b656e20616c6c6f77616e636500000000000000000000000000600082015250565b6000613844601383612f0e565b915061384f8261380e565b602082019050919050565b6000602082019050818103600083015261387381613837565b9050919050565b6000819050919050565b613895613890826127ea565b61387a565b82525050565b6000819050919050565b6138b66138b182612b4e565b61389b565b82525050565b60006138c88285613884565b6020820191506138d882846138a5565b6020820191508190509392505050565b7f696e76616c696420626964206861736800000000000000000000000000000000600082015250565b600061391e601083612f0e565b9150613929826138e8565b602082019050919050565b6000602082019050818103600083015261394d81613911565b9050919050565b61395d81612b4e565b82525050565b600060c0820190506139786000830189612a2b565b6139856020830188612940565b6139926040830187613954565b61399f6060830186612a2b565b6139ac6080830185613954565b6139b960a0830184612940565b979650505050505050565b7f5265656e7472616e637947756172643a207265656e7472616e742063616c6c00600082015250565b60006139fa601f83612f0e565b9150613a05826139c4565b602082019050919050565b60006020820190508181036000830152613a29816139ed565b9050919050565b600081519050613a3f816127be565b92915050565b600060208284031215613a5b57613a5a612787565b5b6000613a6984828501613a30565b91505092915050565b7f6e6f74206f776e65720000000000000000000000000000000000000000000000600082015250565b6000613aa8600983612f0e565b9150613ab382613a72565b602082019050919050565b60006020820190508181036000830152613ad781613a9b565b9050919050565b7f696e76616c69642061756374696f6e2073746172742074696d65000000000000600082015250565b6000613b14601a83612f0e565b9150613b1f82613ade565b602082019050919050565b60006020820190508181036000830152613b4381613b07565b9050919050565b7f61756374696f6e2070726963652063616e6e6f74206265207a65726f00000000600082015250565b6000613b80601c83612f0e565b9150613b8b82613b4a565b602082019050919050565b60006020820190508181036000830152613baf81613b73565b9050919050565b6000613bc1826127ea565b9150613bcc836127ea565b9250828201905080821115613be457613be3613178565b5b92915050565b7f696e76616c69642061756374696f6e20656e642074696d650000000000000000600082015250565b6000613c20601883612f0e565b9150613c2b82613bea565b602082019050919050565b60006020820190508181036000830152613c4f81613c13565b9050919050565b7f696e76616c69642072657665616c206475726174696f6e2074696d6500000000600082015250565b6000613c8c601c83612f0e565b9150613c9782613c56565b602082019050919050565b60006020820190508181036000830152613cbb81613c7f565b9050919050565b7f61756374696f6e20616c72656164792065786973740000000000000000000000600082015250565b6000613cf8601583612f0e565b9150613d0382613cc2565b602082019050919050565b60006020820190508181036000830152613d2781613ceb565b9050919050565b600061010082019050613d44600083018b612a2b565b613d51602083018a612940565b613d5e6040830189612a2b565b613d6b6060830188612940565b613d786080830187612940565b613d8560a0830186612940565b613d9260c0830185612940565b613d9f60e0830184612940565b9998505050505050505050565b7f6e6f6e2d6578697374656e742061756374696f6e206974656d00000000000000600082015250565b6000613de2601983612f0e565b9150613ded82613dac565b602082019050919050565b60006020820190508181036000830152613e1181613dd5565b9050919050565b7f6465706c6f7965722063616e6e6f742062696400000000000000000000000000600082015250565b6000613e4e601383612f0e565b9150613e5982613e18565b602082019050919050565b60006020820190508181036000830152613e7d81613e41565b9050919050565b7f7a65726f2062696420636f6d6d69746d656e7400000000000000000000000000600082015250565b6000613eba601383612f0e565b9150613ec582613e84565b602082019050919050565b60006020820190508181036000830152613ee981613ead565b9050919050565b7f696e76616c69642062696420746f6b656e000000000000000000000000000000600082015250565b6000613f26601183612f0e565b9150613f3182613ef0565b602082019050919050565b60006020820190508181036000830152613f5581613f19565b9050919050565b7f61756374696f6e20686173206e6f742073746172746564000000000000000000600082015250565b6000613f92601783612f0e565b9150613f9d82613f5c565b602082019050919050565b60006020820190508181036000830152613fc181613f85565b9050919050565b7f61756374696f6e2073656c6c65722063616e6e6f742062696400000000000000600082015250565b6000613ffe601983612f0e565b915061400982613fc8565b602082019050919050565b6000602082019050818103600083015261402d81613ff1565b9050919050565b7f61756374696f6e2068617320656e646564000000000000000000000000000000600082015250565b600061406a601183612f0e565b915061407582614034565b602082019050919050565b600060208201905081810360008301526140998161405d565b9050919050565b7f696e697469616c697a656420626964436f6d6d69746d656e7400000000000000600082015250565b60006140d6601983612f0e565b91506140e1826140a0565b602082019050919050565b60006020820190508181036000830152614105816140c9565b9050919050565b60006080820190506141216000830187612a2b565b61412e6020830186612940565b61413b6040830185613954565b6141486060830184612940565b95945050505050565b6000604082019050818103600083015261416b8185612f5a565b905061417a6020830184612940565b9392505050565b6000604082019050818103600083015261419b8185612f5a565b90506141aa6020830184612a2b565b9392505050565b60008160601b9050919050565b60006141c9826141b1565b9050919050565b60006141db826141be565b9050919050565b6141f36141ee826127ac565b6141d0565b82525050565b600061420582866141e2565b60148201915061421582856138a5565b60208201915061422582846141e2565b60148201915081905094935050505056fe686967686573742062696420616d6f756e742066726f6d206461756374696f6e202573666f726d61747465642070726963652066726f6d206461756374696f6e5f5f202573a2646970667358221220b798d63cf8b7b98aa302161da89fb7ae7aa6820545b7070c792a75f8264767ef64736f6c63430008110033",
  "linkReferences": {},
  "deployedLinkReferences": {}
}