{
  "_format": "hh-sol-artifact-1",
  "contractName": "Dauction",
  "sourceName": "contracts/Dauction.sol",
  "abi": [
    {
      "inputs": [
        {
          "components": [
            {
              "internalType": "address",
              "name": "token",
              "type": "address"
            },
            {
              "internalType": "address",
              "name": "priceFeed",
              "type": "address"
            }
          ],
          "internalType": "struct Dauction.BidTokens[]",
          "name": "bidTokensArray",
          "type": "tuple[]"
        },
        {
          "internalType": "address",
          "name": "_USDT",
          "type": "address"
        }
      ],
      "stateMutability": "nonpayable",
      "type": "constructor"
    },
    {
      "anonymous": false,
      "inputs": [
        {
          "indexed": false,
          "internalType": "address",
          "name": "nft",
          "type": "address"
        },
        {
          "indexed": false,
          "internalType": "uint256",
          "name": "tokenId",
          "type": "uint256"
        },
        {
          "indexed": false,
          "internalType": "address",
          "name": "seller",
          "type": "address"
        },
        {
          "indexed": false,
          "internalType": "uint256",
          "name": "minBidPrice",
          "type": "uint256"
        },
        {
          "indexed": false,
          "internalType": "uint256",
          "name": "startTime",
          "type": "uint256"
        },
        {
          "indexed": false,
          "internalType": "uint256",
          "name": "endTime",
          "type": "uint256"
        },
        {
          "indexed": false,
          "internalType": "uint256",
          "name": "revealDuration",
          "type": "uint256"
        },
        {
          "indexed": false,
          "internalType": "uint256",
          "name": "auctionCreatedAt",
          "type": "uint256"
        }
      ],
      "name": "AuctionCreated",
      "type": "event"
    },
    {
      "anonymous": false,
      "inputs": [
        {
          "indexed": false,
          "internalType": "address",
          "name": "nftAddress",
          "type": "address"
        },
        {
          "indexed": false,
          "internalType": "uint256",
          "name": "tokenId",
          "type": "uint256"
        },
        {
          "indexed": false,
          "internalType": "address",
          "name": "previousOwner",
          "type": "address"
        },
        {
          "indexed": false,
          "internalType": "address",
          "name": "newOwner",
          "type": "address"
        },
        {
          "indexed": false,
          "internalType": "uint256",
          "name": "tokenAmountPaid",
          "type": "uint256"
        }
      ],
      "name": "AuctionSettled",
      "type": "event"
    },
    {
      "anonymous": false,
      "inputs": [
        {
          "indexed": false,
          "internalType": "address",
          "name": "nftAddress",
          "type": "address"
        },
        {
          "indexed": false,
          "internalType": "uint256",
          "name": "tokenId",
          "type": "uint256"
        },
        {
          "indexed": false,
          "internalType": "address",
          "name": "owner",
          "type": "address"
        },
        {
          "indexed": false,
          "internalType": "uint256",
          "name": "time",
          "type": "uint256"
        }
      ],
      "name": "AuctionUnsettled",
      "type": "event"
    },
    {
      "anonymous": false,
      "inputs": [
        {
          "indexed": false,
          "internalType": "address",
          "name": "nftContractAddress",
          "type": "address"
        },
        {
          "indexed": false,
          "internalType": "uint256",
          "name": "tokenId",
          "type": "uint256"
        },
        {
          "indexed": false,
          "internalType": "bytes32",
          "name": "bidCommitment",
          "type": "bytes32"
        },
        {
          "indexed": false,
          "internalType": "uint256",
          "name": "biddedAt",
          "type": "uint256"
        }
      ],
      "name": "BidCreated",
      "type": "event"
    },
    {
      "anonymous": false,
      "inputs": [
        {
          "indexed": false,
          "internalType": "address",
          "name": "tokenContract",
          "type": "address"
        },
        {
          "indexed": false,
          "internalType": "uint256",
          "name": "tokenId",
          "type": "uint256"
        },
        {
          "indexed": false,
          "internalType": "bytes32",
          "name": "bidHash",
          "type": "bytes32"
        },
        {
          "indexed": false,
          "internalType": "address",
          "name": "bidder",
          "type": "address"
        },
        {
          "indexed": false,
          "internalType": "bytes32",
          "name": "salt",
          "type": "bytes32"
        },
        {
          "indexed": false,
          "internalType": "uint256",
          "name": "bidValue",
          "type": "uint256"
        }
      ],
      "name": "BidRevealed",
      "type": "event"
    },
    {
      "inputs": [],
      "name": "MIN_AUCTION_PERIOD",
      "outputs": [
        {
          "internalType": "uint256",
          "name": "",
          "type": "uint256"
        }
      ],
      "stateMutability": "view",
      "type": "function"
    },
    {
      "inputs": [
        {
          "internalType": "address",
          "name": "",
          "type": "address"
        },
        {
          "internalType": "uint256",
          "name": "",
          "type": "uint256"
        }
      ],
      "name": "auctions",
      "outputs": [
        {
          "internalType": "address payable",
          "name": "owner",
          "type": "address"
        },
        {
          "internalType": "uint256",
          "name": "startTime",
          "type": "uint256"
        },
        {
          "internalType": "uint256",
          "name": "minBidPrice",
          "type": "uint256"
        },
        {
          "internalType": "uint256",
          "name": "endTime",
          "type": "uint256"
        },
        {
          "internalType": "uint256",
          "name": "revealDuration",
          "type": "uint256"
        },
        {
          "internalType": "enum Dauction.AuctionStatus",
          "name": "auctionStatus",
          "type": "uint8"
        }
      ],
      "stateMutability": "view",
      "type": "function"
    },
    {
      "inputs": [
        {
          "internalType": "address",
          "name": "",
          "type": "address"
        }
      ],
      "name": "bidTokenToPriceFeed",
      "outputs": [
        {
          "internalType": "address",
          "name": "",
          "type": "address"
        }
      ],
      "stateMutability": "view",
      "type": "function"
    },
    {
      "inputs": [
        {
          "internalType": "uint256",
          "name": "",
          "type": "uint256"
        }
      ],
      "name": "bidTokens",
      "outputs": [
        {
          "internalType": "address",
          "name": "token",
          "type": "address"
        },
        {
          "internalType": "address",
          "name": "priceFeed",
          "type": "address"
        }
      ],
      "stateMutability": "view",
      "type": "function"
    },
    {
      "inputs": [
        {
          "internalType": "address",
          "name": "_priceFeed",
          "type": "address"
        },
        {
          "internalType": "uint256",
          "name": "bidAmount",
          "type": "uint256"
        }
      ],
      "name": "calculateBasePrice",
      "outputs": [
        {
          "internalType": "uint256",
          "name": "",
          "type": "uint256"
        }
      ],
      "stateMutability": "view",
      "type": "function"
    },
    {
      "inputs": [
        {
          "internalType": "address",
          "name": "_bidToken",
          "type": "address"
        }
      ],
      "name": "checkBidTokenUSDTEquivalence",
      "outputs": [
        {
          "internalType": "bool",
          "name": "",
          "type": "bool"
        }
      ],
      "stateMutability": "view",
      "type": "function"
    },
    {
      "inputs": [
        {
          "internalType": "address",
          "name": "_nftAddress",
          "type": "address"
        },
        {
          "internalType": "uint256",
          "name": "_tokenId",
          "type": "uint256"
        },
        {
          "internalType": "uint256",
          "name": "_minBidPrice",
          "type": "uint256"
        },
        {
          "internalType": "uint256",
          "name": "_startTime",
          "type": "uint256"
        },
        {
          "internalType": "uint256",
          "name": "_endTime",
          "type": "uint256"
        },
        {
          "internalType": "uint256",
          "name": "_revealDuration",
          "type": "uint256"
        }
      ],
      "name": "createAuction",
      "outputs": [],
      "stateMutability": "nonpayable",
      "type": "function"
    },
    {
      "inputs": [
        {
          "internalType": "address",
          "name": "nftContractAddress",
          "type": "address"
        },
        {
          "internalType": "uint256",
          "name": "tokenId",
          "type": "uint256"
        },
        {
          "internalType": "bytes32",
          "name": "bidCommitment",
          "type": "bytes32"
        },
        {
          "internalType": "address",
          "name": "bidToken",
          "type": "address"
        }
      ],
      "name": "createBid",
      "outputs": [],
      "stateMutability": "nonpayable",
      "type": "function"
    },
    {
      "inputs": [
        {
          "internalType": "address",
          "name": "nftAddress",
          "type": "address"
        },
        {
          "internalType": "uint256",
          "name": "tokenId",
          "type": "uint256"
        }
      ],
      "name": "getAuctionStatus",
      "outputs": [
        {
          "internalType": "string",
          "name": "_auctionStatus",
          "type": "string"
        }
      ],
      "stateMutability": "view",
      "type": "function"
    },
    {
      "inputs": [
        {
          "internalType": "address",
          "name": "nftAddress",
          "type": "address"
        },
        {
          "internalType": "uint256",
          "name": "tokenId",
          "type": "uint256"
        },
        {
          "internalType": "address",
          "name": "bidder",
          "type": "address"
        }
      ],
      "name": "getBid",
      "outputs": [
        {
          "components": [
            {
              "internalType": "uint256",
              "name": "amountBidded",
              "type": "uint256"
            },
            {
              "internalType": "bytes32",
              "name": "bidCommitHash",
              "type": "bytes32"
            },
            {
              "internalType": "address",
              "name": "bidToken",
              "type": "address"
            }
          ],
          "internalType": "struct Dauction.Bid",
          "name": "",
          "type": "tuple"
        }
      ],
      "stateMutability": "view",
      "type": "function"
    },
    {
      "inputs": [],
      "name": "getBidTokens",
      "outputs": [
        {
          "components": [
            {
              "internalType": "address",
              "name": "token",
              "type": "address"
            },
            {
              "internalType": "address",
              "name": "priceFeed",
              "type": "address"
            }
          ],
          "internalType": "struct Dauction.BidTokens[]",
          "name": "",
          "type": "tuple[]"
        }
      ],
      "stateMutability": "view",
      "type": "function"
    },
    {
      "inputs": [
        {
          "internalType": "address",
          "name": "nftAddress",
          "type": "address"
        },
        {
          "internalType": "uint256",
          "name": "tokenId",
          "type": "uint256"
        }
      ],
      "name": "getBidders",
      "outputs": [
        {
          "internalType": "address[]",
          "name": "",
          "type": "address[]"
        }
      ],
      "stateMutability": "view",
      "type": "function"
    },
    {
      "inputs": [
        {
          "internalType": "address",
          "name": "_priceFeed",
          "type": "address"
        }
      ],
      "name": "getLatestPrice",
      "outputs": [
        {
          "internalType": "int256",
          "name": "",
          "type": "int256"
        },
        {
          "internalType": "uint8",
          "name": "",
          "type": "uint8"
        }
      ],
      "stateMutability": "view",
      "type": "function"
    },
    {
      "inputs": [
        {
          "internalType": "address",
          "name": "nftAddress",
          "type": "address"
        },
        {
          "internalType": "uint256",
          "name": "tokenId",
          "type": "uint256"
        }
      ],
      "name": "getMinBidPrice",
      "outputs": [
        {
          "internalType": "uint256",
          "name": "",
          "type": "uint256"
        }
      ],
      "stateMutability": "view",
      "type": "function"
    },
    {
      "inputs": [
        {
          "internalType": "address",
          "name": "nftAddress",
          "type": "address"
        },
        {
          "internalType": "uint256",
          "name": "tokenId",
          "type": "uint256"
        },
        {
          "internalType": "uint256",
          "name": "bidValue",
          "type": "uint256"
        },
        {
          "internalType": "bytes32",
          "name": "salt",
          "type": "bytes32"
        }
      ],
      "name": "revealBid",
      "outputs": [],
      "stateMutability": "nonpayable",
      "type": "function"
    },
    {
      "inputs": [
        {
          "internalType": "address",
          "name": "nftAddress",
          "type": "address"
        },
        {
          "internalType": "uint256",
          "name": "tokenId",
          "type": "uint256"
        }
      ],
      "name": "settleAuction",
      "outputs": [],
      "stateMutability": "nonpayable",
      "type": "function"
    },
    {
      "inputs": [],
      "name": "totalAuctions",
      "outputs": [
        {
          "internalType": "uint256",
          "name": "",
          "type": "uint256"
        }
      ],
      "stateMutability": "view",
      "type": "function"
    }
  ],
  "bytecode": "0x60a06040523480156200001157600080fd5b5060405162004c6538038062004c65833981810160405281019062000037919062000727565b60016000819055506200004962000495565b60005b83518110156200028b578381815181106200006c576200006b6200078d565b5b602002602001015160200151600160008684815181106200009257620000916200078d565b5b60200260200101516000015173ffffffffffffffffffffffffffffffffffffffff1673ffffffffffffffffffffffffffffffffffffffff16815260200190815260200160002060006101000a81548173ffffffffffffffffffffffffffffffffffffffff021916908373ffffffffffffffffffffffffffffffffffffffff160217905550620001836040518060400160405280600881526020017f746f6b656e2025730000000000000000000000000000000000000000000000008152508583815181106200016657620001656200078d565b5b602002602001015160000151620003c660201b620022961760201c565b620001f06040518060400160405280601381526020017f6e616d6520636f6e7374727563746f7220257300000000000000000000000000815250858381518110620001d357620001d26200078d565b5b602002602001015160200151620003c660201b620022961760201c565b60405180604001604052808583815181106200021157620002106200078d565b5b60200260200101516000015173ffffffffffffffffffffffffffffffffffffffff1681526020018583815181106200024e576200024d6200078d565b5b60200260200101516020015173ffffffffffffffffffffffffffffffffffffffff16815250915080806200028290620007f5565b9150506200004c565b50600281908060018154018082558091505060019003906000526020600020906002020160009091909190915060008201518160000160006101000a81548173ffffffffffffffffffffffffffffffffffffffff021916908373ffffffffffffffffffffffffffffffffffffffff16021790555060208201518160010160006101000a81548173ffffffffffffffffffffffffffffffffffffffff021916908373ffffffffffffffffffffffffffffffffffffffff16021790555050508173ffffffffffffffffffffffffffffffffffffffff1660808173ffffffffffffffffffffffffffffffffffffffff168152505033600560006101000a81548173ffffffffffffffffffffffffffffffffffffffff021916908373ffffffffffffffffffffffffffffffffffffffff16021790555050505062000910565b620004688282604051602401620003df929190620008dc565b6040516020818303038152906040527f319af333000000000000000000000000000000000000000000000000000000007bffffffffffffffffffffffffffffffffffffffffffffffffffffffff19166020820180517bffffffffffffffffffffffffffffffffffffffffffffffffffffffff83818316178352505050506200046c60201b60201c565b5050565b60008151905060006a636f6e736f6c652e6c6f679050602083016000808483855afa5050505050565b6040518060400160405280600073ffffffffffffffffffffffffffffffffffffffff168152602001600073ffffffffffffffffffffffffffffffffffffffff1681525090565b6000604051905090565b600080fd5b600080fd5b600080fd5b6000601f19601f8301169050919050565b7f4e487b7100000000000000000000000000000000000000000000000000000000600052604160045260246000fd5b6200053f82620004f4565b810181811067ffffffffffffffff8211171562000561576200056062000505565b5b80604052505050565b600062000576620004db565b905062000584828262000534565b919050565b600067ffffffffffffffff821115620005a757620005a662000505565b5b602082029050602081019050919050565b600080fd5b600080fd5b600073ffffffffffffffffffffffffffffffffffffffff82169050919050565b6000620005ef82620005c2565b9050919050565b6200060181620005e2565b81146200060d57600080fd5b50565b6000815190506200062181620005f6565b92915050565b60006040828403121562000640576200063f620005bd565b5b6200064c60406200056a565b905060006200065e8482850162000610565b6000830152506020620006748482850162000610565b60208301525092915050565b600062000697620006918462000589565b6200056a565b90508083825260208201905060408402830185811115620006bd57620006bc620005b8565b5b835b81811015620006ea5780620006d5888262000627565b845260208401935050604081019050620006bf565b5050509392505050565b600082601f8301126200070c576200070b620004ef565b5b81516200071e84826020860162000680565b91505092915050565b60008060408385031215620007415762000740620004e5565b5b600083015167ffffffffffffffff811115620007625762000761620004ea565b5b6200077085828601620006f4565b9250506020620007838582860162000610565b9150509250929050565b7f4e487b7100000000000000000000000000000000000000000000000000000000600052603260045260246000fd5b7f4e487b7100000000000000000000000000000000000000000000000000000000600052601160045260246000fd5b6000819050919050565b60006200080282620007eb565b91507fffffffffffffffffffffffffffffffffffffffffffffffffffffffffffffffff8203620008375762000836620007bc565b5b600182019050919050565b600081519050919050565b600082825260208201905092915050565b60005b838110156200087e57808201518184015260208101905062000861565b60008484015250505050565b6000620008978262000842565b620008a381856200084d565b9350620008b58185602086016200085e565b620008c081620004f4565b840191505092915050565b620008d681620005e2565b82525050565b60006040820190508181036000830152620008f881856200088a565b9050620009096020830184620008cb565b9392505050565b6080516143396200092c600039600061064f01526143396000f3fe608060405234801561001057600080fd5b506004361061010b5760003560e01c80635138b08c116100a2578063b34171b511610071578063b34171b5146102f6578063c2e0e7e014610326578063d59feb6a14610342578063e6f7fbd414610360578063f8a206fa146103915761010b565b80635138b08c146102845780637887df85146102a0578063791bb4ef146102bc57806398984de6146102d85761010b565b8063194d07ca116100de578063194d07ca146101bf5780631e8a0b32146101ef57806333d31bf51461021f57806344f91c1e1461024f5761010b565b80630d587c1e14610110578063102784981461014057806316002f4a1461017057806316345f181461018e575b600080fd5b61012a600480360381019061012591906128a8565b6103c1565b60405161013791906129a6565b60405180910390f35b61015a600480360381019061015591906128a8565b6104ed565b60405161016791906129d7565b60405180910390f35b61017861054b565b60405161018591906129d7565b60405180910390f35b6101a860048036038101906101a391906129f2565b610551565b6040516101b6929190612a54565b60405180910390f35b6101d960048036038101906101d491906129f2565b61064b565b6040516101e69190612a98565b60405180910390f35b610209600480360381019061020491906128a8565b6106b1565b60405161021691906129d7565b60405180910390f35b610239600480360381019061023491906129f2565b6106f0565b6040516102469190612ac2565b60405180910390f35b610269600480360381019061026491906128a8565b610723565b60405161027b96959493929190612b75565b60405180910390f35b61029e600480360381019061029991906128a8565b610799565b005b6102ba60048036038101906102b59190612c0c565b610f33565b005b6102d660048036038101906102d19190612c73565b611350565b005b6102e06117af565b6040516102ed91906129d7565b60405180910390f35b610310600480360381019061030b9190612d00565b6117b5565b60405161031d9190612db3565b60405180910390f35b610340600480360381019061033b9190612dce565b61191b565b005b61034a611ee6565b6040516103579190612f13565b60405180910390f35b61037a60048036038101906103759190612f35565b611ff1565b604051610388929190612f62565b60405180910390f35b6103ab60048036038101906103a691906128a8565b612065565b6040516103b8919061301b565b60405180910390f35b60606000600460008573ffffffffffffffffffffffffffffffffffffffff1673ffffffffffffffffffffffffffffffffffffffff168152602001908152602001600020600084815260200190815260200160002060070180548060200260200160405190810160405280929190818152602001828054801561049857602002820191906000526020600020905b8160009054906101000a900473ffffffffffffffffffffffffffffffffffffffff1673ffffffffffffffffffffffffffffffffffffffff168152602001906001019080831161044e575b5050505050905060008151036104e3576040517f08c379a00000000000000000000000000000000000000000000000000000000081526004016104da90613089565b60405180910390fd5b8091505092915050565b6000600460008473ffffffffffffffffffffffffffffffffffffffff1673ffffffffffffffffffffffffffffffffffffffff168152602001908152602001600020600083815260200190815260200160002060020154905092915050565b60035481565b60008060008373ffffffffffffffffffffffffffffffffffffffff1663feaf968c6040518163ffffffff1660e01b815260040160a060405180830381865afa1580156105a1573d6000803e3d6000fd5b505050506040513d601f19601f820116820180604052508101906105c5919061312c565b50505091505060008473ffffffffffffffffffffffffffffffffffffffff1663313ce5676040518163ffffffff1660e01b8152600401602060405180830381865afa158015610618573d6000803e3d6000fd5b505050506040513d601f19601f8201168201806040525081019061063c91906131d3565b90508181935093505050915091565b60007f000000000000000000000000000000000000000000000000000000000000000073ffffffffffffffffffffffffffffffffffffffff168273ffffffffffffffffffffffffffffffffffffffff16146106a75760006106aa565b60015b9050919050565b60008060006106bf85610551565b9150915080600a6106d09190613362565b82856106dc91906133ad565b6106e6919061341e565b9250505092915050565b60016020528060005260406000206000915054906101000a900473ffffffffffffffffffffffffffffffffffffffff1681565b6004602052816000526040600020602052806000526040600020600091509150508060000160009054906101000a900473ffffffffffffffffffffffffffffffffffffffff16908060010154908060020154908060030154908060040154908060050160009054906101000a900460ff16905086565b6000600460008473ffffffffffffffffffffffffffffffffffffffff1673ffffffffffffffffffffffffffffffffffffffff168152602001908152602001600020600083815260200190815260200160002090508060000160009054906101000a900473ffffffffffffffffffffffffffffffffffffffff1673ffffffffffffffffffffffffffffffffffffffff163373ffffffffffffffffffffffffffffffffffffffff161461087f576040517f08c379a00000000000000000000000000000000000000000000000000000000081526004016108769061349b565b60405180910390fd5b806004015442116108c5576040517f08c379a00000000000000000000000000000000000000000000000000000000081526004016108bc90613507565b60405180910390fd5b60008060008060005b8560070180549050811015610b43578560070181815481106108f3576108f2613527565b5b9060005260206000200160009054906101000a900473ffffffffffffffffffffffffffffffffffffffff16945060008660060160008773ffffffffffffffffffffffffffffffffffffffff1673ffffffffffffffffffffffffffffffffffffffff16815260200190815260200160002060405180606001604052908160008201548152602001600182015481526020016002820160009054906101000a900473ffffffffffffffffffffffffffffffffffffffff1673ffffffffffffffffffffffffffffffffffffffff1673ffffffffffffffffffffffffffffffffffffffff1681525050905060008160000151036109ec5750610b30565b80600001519450600081604001519050610a3b6040518060400160405280601b81526020017f62696420616d6f756e74206265666f72652074656e617279202573000000000081525087612332565b6000610a468261064b565b610ab857610ab3600160008473ffffffffffffffffffffffffffffffffffffffff1673ffffffffffffffffffffffffffffffffffffffff16815260200190815260200160002060009054906101000a900473ffffffffffffffffffffffffffffffffffffffff16886106b1565b610aba565b865b9050610ade6040518060600160405280602281526020016142e26022913982612332565b85811115610b2c57610b256040518060400160405280601281526020017f666f726d6174746564207072696365202573000000000000000000000000000081525082612332565b8095508794505b5050505b8080610b3b90613556565b9150506108ce565b50600073ffffffffffffffffffffffffffffffffffffffff168173ffffffffffffffffffffffffffffffffffffffff161480610b825750846002015482105b15610ca857338560000160006101000a81548173ffffffffffffffffffffffffffffffffffffffff021916908373ffffffffffffffffffffffffffffffffffffffff16021790555060058560050160006101000a81548160ff02191690836005811115610bf257610bf1612afe565b5b02179055508673ffffffffffffffffffffffffffffffffffffffff166342842e0e3033896040518463ffffffff1660e01b8152600401610c349392919061359e565b600060405180830381600087803b158015610c4e57600080fd5b505af1158015610c62573d6000803e3d6000fd5b505050507f4c52329b429b6bc14602f8d8e34d003593c51b818a57a24fbc132479501432ad87873342604051610c9b94939291906135d5565b60405180910390a1610f20565b610ce76040518060400160405280601d81526020017f68696768657374206269646465725f5f66726f6d20646175633a20257300000081525082612296565b60008560060160008373ffffffffffffffffffffffffffffffffffffffff1673ffffffffffffffffffffffffffffffffffffffff16815260200190815260200160002060405180606001604052908160008201548152602001600182015481526020016002820160009054906101000a900473ffffffffffffffffffffffffffffffffffffffff1673ffffffffffffffffffffffffffffffffffffffff1673ffffffffffffffffffffffffffffffffffffffff16815250509050806040015173ffffffffffffffffffffffffffffffffffffffff166323b872dd833384600001516040518463ffffffff1660e01b8152600401610de69392919061359e565b6020604051808303816000875af1158015610e05573d6000803e3d6000fd5b505050506040513d601f19601f82011682018060405250810190610e299190613646565b50610e4c6040518060600160405280602381526020016142bf6023913984612332565b8773ffffffffffffffffffffffffffffffffffffffff166342842e0e30848a6040518463ffffffff1660e01b8152600401610e899392919061359e565b600060405180830381600087803b158015610ea357600080fd5b505af1158015610eb7573d6000803e3d6000fd5b505050507fd89ac72b811465c6564ec26b5b26028c4682af9011a5f67bd34a50a095d0b13b8888338960000160009054906101000a900473ffffffffffffffffffffffffffffffffffffffff1687604051610f169594939291906136d2565b60405180910390a1505b610f2a87876123ce565b50505050505050565b60008203610f76576040517f08c379a0000000000000000000000000000000000000000000000000000000008152600401610f6d90613771565b60405180910390fd5b6000600460008673ffffffffffffffffffffffffffffffffffffffff1673ffffffffffffffffffffffffffffffffffffffff1681526020019081526020016000206000858152602001908152602001600020905080600301544210158015610fe2575080600401544211155b611021576040517f08c379a000000000000000000000000000000000000000000000000000000000815260040161101890613507565b60405180910390fd5b60008160060160003373ffffffffffffffffffffffffffffffffffffffff1673ffffffffffffffffffffffffffffffffffffffff16815260200190815260200160002090506000801b8160010154036110af576040517f08c379a00000000000000000000000000000000000000000000000000000000081526004016110a6906137dd565b60405180910390fd5b60008160020160009054906101000a900473ffffffffffffffffffffffffffffffffffffffff169050848173ffffffffffffffffffffffffffffffffffffffff166370a08231336040518263ffffffff1660e01b81526004016111129190612ac2565b602060405180830381865afa15801561112f573d6000803e3d6000fd5b505050506040513d601f19601f8201168201806040525081019061115391906137fd565b1015611194576040517f08c379a000000000000000000000000000000000000000000000000000000000815260040161118b90613876565b60405180910390fd5b848173ffffffffffffffffffffffffffffffffffffffff1663dd62ed3e33306040518363ffffffff1660e01b81526004016111d0929190612f62565b602060405180830381865afa1580156111ed573d6000803e3d6000fd5b505050506040513d601f19601f8201168201806040525081019061121191906137fd565b1015611252576040517f08c379a0000000000000000000000000000000000000000000000000000000008152600401611249906138e2565b60405180910390fd5b600061128733878760405160200161126b929190613944565b6040516020818303038152906040528051906020012084612738565b9050826001015481146112cf576040517f08c379a00000000000000000000000000000000000000000000000000000000081526004016112c6906139bc565b60405180910390fd5b85836000018190555060038460050160006101000a81548160ff02191690836005811115611300576112ff612afe565b5b02179055507fac1cdcb34c2f43796c50b2d0b00e98133621d7ea7593195241557dac6a5f184e88888333898b60405161133e969594939291906139eb565b60405180910390a15050505050505050565b600260005403611395576040517f08c379a000000000000000000000000000000000000000000000000000000000815260040161138c90613a98565b60405180910390fd5b600260008190555060008690508073ffffffffffffffffffffffffffffffffffffffff16636352211e876040518263ffffffff1660e01b81526004016113db91906129d7565b602060405180830381865afa1580156113f8573d6000803e3d6000fd5b505050506040513d601f19601f8201168201806040525081019061141c9190613acd565b73ffffffffffffffffffffffffffffffffffffffff163373ffffffffffffffffffffffffffffffffffffffff1614611489576040517f08c379a000000000000000000000000000000000000000000000000000000000815260040161148090613b46565b60405180910390fd5b428410156114cc576040517f08c379a00000000000000000000000000000000000000000000000000000000081526004016114c390613bb2565b60405180910390fd5b6000851161150f576040517f08c379a000000000000000000000000000000000000000000000000000000000815260040161150690613c1e565b60405180910390fd5b610e108461151d9190613c3e565b83101561155f576040517f08c379a000000000000000000000000000000000000000000000000000000000815260040161155690613cbe565b60405180910390fd5b8282116115a1576040517f08c379a000000000000000000000000000000000000000000000000000000000815260040161159890613d2a565b60405180910390fd5b6000600460008973ffffffffffffffffffffffffffffffffffffffff1673ffffffffffffffffffffffffffffffffffffffff16815260200190815260200160002060008881526020019081526020016000209050600081600301541461163c576040517f08c379a000000000000000000000000000000000000000000000000000000000815260040161163390613d96565b60405180910390fd5b338160000160006101000a81548173ffffffffffffffffffffffffffffffffffffffff021916908373ffffffffffffffffffffffffffffffffffffffff16021790555085816002018190555060018160050160006101000a81548160ff021916908360058111156116b0576116af612afe565b5b021790555084816001018190555083816003018190555082816004018190555060016003546116df9190613c3e565b6003819055508173ffffffffffffffffffffffffffffffffffffffff166323b872dd33308a6040518463ffffffff1660e01b81526004016117229392919061359e565b600060405180830381600087803b15801561173c57600080fd5b505af1158015611750573d6000803e3d6000fd5b505050507fdf179f1d286c93c679334be11420131492ab86e4d75b9598ed0ff17508273b4e888833898560010154898942604051611795989796959493929190613db6565b60405180910390a150506001600081905550505050505050565b610e1081565b6117bd612797565b6000600460008673ffffffffffffffffffffffffffffffffffffffff1673ffffffffffffffffffffffffffffffffffffffff16815260200190815260200160002060008581526020019081526020016000209050600081600701805490500361185b576040517f08c379a000000000000000000000000000000000000000000000000000000000815260040161185290613089565b60405180910390fd5b8060060160008473ffffffffffffffffffffffffffffffffffffffff1673ffffffffffffffffffffffffffffffffffffffff16815260200190815260200160002060405180606001604052908160008201548152602001600182015481526020016002820160009054906101000a900473ffffffffffffffffffffffffffffffffffffffff1673ffffffffffffffffffffffffffffffffffffffff1673ffffffffffffffffffffffffffffffffffffffff16815250509150509392505050565b600260005403611960576040517f08c379a000000000000000000000000000000000000000000000000000000000815260040161195790613a98565b60405180910390fd5b60026000819055506000600460008673ffffffffffffffffffffffffffffffffffffffff1673ffffffffffffffffffffffffffffffffffffffff16815260200190815260200160002060008581526020019081526020016000209050600073ffffffffffffffffffffffffffffffffffffffff168160000160009054906101000a900473ffffffffffffffffffffffffffffffffffffffff1673ffffffffffffffffffffffffffffffffffffffff1603611a4f576040517f08c379a0000000000000000000000000000000000000000000000000000000008152600401611a4690613e80565b60405180910390fd5b600560009054906101000a900473ffffffffffffffffffffffffffffffffffffffff1673ffffffffffffffffffffffffffffffffffffffff163373ffffffffffffffffffffffffffffffffffffffff1603611adf576040517f08c379a0000000000000000000000000000000000000000000000000000000008152600401611ad690613eec565b60405180910390fd5b6000801b8303611b24576040517f08c379a0000000000000000000000000000000000000000000000000000000008152600401611b1b90613f58565b60405180910390fd5b600073ffffffffffffffffffffffffffffffffffffffff16600160008473ffffffffffffffffffffffffffffffffffffffff1673ffffffffffffffffffffffffffffffffffffffff16815260200190815260200160002060009054906101000a900473ffffffffffffffffffffffffffffffffffffffff1673ffffffffffffffffffffffffffffffffffffffff16141580611bc45750611bc38261064b565b5b611c03576040517f08c379a0000000000000000000000000000000000000000000000000000000008152600401611bfa90613fc4565b60405180910390fd5b8060010154421015611c4a576040517f08c379a0000000000000000000000000000000000000000000000000000000008152600401611c4190614030565b60405180910390fd5b8060000160009054906101000a900473ffffffffffffffffffffffffffffffffffffffff1673ffffffffffffffffffffffffffffffffffffffff163373ffffffffffffffffffffffffffffffffffffffff1603611cdc576040517f08c379a0000000000000000000000000000000000000000000000000000000008152600401611cd39061409c565b60405180910390fd5b4281600301541015611d23576040517f08c379a0000000000000000000000000000000000000000000000000000000008152600401611d1a90614108565b60405180910390fd5b60008160060160003373ffffffffffffffffffffffffffffffffffffffff1673ffffffffffffffffffffffffffffffffffffffff16815260200190815260200160002090506000801b816001015414611db1576040517f08c379a0000000000000000000000000000000000000000000000000000000008152600401611da890614174565b60405180910390fd5b611dbc338585612738565b816001018190555060028260050160006101000a81548160ff02191690836005811115611dec57611deb612afe565b5b0217905550828160020160006101000a81548173ffffffffffffffffffffffffffffffffffffffff021916908373ffffffffffffffffffffffffffffffffffffffff16021790555081600701339080600181540180825580915050600190039060005260206000200160009091909190916101000a81548173ffffffffffffffffffffffffffffffffffffffff021916908373ffffffffffffffffffffffffffffffffffffffff1602179055507fe86a7bf4f8980619e10345099db4bf2d07da85bf499e37fd7ecb0b5df95c62d886868642604051611ece9493929190614194565b60405180910390a15050600160008190555050505050565b60606002805480602002602001604051908101604052809291908181526020016000905b82821015611fe857838290600052602060002090600202016040518060400160405290816000820160009054906101000a900473ffffffffffffffffffffffffffffffffffffffff1673ffffffffffffffffffffffffffffffffffffffff1673ffffffffffffffffffffffffffffffffffffffff1681526020016001820160009054906101000a900473ffffffffffffffffffffffffffffffffffffffff1673ffffffffffffffffffffffffffffffffffffffff1673ffffffffffffffffffffffffffffffffffffffff168152505081526020019060010190611f0a565b50505050905090565b6002818154811061200157600080fd5b90600052602060002090600202016000915090508060000160009054906101000a900473ffffffffffffffffffffffffffffffffffffffff16908060010160009054906101000a900473ffffffffffffffffffffffffffffffffffffffff16905082565b60606000600460008573ffffffffffffffffffffffffffffffffffffffff1673ffffffffffffffffffffffffffffffffffffffff168152602001908152602001600020600084815260200190815260200160002060050160009054906101000a900460ff1660058111156120dc576120db612afe565b5b905060008160ff1603612126576040518060400160405280600a81526020017f556e61737369676e656400000000000000000000000000000000000000000000815250915061228f565b60018160ff160361216e576040518060400160405280600981526020017f496e697469617465640000000000000000000000000000000000000000000000815250915061228e565b60028160ff16036121b6576040518060400160405280600681526020017f4269646465640000000000000000000000000000000000000000000000000000815250915061228d565b60038160ff16036121fe576040518060400160405280600881526020017f52657665616c6564000000000000000000000000000000000000000000000000815250915061228c565b60048160ff1603612246576040518060400160405280600881526020017f4578656375746564000000000000000000000000000000000000000000000000815250915061228b565b60058160ff160361228a576040518060400160405280600a81526020017f556e65786563757465640000000000000000000000000000000000000000000081525091505b5b5b5b5b5b5092915050565b61232e82826040516024016122ac9291906141d9565b6040516020818303038152906040527f319af333000000000000000000000000000000000000000000000000000000007bffffffffffffffffffffffffffffffffffffffffffffffffffffffff19166020820180517bffffffffffffffffffffffffffffffffffffffffffffffffffffffff838183161783525050505061276e565b5050565b6123ca8282604051602401612348929190614209565b6040516020818303038152906040527fb60e72cc000000000000000000000000000000000000000000000000000000007bffffffffffffffffffffffffffffffffffffffffffffffffffffffff19166020820180517bffffffffffffffffffffffffffffffffffffffffffffffffffffffff838183161783525050505061276e565b5050565b6000600460008473ffffffffffffffffffffffffffffffffffffffff1673ffffffffffffffffffffffffffffffffffffffff168152602001908152602001600020600083815260200190815260200160002090508060000160009054906101000a900473ffffffffffffffffffffffffffffffffffffffff1673ffffffffffffffffffffffffffffffffffffffff163373ffffffffffffffffffffffffffffffffffffffff16146124b4576040517f08c379a00000000000000000000000000000000000000000000000000000000081526004016124ab9061349b565b60405180910390fd5b60008160060160008073ffffffffffffffffffffffffffffffffffffffff1673ffffffffffffffffffffffffffffffffffffffff16815260200190815260200160002060405180606001604052908160008201548152602001600182015481526020016002820160009054906101000a900473ffffffffffffffffffffffffffffffffffffffff1673ffffffffffffffffffffffffffffffffffffffff1673ffffffffffffffffffffffffffffffffffffffff1681525050905060005b8260070180549050811015612673578183600601600085600701848154811061259d5761259c613527565b5b9060005260206000200160009054906101000a900473ffffffffffffffffffffffffffffffffffffffff1673ffffffffffffffffffffffffffffffffffffffff1673ffffffffffffffffffffffffffffffffffffffff168152602001908152602001600020600082015181600001556020820151816001015560408201518160020160006101000a81548173ffffffffffffffffffffffffffffffffffffffff021916908373ffffffffffffffffffffffffffffffffffffffff160217905550905050808061266b90613556565b915050612571565b50600460008573ffffffffffffffffffffffffffffffffffffffff1673ffffffffffffffffffffffffffffffffffffffff1681526020019081526020016000206000848152602001908152602001600020600080820160006101000a81549073ffffffffffffffffffffffffffffffffffffffff021916905560018201600090556002820160009055600382016000905560048201600090556005820160006101000a81549060ff021916905560078201600061273091906127d1565b505050505050565b600083838360405160200161274f93929190614281565b6040516020818303038152906040528051906020012090509392505050565b60008151905060006a636f6e736f6c652e6c6f679050602083016000808483855afa5050505050565b60405180606001604052806000815260200160008019168152602001600073ffffffffffffffffffffffffffffffffffffffff1681525090565b50805460008255906000526020600020908101906127ef91906127f2565b50565b5b8082111561280b5760008160009055506001016127f3565b5090565b600080fd5b600073ffffffffffffffffffffffffffffffffffffffff82169050919050565b600061283f82612814565b9050919050565b61284f81612834565b811461285a57600080fd5b50565b60008135905061286c81612846565b92915050565b6000819050919050565b61288581612872565b811461289057600080fd5b50565b6000813590506128a28161287c565b92915050565b600080604083850312156128bf576128be61280f565b5b60006128cd8582860161285d565b92505060206128de85828601612893565b9150509250929050565b600081519050919050565b600082825260208201905092915050565b6000819050602082019050919050565b61291d81612834565b82525050565b600061292f8383612914565b60208301905092915050565b6000602082019050919050565b6000612953826128e8565b61295d81856128f3565b935061296883612904565b8060005b838110156129995781516129808882612923565b975061298b8361293b565b92505060018101905061296c565b5085935050505092915050565b600060208201905081810360008301526129c08184612948565b905092915050565b6129d181612872565b82525050565b60006020820190506129ec60008301846129c8565b92915050565b600060208284031215612a0857612a0761280f565b5b6000612a168482850161285d565b91505092915050565b6000819050919050565b612a3281612a1f565b82525050565b600060ff82169050919050565b612a4e81612a38565b82525050565b6000604082019050612a696000830185612a29565b612a766020830184612a45565b9392505050565b60008115159050919050565b612a9281612a7d565b82525050565b6000602082019050612aad6000830184612a89565b92915050565b612abc81612834565b82525050565b6000602082019050612ad76000830184612ab3565b92915050565b6000612ae882612814565b9050919050565b612af881612add565b82525050565b7f4e487b7100000000000000000000000000000000000000000000000000000000600052602160045260246000fd5b60068110612b3e57612b3d612afe565b5b50565b6000819050612b4f82612b2d565b919050565b6000612b5f82612b41565b9050919050565b612b6f81612b54565b82525050565b600060c082019050612b8a6000830189612aef565b612b9760208301886129c8565b612ba460408301876129c8565b612bb160608301866129c8565b612bbe60808301856129c8565b612bcb60a0830184612b66565b979650505050505050565b6000819050919050565b612be981612bd6565b8114612bf457600080fd5b50565b600081359050612c0681612be0565b92915050565b60008060008060808587031215612c2657612c2561280f565b5b6000612c348782880161285d565b9450506020612c4587828801612893565b9350506040612c5687828801612893565b9250506060612c6787828801612bf7565b91505092959194509250565b60008060008060008060c08789031215612c9057612c8f61280f565b5b6000612c9e89828a0161285d565b9650506020612caf89828a01612893565b9550506040612cc089828a01612893565b9450506060612cd189828a01612893565b9350506080612ce289828a01612893565b92505060a0612cf389828a01612893565b9150509295509295509295565b600080600060608486031215612d1957612d1861280f565b5b6000612d278682870161285d565b9350506020612d3886828701612893565b9250506040612d498682870161285d565b9150509250925092565b612d5c81612872565b82525050565b612d6b81612bd6565b82525050565b606082016000820151612d876000850182612d53565b506020820151612d9a6020850182612d62565b506040820151612dad6040850182612914565b50505050565b6000606082019050612dc86000830184612d71565b92915050565b60008060008060808587031215612de857612de761280f565b5b6000612df68782880161285d565b9450506020612e0787828801612893565b9350506040612e1887828801612bf7565b9250506060612e298782880161285d565b91505092959194509250565b600081519050919050565b600082825260208201905092915050565b6000819050602082019050919050565b604082016000820151612e776000850182612914565b506020820151612e8a6020850182612914565b50505050565b6000612e9c8383612e61565b60408301905092915050565b6000602082019050919050565b6000612ec082612e35565b612eca8185612e40565b9350612ed583612e51565b8060005b83811015612f06578151612eed8882612e90565b9750612ef883612ea8565b925050600181019050612ed9565b5085935050505092915050565b60006020820190508181036000830152612f2d8184612eb5565b905092915050565b600060208284031215612f4b57612f4a61280f565b5b6000612f5984828501612893565b91505092915050565b6000604082019050612f776000830185612ab3565b612f846020830184612ab3565b9392505050565b600081519050919050565b600082825260208201905092915050565b60005b83811015612fc5578082015181840152602081019050612faa565b60008484015250505050565b6000601f19601f8301169050919050565b6000612fed82612f8b565b612ff78185612f96565b9350613007818560208601612fa7565b61301081612fd1565b840191505092915050565b600060208201905081810360008301526130358184612fe2565b905092915050565b7f6e6f206269647300000000000000000000000000000000000000000000000000600082015250565b6000613073600783612f96565b915061307e8261303d565b602082019050919050565b600060208201905081810360008301526130a281613066565b9050919050565b600069ffffffffffffffffffff82169050919050565b6130c8816130a9565b81146130d357600080fd5b50565b6000815190506130e5816130bf565b92915050565b6130f481612a1f565b81146130ff57600080fd5b50565b600081519050613111816130eb565b92915050565b6000815190506131268161287c565b92915050565b600080600080600060a086880312156131485761314761280f565b5b6000613156888289016130d6565b955050602061316788828901613102565b945050604061317888828901613117565b935050606061318988828901613117565b925050608061319a888289016130d6565b9150509295509295909350565b6131b081612a38565b81146131bb57600080fd5b50565b6000815190506131cd816131a7565b92915050565b6000602082840312156131e9576131e861280f565b5b60006131f7848285016131be565b91505092915050565b7f4e487b7100000000000000000000000000000000000000000000000000000000600052601160045260246000fd5b60008160011c9050919050565b6000808291508390505b60018511156132865780860481111561326257613261613200565b5b60018516156132715780820291505b808102905061327f8561322f565b9450613246565b94509492505050565b60008261329f576001905061335b565b816132ad576000905061335b565b81600181146132c357600281146132cd576132fc565b600191505061335b565b60ff8411156132df576132de613200565b5b8360020a9150848211156132f6576132f5613200565b5b5061335b565b5060208310610133831016604e8410600b84101617156133315782820a90508381111561332c5761332b613200565b5b61335b565b61333e848484600161323c565b9250905081840481111561335557613354613200565b5b81810290505b9392505050565b600061336d82612872565b915061337883612a38565b92506133a57fffffffffffffffffffffffffffffffffffffffffffffffffffffffffffffffff848461328f565b905092915050565b60006133b882612872565b91506133c383612872565b92508282026133d181612872565b915082820484148315176133e8576133e7613200565b5b5092915050565b7f4e487b7100000000000000000000000000000000000000000000000000000000600052601260045260246000fd5b600061342982612872565b915061343483612872565b925082613444576134436133ef565b5b828204905092915050565b7f6e6f742061756374696f6e206f776e6572000000000000000000000000000000600082015250565b6000613485601183612f96565b91506134908261344f565b602082019050919050565b600060208201905081810360008301526134b481613478565b9050919050565b7f6e6f7420696e2072657665616c20706861736500000000000000000000000000600082015250565b60006134f1601383612f96565b91506134fc826134bb565b602082019050919050565b60006020820190508181036000830152613520816134e4565b9050919050565b7f4e487b7100000000000000000000000000000000000000000000000000000000600052603260045260246000fd5b600061356182612872565b91507fffffffffffffffffffffffffffffffffffffffffffffffffffffffffffffffff820361359357613592613200565b5b600182019050919050565b60006060820190506135b36000830186612ab3565b6135c06020830185612ab3565b6135cd60408301846129c8565b949350505050565b60006080820190506135ea6000830187612ab3565b6135f760208301866129c8565b6136046040830185612ab3565b61361160608301846129c8565b95945050505050565b61362381612a7d565b811461362e57600080fd5b50565b6000815190506136408161361a565b92915050565b60006020828403121561365c5761365b61280f565b5b600061366a84828501613631565b91505092915050565b6000819050919050565b600061369861369361368e84612814565b613673565b612814565b9050919050565b60006136aa8261367d565b9050919050565b60006136bc8261369f565b9050919050565b6136cc816136b1565b82525050565b600060a0820190506136e76000830188612ab3565b6136f460208301876129c8565b6137016040830186612ab3565b61370e60608301856136c3565b61371b60808301846129c8565b9695505050505050565b7f7a65726f206269642076616c7565000000000000000000000000000000000000600082015250565b600061375b600e83612f96565b915061376682613725565b602082019050919050565b6000602082019050818103600083015261378a8161374e565b9050919050565b7f6e6f2062696420636f6d6d69746d656e74000000000000000000000000000000600082015250565b60006137c7601183612f96565b91506137d282613791565b602082019050919050565b600060208201905081810360008301526137f6816137ba565b9050919050565b6000602082840312156138135761381261280f565b5b600061382184828501613117565b91505092915050565b7f696e7375666620746f6b656e2062616c00000000000000000000000000000000600082015250565b6000613860601083612f96565b915061386b8261382a565b602082019050919050565b6000602082019050818103600083015261388f81613853565b9050919050565b7f6c6f7720746f6b656e20616c6c6f77616e636500000000000000000000000000600082015250565b60006138cc601383612f96565b91506138d782613896565b602082019050919050565b600060208201905081810360008301526138fb816138bf565b9050919050565b6000819050919050565b61391d61391882612872565b613902565b82525050565b6000819050919050565b61393e61393982612bd6565b613923565b82525050565b6000613950828561390c565b602082019150613960828461392d565b6020820191508190509392505050565b7f696e76616c696420626964206861736800000000000000000000000000000000600082015250565b60006139a6601083612f96565b91506139b182613970565b602082019050919050565b600060208201905081810360008301526139d581613999565b9050919050565b6139e581612bd6565b82525050565b600060c082019050613a006000830189612ab3565b613a0d60208301886129c8565b613a1a60408301876139dc565b613a276060830186612ab3565b613a3460808301856139dc565b613a4160a08301846129c8565b979650505050505050565b7f5265656e7472616e637947756172643a207265656e7472616e742063616c6c00600082015250565b6000613a82601f83612f96565b9150613a8d82613a4c565b602082019050919050565b60006020820190508181036000830152613ab181613a75565b9050919050565b600081519050613ac781612846565b92915050565b600060208284031215613ae357613ae261280f565b5b6000613af184828501613ab8565b91505092915050565b7f6e6f74206f776e65720000000000000000000000000000000000000000000000600082015250565b6000613b30600983612f96565b9150613b3b82613afa565b602082019050919050565b60006020820190508181036000830152613b5f81613b23565b9050919050565b7f696e76616c69642061756374696f6e2073746172742074696d65000000000000600082015250565b6000613b9c601a83612f96565b9150613ba782613b66565b602082019050919050565b60006020820190508181036000830152613bcb81613b8f565b9050919050565b7f61756374696f6e2070726963652063616e6e6f74206265207a65726f00000000600082015250565b6000613c08601c83612f96565b9150613c1382613bd2565b602082019050919050565b60006020820190508181036000830152613c3781613bfb565b9050919050565b6000613c4982612872565b9150613c5483612872565b9250828201905080821115613c6c57613c6b613200565b5b92915050565b7f696e76616c69642061756374696f6e20656e642074696d650000000000000000600082015250565b6000613ca8601883612f96565b9150613cb382613c72565b602082019050919050565b60006020820190508181036000830152613cd781613c9b565b9050919050565b7f696e76616c69642072657665616c206475726174696f6e2074696d6500000000600082015250565b6000613d14601c83612f96565b9150613d1f82613cde565b602082019050919050565b60006020820190508181036000830152613d4381613d07565b9050919050565b7f61756374696f6e20616c72656164792065786973740000000000000000000000600082015250565b6000613d80601583612f96565b9150613d8b82613d4a565b602082019050919050565b60006020820190508181036000830152613daf81613d73565b9050919050565b600061010082019050613dcc600083018b612ab3565b613dd9602083018a6129c8565b613de66040830189612ab3565b613df360608301886129c8565b613e0060808301876129c8565b613e0d60a08301866129c8565b613e1a60c08301856129c8565b613e2760e08301846129c8565b9998505050505050505050565b7f6e6f6e2d6578697374656e742061756374696f6e206974656d00000000000000600082015250565b6000613e6a601983612f96565b9150613e7582613e34565b602082019050919050565b60006020820190508181036000830152613e9981613e5d565b9050919050565b7f6465706c6f7965722063616e6e6f742062696400000000000000000000000000600082015250565b6000613ed6601383612f96565b9150613ee182613ea0565b602082019050919050565b60006020820190508181036000830152613f0581613ec9565b9050919050565b7f7a65726f2062696420636f6d6d69746d656e7400000000000000000000000000600082015250565b6000613f42601383612f96565b9150613f4d82613f0c565b602082019050919050565b60006020820190508181036000830152613f7181613f35565b9050919050565b7f696e76616c69642062696420746f6b656e000000000000000000000000000000600082015250565b6000613fae601183612f96565b9150613fb982613f78565b602082019050919050565b60006020820190508181036000830152613fdd81613fa1565b9050919050565b7f61756374696f6e20686173206e6f742073746172746564000000000000000000600082015250565b600061401a601783612f96565b915061402582613fe4565b602082019050919050565b600060208201905081810360008301526140498161400d565b9050919050565b7f61756374696f6e2073656c6c65722063616e6e6f742062696400000000000000600082015250565b6000614086601983612f96565b915061409182614050565b602082019050919050565b600060208201905081810360008301526140b581614079565b9050919050565b7f61756374696f6e2068617320656e646564000000000000000000000000000000600082015250565b60006140f2601183612f96565b91506140fd826140bc565b602082019050919050565b60006020820190508181036000830152614121816140e5565b9050919050565b7f696e697469616c697a656420626964436f6d6d69746d656e7400000000000000600082015250565b600061415e601983612f96565b915061416982614128565b602082019050919050565b6000602082019050818103600083015261418d81614151565b9050919050565b60006080820190506141a96000830187612ab3565b6141b660208301866129c8565b6141c360408301856139dc565b6141d060608301846129c8565b95945050505050565b600060408201905081810360008301526141f38185612fe2565b90506142026020830184612ab3565b9392505050565b600060408201905081810360008301526142238185612fe2565b905061423260208301846129c8565b9392505050565b60008160601b9050919050565b600061425182614239565b9050919050565b600061426382614246565b9050919050565b61427b61427682612834565b614258565b82525050565b600061428d828661426a565b60148201915061429d828561392d565b6020820191506142ad828461426a565b60148201915081905094935050505056fe686967686573742062696420616d6f756e742066726f6d206461756374696f6e202573666f726d61747465642070726963652066726f6d206461756374696f6e5f5f202573a2646970667358221220113a0024b041652b3cabd9fe32517ac7a8111d2527a67385e202bd5cfec14a1b64736f6c63430008110033",
  "linkReferences": {},
  "deployedLinkReferences": {}
}