{
  "_format": "hh-sol-artifact-1",
  "contractName": "Dauction",
  "sourceName": "contracts/Dauction.sol",
  "abi": [
    {
      "inputs": [
        {
          "components": [
            {
              "internalType": "address",
              "name": "token",
              "type": "address"
            },
            {
              "internalType": "address",
              "name": "priceFeed",
              "type": "address"
            }
          ],
          "internalType": "struct Dauction.BidTokens[]",
          "name": "bidTokensArray",
          "type": "tuple[]"
        },
        {
          "internalType": "address",
          "name": "_USDT",
          "type": "address"
        },
        {
          "internalType": "uint256",
          "name": "_minAuctionPeriod",
          "type": "uint256"
        }
      ],
      "stateMutability": "nonpayable",
      "type": "constructor"
    },
    {
      "anonymous": false,
      "inputs": [
        {
          "indexed": false,
          "internalType": "address",
          "name": "nft",
          "type": "address"
        },
        {
          "indexed": false,
          "internalType": "uint256",
          "name": "tokenId",
          "type": "uint256"
        },
        {
          "indexed": false,
          "internalType": "address",
          "name": "seller",
          "type": "address"
        },
        {
          "indexed": false,
          "internalType": "uint256",
          "name": "minBidPrice",
          "type": "uint256"
        },
        {
          "indexed": false,
          "internalType": "uint256",
          "name": "startTime",
          "type": "uint256"
        },
        {
          "indexed": false,
          "internalType": "uint256",
          "name": "endTime",
          "type": "uint256"
        },
        {
          "indexed": false,
          "internalType": "uint256",
          "name": "revealDuration",
          "type": "uint256"
        },
        {
          "indexed": false,
          "internalType": "uint256",
          "name": "auctionCreatedAt",
          "type": "uint256"
        }
      ],
      "name": "AuctionCreated",
      "type": "event"
    },
    {
      "anonymous": false,
      "inputs": [
        {
          "indexed": false,
          "internalType": "address",
          "name": "nftAddress",
          "type": "address"
        },
        {
          "indexed": false,
          "internalType": "uint256",
          "name": "tokenId",
          "type": "uint256"
        },
        {
          "indexed": false,
          "internalType": "address",
          "name": "previousOwner",
          "type": "address"
        },
        {
          "indexed": false,
          "internalType": "address",
          "name": "newOwner",
          "type": "address"
        },
        {
          "indexed": false,
          "internalType": "uint256",
          "name": "tokenAmountPaid",
          "type": "uint256"
        },
        {
          "indexed": false,
          "internalType": "uint256",
          "name": "auctionSettleTime",
          "type": "uint256"
        }
      ],
      "name": "AuctionSettled",
      "type": "event"
    },
    {
      "anonymous": false,
      "inputs": [
        {
          "indexed": false,
          "internalType": "address",
          "name": "nftAddress",
          "type": "address"
        },
        {
          "indexed": false,
          "internalType": "uint256",
          "name": "tokenId",
          "type": "uint256"
        },
        {
          "indexed": false,
          "internalType": "address",
          "name": "owner",
          "type": "address"
        },
        {
          "indexed": false,
          "internalType": "uint256",
          "name": "time",
          "type": "uint256"
        }
      ],
      "name": "AuctionUnsettled",
      "type": "event"
    },
    {
      "anonymous": false,
      "inputs": [
        {
          "indexed": false,
          "internalType": "address",
          "name": "nftContractAddress",
          "type": "address"
        },
        {
          "indexed": false,
          "internalType": "uint256",
          "name": "tokenId",
          "type": "uint256"
        },
        {
          "indexed": false,
          "internalType": "bytes32",
          "name": "bidCommitment",
          "type": "bytes32"
        },
        {
          "indexed": false,
          "internalType": "uint256",
          "name": "biddedAt",
          "type": "uint256"
        }
      ],
      "name": "BidCreated",
      "type": "event"
    },
    {
      "anonymous": false,
      "inputs": [
        {
          "indexed": false,
          "internalType": "address",
          "name": "tokenContract",
          "type": "address"
        },
        {
          "indexed": false,
          "internalType": "uint256",
          "name": "tokenId",
          "type": "uint256"
        },
        {
          "indexed": false,
          "internalType": "bytes32",
          "name": "bidHash",
          "type": "bytes32"
        },
        {
          "indexed": false,
          "internalType": "address",
          "name": "bidder",
          "type": "address"
        },
        {
          "indexed": false,
          "internalType": "bytes32",
          "name": "salt",
          "type": "bytes32"
        },
        {
          "indexed": false,
          "internalType": "uint256",
          "name": "bidValue",
          "type": "uint256"
        }
      ],
      "name": "BidRevealed",
      "type": "event"
    },
    {
      "inputs": [],
      "name": "activeAuctions",
      "outputs": [
        {
          "internalType": "uint256",
          "name": "",
          "type": "uint256"
        }
      ],
      "stateMutability": "view",
      "type": "function"
    },
    {
      "inputs": [
        {
          "internalType": "address",
          "name": "",
          "type": "address"
        },
        {
          "internalType": "uint256",
          "name": "",
          "type": "uint256"
        }
      ],
      "name": "auctions",
      "outputs": [
        {
          "internalType": "address",
          "name": "nftContract",
          "type": "address"
        },
        {
          "internalType": "address payable",
          "name": "owner",
          "type": "address"
        },
        {
          "internalType": "uint256",
          "name": "startTime",
          "type": "uint256"
        },
        {
          "internalType": "uint256",
          "name": "minBidPrice",
          "type": "uint256"
        },
        {
          "internalType": "uint256",
          "name": "endTime",
          "type": "uint256"
        },
        {
          "internalType": "uint256",
          "name": "revealDuration",
          "type": "uint256"
        },
        {
          "internalType": "enum Dauction.AuctionStatus",
          "name": "auctionStatus",
          "type": "uint8"
        }
      ],
      "stateMutability": "view",
      "type": "function"
    },
    {
      "inputs": [
        {
          "internalType": "address",
          "name": "",
          "type": "address"
        }
      ],
      "name": "bidTokenToPriceFeed",
      "outputs": [
        {
          "internalType": "address",
          "name": "",
          "type": "address"
        }
      ],
      "stateMutability": "view",
      "type": "function"
    },
    {
      "inputs": [
        {
          "internalType": "uint256",
          "name": "",
          "type": "uint256"
        }
      ],
      "name": "bidTokens",
      "outputs": [
        {
          "internalType": "address",
          "name": "token",
          "type": "address"
        },
        {
          "internalType": "address",
          "name": "priceFeed",
          "type": "address"
        }
      ],
      "stateMutability": "view",
      "type": "function"
    },
    {
      "inputs": [
        {
          "internalType": "address",
          "name": "_priceFeed",
          "type": "address"
        },
        {
          "internalType": "uint256",
          "name": "bidAmount",
          "type": "uint256"
        }
      ],
      "name": "calculateBasePrice",
      "outputs": [
        {
          "internalType": "uint256",
          "name": "",
          "type": "uint256"
        }
      ],
      "stateMutability": "view",
      "type": "function"
    },
    {
      "inputs": [
        {
          "internalType": "address",
          "name": "_bidToken",
          "type": "address"
        }
      ],
      "name": "checkBidTokenUSDTEquivalence",
      "outputs": [
        {
          "internalType": "bool",
          "name": "",
          "type": "bool"
        }
      ],
      "stateMutability": "view",
      "type": "function"
    },
    {
      "inputs": [
        {
          "internalType": "address",
          "name": "tokenAddress",
          "type": "address"
        },
        {
          "internalType": "address",
          "name": "approver",
          "type": "address"
        },
        {
          "internalType": "uint256",
          "name": "bidValue",
          "type": "uint256"
        }
      ],
      "name": "checkTokenBalanceAndApproval",
      "outputs": [
        {
          "internalType": "bool",
          "name": "",
          "type": "bool"
        }
      ],
      "stateMutability": "view",
      "type": "function"
    },
    {
      "inputs": [
        {
          "internalType": "address",
          "name": "_nftAddress",
          "type": "address"
        },
        {
          "internalType": "uint256",
          "name": "_tokenId",
          "type": "uint256"
        },
        {
          "internalType": "uint256",
          "name": "_minBidPrice",
          "type": "uint256"
        },
        {
          "internalType": "uint256",
          "name": "_startTime",
          "type": "uint256"
        },
        {
          "internalType": "uint256",
          "name": "_endTime",
          "type": "uint256"
        },
        {
          "internalType": "uint256",
          "name": "_revealDuration",
          "type": "uint256"
        }
      ],
      "name": "createAuction",
      "outputs": [],
      "stateMutability": "nonpayable",
      "type": "function"
    },
    {
      "inputs": [
        {
          "internalType": "address",
          "name": "nftContractAddress",
          "type": "address"
        },
        {
          "internalType": "uint256",
          "name": "tokenId",
          "type": "uint256"
        },
        {
          "internalType": "bytes32",
          "name": "bidCommitment",
          "type": "bytes32"
        },
        {
          "internalType": "address",
          "name": "bidToken",
          "type": "address"
        }
      ],
      "name": "createBid",
      "outputs": [],
      "stateMutability": "nonpayable",
      "type": "function"
    },
    {
      "inputs": [
        {
          "internalType": "address",
          "name": "nftAddress",
          "type": "address"
        },
        {
          "internalType": "uint256",
          "name": "tokenId",
          "type": "uint256"
        }
      ],
      "name": "getAuctionStatus",
      "outputs": [
        {
          "internalType": "string",
          "name": "_auctionStatus",
          "type": "string"
        }
      ],
      "stateMutability": "view",
      "type": "function"
    },
    {
      "inputs": [
        {
          "internalType": "address",
          "name": "nftAddress",
          "type": "address"
        },
        {
          "internalType": "uint256",
          "name": "tokenId",
          "type": "uint256"
        },
        {
          "internalType": "address",
          "name": "bidder",
          "type": "address"
        }
      ],
      "name": "getBid",
      "outputs": [
        {
          "components": [
            {
              "internalType": "uint256",
              "name": "amountBidded",
              "type": "uint256"
            },
            {
              "internalType": "bytes32",
              "name": "bidCommitHash",
              "type": "bytes32"
            },
            {
              "internalType": "address",
              "name": "bidToken",
              "type": "address"
            }
          ],
          "internalType": "struct Dauction.Bid",
          "name": "",
          "type": "tuple"
        }
      ],
      "stateMutability": "view",
      "type": "function"
    },
    {
      "inputs": [],
      "name": "getBidTokens",
      "outputs": [
        {
          "components": [
            {
              "internalType": "address",
              "name": "token",
              "type": "address"
            },
            {
              "internalType": "address",
              "name": "priceFeed",
              "type": "address"
            }
          ],
          "internalType": "struct Dauction.BidTokens[]",
          "name": "",
          "type": "tuple[]"
        }
      ],
      "stateMutability": "view",
      "type": "function"
    },
    {
      "inputs": [
        {
          "internalType": "address",
          "name": "nftAddress",
          "type": "address"
        },
        {
          "internalType": "uint256",
          "name": "tokenId",
          "type": "uint256"
        }
      ],
      "name": "getBidders",
      "outputs": [
        {
          "internalType": "address[]",
          "name": "",
          "type": "address[]"
        }
      ],
      "stateMutability": "view",
      "type": "function"
    },
    {
      "inputs": [
        {
          "internalType": "address",
          "name": "_priceFeed",
          "type": "address"
        }
      ],
      "name": "getLatestPrice",
      "outputs": [
        {
          "internalType": "int256",
          "name": "",
          "type": "int256"
        },
        {
          "internalType": "uint8",
          "name": "",
          "type": "uint8"
        }
      ],
      "stateMutability": "view",
      "type": "function"
    },
    {
      "inputs": [
        {
          "internalType": "address",
          "name": "nftAddress",
          "type": "address"
        },
        {
          "internalType": "uint256",
          "name": "tokenId",
          "type": "uint256"
        }
      ],
      "name": "getMinBidPrice",
      "outputs": [
        {
          "internalType": "uint256",
          "name": "",
          "type": "uint256"
        }
      ],
      "stateMutability": "view",
      "type": "function"
    },
    {
      "inputs": [],
      "name": "minAuctionPeriod",
      "outputs": [
        {
          "internalType": "uint256",
          "name": "",
          "type": "uint256"
        }
      ],
      "stateMutability": "view",
      "type": "function"
    },
    {
      "inputs": [
        {
          "internalType": "address",
          "name": "nftAddress",
          "type": "address"
        },
        {
          "internalType": "uint256",
          "name": "tokenId",
          "type": "uint256"
        },
        {
          "internalType": "uint256",
          "name": "bidValue",
          "type": "uint256"
        },
        {
          "internalType": "bytes32",
          "name": "salt",
          "type": "bytes32"
        }
      ],
      "name": "revealBid",
      "outputs": [],
      "stateMutability": "nonpayable",
      "type": "function"
    },
    {
      "inputs": [
        {
          "internalType": "uint256",
          "name": "_auctionDuration",
          "type": "uint256"
        }
      ],
      "name": "setMinimumAuctionPeriod",
      "outputs": [],
      "stateMutability": "nonpayable",
      "type": "function"
    },
    {
      "inputs": [
        {
          "internalType": "address",
          "name": "nftAddress",
          "type": "address"
        },
        {
          "internalType": "uint256",
          "name": "tokenId",
          "type": "uint256"
        }
      ],
      "name": "settleAuction",
      "outputs": [],
      "stateMutability": "nonpayable",
      "type": "function"
    },
    {
      "inputs": [],
      "name": "totalAuctions",
      "outputs": [
        {
          "internalType": "uint256",
          "name": "",
          "type": "uint256"
        }
      ],
      "stateMutability": "view",
      "type": "function"
    }
  ],
  "bytecode": "0x60a06040523480156200001157600080fd5b5060405162004a1b38038062004a1b83398181016040528101906200003791906200043d565b600160008190555060005b83518110156200012257838181518110620000625762000061620004b8565b5b60200260200101516020015160016000868481518110620000885762000087620004b8565b5b60200260200101516000015173ffffffffffffffffffffffffffffffffffffffff1673ffffffffffffffffffffffffffffffffffffffff16815260200190815260200160002060006101000a81548173ffffffffffffffffffffffffffffffffffffffff021916908373ffffffffffffffffffffffffffffffffffffffff1602179055508080620001199062000516565b91505062000042565b508173ffffffffffffffffffffffffffffffffffffffff1660808173ffffffffffffffffffffffffffffffffffffffff168152505033600760006101000a81548173ffffffffffffffffffffffffffffffffffffffff021916908373ffffffffffffffffffffffffffffffffffffffff160217905550603c81620001a7919062000563565b600581905550505050620005ae565b6000604051905090565b600080fd5b600080fd5b600080fd5b6000601f19601f8301169050919050565b7f4e487b7100000000000000000000000000000000000000000000000000000000600052604160045260246000fd5b6200021a82620001cf565b810181811067ffffffffffffffff821117156200023c576200023b620001e0565b5b80604052505050565b600062000251620001b6565b90506200025f82826200020f565b919050565b600067ffffffffffffffff821115620002825762000281620001e0565b5b602082029050602081019050919050565b600080fd5b600080fd5b600073ffffffffffffffffffffffffffffffffffffffff82169050919050565b6000620002ca826200029d565b9050919050565b620002dc81620002bd565b8114620002e857600080fd5b50565b600081519050620002fc81620002d1565b92915050565b6000604082840312156200031b576200031a62000298565b5b62000327604062000245565b905060006200033984828501620002eb565b60008301525060206200034f84828501620002eb565b60208301525092915050565b6000620003726200036c8462000264565b62000245565b9050808382526020820190506040840283018581111562000398576200039762000293565b5b835b81811015620003c55780620003b0888262000302565b8452602084019350506040810190506200039a565b5050509392505050565b600082601f830112620003e757620003e6620001ca565b5b8151620003f98482602086016200035b565b91505092915050565b6000819050919050565b620004178162000402565b81146200042357600080fd5b50565b60008151905062000437816200040c565b92915050565b600080600060608486031215620004595762000458620001c0565b5b600084015167ffffffffffffffff8111156200047a5762000479620001c5565b5b6200048886828701620003cf565b93505060206200049b86828701620002eb565b9250506040620004ae8682870162000426565b9150509250925092565b7f4e487b7100000000000000000000000000000000000000000000000000000000600052603260045260246000fd5b7f4e487b7100000000000000000000000000000000000000000000000000000000600052601160045260246000fd5b6000620005238262000402565b91507fffffffffffffffffffffffffffffffffffffffffffffffffffffffffffffffff8203620005585762000557620004e7565b5b600182019050919050565b6000620005708262000402565b91506200057d8362000402565b92508282026200058d8162000402565b91508282048414831517620005a757620005a6620004e7565b5b5092915050565b608051614451620005ca60003960006107ef01526144516000f3fe608060405234801561001057600080fd5b506004361061012c5760003560e01c80635138b08c116100ad578063bf6af8be11610071578063bf6af8be14610394578063c2e0e7e0146103b2578063d59feb6a146103ce578063e6f7fbd4146103ec578063f8a206fa1461041d5761012c565b80635138b08c146102f457806368af2eae146103105780637887df851461032c578063791bb4ef14610348578063b34171b5146103645761012c565b8063194d07ca116100f4578063194d07ca146102105780631e8a0b321461024057806333d31bf51461027057806344f91c1e146102a05780635090d0c6146102d65761012c565b80630d587c1e14610131578063102784981461016157806316002f4a1461019157806316345f18146101af5780631886aa93146101e0575b600080fd5b61014b60048036038101906101469190612911565b61044d565b6040516101589190612a0f565b60405180910390f35b61017b60048036038101906101769190612911565b610579565b6040516101889190612a40565b60405180910390f35b6101996105d7565b6040516101a69190612a40565b60405180910390f35b6101c960048036038101906101c49190612a5b565b6105dd565b6040516101d7929190612abd565b60405180910390f35b6101fa60048036038101906101f59190612ae6565b6106d7565b6040516102079190612b54565b60405180910390f35b61022a60048036038101906102259190612a5b565b6107eb565b6040516102379190612b54565b60405180910390f35b61025a60048036038101906102559190612911565b610851565b6040516102679190612a40565b60405180910390f35b61028a60048036038101906102859190612a5b565b610890565b6040516102979190612b7e565b60405180910390f35b6102ba60048036038101906102b59190612911565b6108c3565b6040516102cd9796959493929190612c31565b60405180910390f35b6102de61095f565b6040516102eb9190612a40565b60405180910390f35b61030e60048036038101906103099190612911565b610965565b005b61032a60048036038101906103259190612ca0565b61101a565b005b61034660048036038101906103419190612d03565b611103565b005b610362600480360381019061035d9190612d6a565b6114ec565b005b61037e60048036038101906103799190612df7565b61198e565b60405161038b9190612eaa565b60405180910390f35b61039c611af4565b6040516103a99190612a40565b60405180910390f35b6103cc60048036038101906103c79190612ec5565b611afa565b005b6103d661211b565b6040516103e3919061300a565b60405180910390f35b61040660048036038101906104019190612ca0565b612226565b60405161041492919061302c565b60405180910390f35b61043760048036038101906104329190612911565b61229a565b60405161044491906130e5565b60405180910390f35b60606000600660008573ffffffffffffffffffffffffffffffffffffffff1673ffffffffffffffffffffffffffffffffffffffff168152602001908152602001600020600084815260200190815260200160002060080180548060200260200160405190810160405280929190818152602001828054801561052457602002820191906000526020600020905b8160009054906101000a900473ffffffffffffffffffffffffffffffffffffffff1673ffffffffffffffffffffffffffffffffffffffff16815260200190600101908083116104da575b50505050509050600081510361056f576040517f08c379a000000000000000000000000000000000000000000000000000000000815260040161056690613153565b60405180910390fd5b8091505092915050565b6000600660008473ffffffffffffffffffffffffffffffffffffffff1673ffffffffffffffffffffffffffffffffffffffff168152602001908152602001600020600083815260200190815260200160002060030154905092915050565b60035481565b60008060008373ffffffffffffffffffffffffffffffffffffffff1663feaf968c6040518163ffffffff1660e01b815260040160a060405180830381865afa15801561062d573d6000803e3d6000fd5b505050506040513d601f19601f8201168201806040525081019061065191906131f6565b50505091505060008473ffffffffffffffffffffffffffffffffffffffff1663313ce5676040518163ffffffff1660e01b8152600401602060405180830381865afa1580156106a4573d6000803e3d6000fd5b505050506040513d601f19601f820116820180604052508101906106c8919061329d565b90508181935093505050915091565b600080849050828173ffffffffffffffffffffffffffffffffffffffff166370a08231866040518263ffffffff1660e01b81526004016107179190612b7e565b602060405180830381865afa158015610734573d6000803e3d6000fd5b505050506040513d601f19601f8201168201806040525081019061075891906132ca565b101580156107e15750828173ffffffffffffffffffffffffffffffffffffffff1663dd62ed3e86306040518363ffffffff1660e01b815260040161079d92919061302c565b602060405180830381865afa1580156107ba573d6000803e3d6000fd5b505050506040513d601f19601f820116820180604052508101906107de91906132ca565b10155b9150509392505050565b60007f000000000000000000000000000000000000000000000000000000000000000073ffffffffffffffffffffffffffffffffffffffff168273ffffffffffffffffffffffffffffffffffffffff161461084757600061084a565b60015b9050919050565b600080600061085f856105dd565b9150915080600a6108709190613459565b828561087c91906134a4565b6108869190613515565b9250505092915050565b60016020528060005260406000206000915054906101000a900473ffffffffffffffffffffffffffffffffffffffff1681565b6006602052816000526040600020602052806000526040600020600091509150508060000160009054906101000a900473ffffffffffffffffffffffffffffffffffffffff16908060010160009054906101000a900473ffffffffffffffffffffffffffffffffffffffff16908060020154908060030154908060040154908060050154908060060160009054906101000a900460ff16905087565b60045481565b6000600660008473ffffffffffffffffffffffffffffffffffffffff1673ffffffffffffffffffffffffffffffffffffffff168152602001908152602001600020600083815260200190815260200160002090508060010160009054906101000a900473ffffffffffffffffffffffffffffffffffffffff1673ffffffffffffffffffffffffffffffffffffffff163373ffffffffffffffffffffffffffffffffffffffff1614610a4b576040517f08c379a0000000000000000000000000000000000000000000000000000000008152600401610a4290613592565b60405180910390fd5b80600501544211610a91576040517f08c379a0000000000000000000000000000000000000000000000000000000008152600401610a88906135fe565b60405180910390fd5b60008060008060005b8560080180549050811015610c8057856008018181548110610abf57610abe61361e565b5b9060005260206000200160009054906101000a900473ffffffffffffffffffffffffffffffffffffffff16945060008660070160008773ffffffffffffffffffffffffffffffffffffffff1673ffffffffffffffffffffffffffffffffffffffff16815260200190815260200160002060405180606001604052908160008201548152602001600182015481526020016002820160009054906101000a900473ffffffffffffffffffffffffffffffffffffffff1673ffffffffffffffffffffffffffffffffffffffff1673ffffffffffffffffffffffffffffffffffffffff168152505090506000816000015103610bb85750610c6d565b806000015194506000816040015190506000610bd3826107eb565b610c4557610c40600160008473ffffffffffffffffffffffffffffffffffffffff1673ffffffffffffffffffffffffffffffffffffffff16815260200190815260200160002060009054906101000a900473ffffffffffffffffffffffffffffffffffffffff1688610851565b610c47565b865b905085811115610c6957610c5c8289896106d7565b15610c68578095508794505b5b5050505b8080610c789061364d565b915050610a9a565b50600073ffffffffffffffffffffffffffffffffffffffff168173ffffffffffffffffffffffffffffffffffffffff161480610cbf5750846003015482105b15610de557338560010160006101000a81548173ffffffffffffffffffffffffffffffffffffffff021916908373ffffffffffffffffffffffffffffffffffffffff16021790555060058560060160006101000a81548160ff02191690836005811115610d2f57610d2e612bba565b5b02179055508673ffffffffffffffffffffffffffffffffffffffff166342842e0e3033896040518463ffffffff1660e01b8152600401610d7193929190613695565b600060405180830381600087803b158015610d8b57600080fd5b505af1158015610d9f573d6000803e3d6000fd5b505050507f4c52329b429b6bc14602f8d8e34d003593c51b818a57a24fbc132479501432ad87873342604051610dd894939291906136cc565b60405180910390a1611007565b60048560060160006101000a81548160ff02191690836005811115610e0d57610e0c612bba565b5b021790555060008560070160008373ffffffffffffffffffffffffffffffffffffffff1673ffffffffffffffffffffffffffffffffffffffff16815260200190815260200160002060405180606001604052908160008201548152602001600182015481526020016002820160009054906101000a900473ffffffffffffffffffffffffffffffffffffffff1673ffffffffffffffffffffffffffffffffffffffff1673ffffffffffffffffffffffffffffffffffffffff16815250509050806040015173ffffffffffffffffffffffffffffffffffffffff166323b872dd833384600001516040518463ffffffff1660e01b8152600401610f1193929190613695565b6020604051808303816000875af1158015610f30573d6000803e3d6000fd5b505050506040513d601f19601f82011682018060405250810190610f54919061373d565b508773ffffffffffffffffffffffffffffffffffffffff166342842e0e30848a6040518463ffffffff1660e01b8152600401610f9293929190613695565b600060405180830381600087803b158015610fac57600080fd5b505af1158015610fc0573d6000803e3d6000fd5b505050507f9af79c03d71f5375aad271d2d27dc3b4227362c41a7a2ab66072e4e6592e262b888833858742604051610ffd9695949392919061376a565b60405180910390a1505b61101187876124cb565b50505050505050565b600760009054906101000a900473ffffffffffffffffffffffffffffffffffffffff1673ffffffffffffffffffffffffffffffffffffffff163373ffffffffffffffffffffffffffffffffffffffff16146110aa576040517f08c379a00000000000000000000000000000000000000000000000000000000081526004016110a190613817565b60405180910390fd5b600081036110ed576040517f08c379a00000000000000000000000000000000000000000000000000000000081526004016110e490613883565b60405180910390fd5b603c816110fa91906134a4565b60058190555050565b60008203611146576040517f08c379a000000000000000000000000000000000000000000000000000000000815260040161113d906138ef565b60405180910390fd5b6000600660008673ffffffffffffffffffffffffffffffffffffffff1673ffffffffffffffffffffffffffffffffffffffff16815260200190815260200160002060008581526020019081526020016000209050806004015442101580156111b2575080600501544211155b6111f1576040517f08c379a00000000000000000000000000000000000000000000000000000000081526004016111e89061395b565b60405180910390fd5b60008160070160003373ffffffffffffffffffffffffffffffffffffffff1673ffffffffffffffffffffffffffffffffffffffff16815260200190815260200160002090506000801b81600101540361127f576040517f08c379a0000000000000000000000000000000000000000000000000000000008152600401611276906139c7565b60405180910390fd5b60008160020160009054906101000a900473ffffffffffffffffffffffffffffffffffffffff1690506112b38133876106d7565b6112f2576040517f08c379a00000000000000000000000000000000000000000000000000000000081526004016112e990613a33565b60405180910390fd5b848173ffffffffffffffffffffffffffffffffffffffff1663dd62ed3e33306040518363ffffffff1660e01b815260040161132e92919061302c565b602060405180830381865afa15801561134b573d6000803e3d6000fd5b505050506040513d601f19601f8201168201806040525081019061136f91906132ca565b10156113b0576040517f08c379a00000000000000000000000000000000000000000000000000000000081526004016113a790613a9f565b60405180910390fd5b60006113e53387876040516020016113c9929190613b01565b60405160208183030381529060405280519060200120846127ca565b90508260010154811461142d576040517f08c379a000000000000000000000000000000000000000000000000000000000815260040161142490613b79565b60405180910390fd5b8583600001819055506002600581111561144a57611449612bba565b5b8460060160009054906101000a900460ff16600581111561146e5761146d612bba565b5b036114a15760038460060160006101000a81548160ff0219169083600581111561149b5761149a612bba565b5b02179055505b7fac1cdcb34c2f43796c50b2d0b00e98133621d7ea7593195241557dac6a5f184e88888333898b6040516114da96959493929190613ba8565b60405180910390a15050505050505050565b600260005403611531576040517f08c379a000000000000000000000000000000000000000000000000000000000815260040161152890613c55565b60405180910390fd5b600260008190555060008690508073ffffffffffffffffffffffffffffffffffffffff16636352211e876040518263ffffffff1660e01b81526004016115779190612a40565b602060405180830381865afa158015611594573d6000803e3d6000fd5b505050506040513d601f19601f820116820180604052508101906115b89190613c8a565b73ffffffffffffffffffffffffffffffffffffffff163373ffffffffffffffffffffffffffffffffffffffff1614611625576040517f08c379a000000000000000000000000000000000000000000000000000000000815260040161161c90613d03565b60405180910390fd5b42841015611668576040517f08c379a000000000000000000000000000000000000000000000000000000000815260040161165f90613d6f565b60405180910390fd5b600085116116ab576040517f08c379a00000000000000000000000000000000000000000000000000000000081526004016116a290613ddb565b60405180910390fd5b600554846116b99190613dfb565b8310156116fb576040517f08c379a00000000000000000000000000000000000000000000000000000000081526004016116f290613e7b565b60405180910390fd5b82821161173d576040517f08c379a000000000000000000000000000000000000000000000000000000000815260040161173490613ee7565b60405180910390fd5b6000600660008973ffffffffffffffffffffffffffffffffffffffff1673ffffffffffffffffffffffffffffffffffffffff1681526020019081526020016000206000888152602001908152602001600020905060008160040154146117d8576040517f08c379a00000000000000000000000000000000000000000000000000000000081526004016117cf90613f53565b60405180910390fd5b338160010160006101000a81548173ffffffffffffffffffffffffffffffffffffffff021916908373ffffffffffffffffffffffffffffffffffffffff16021790555085816003018190555060018160060160006101000a81548160ff0219169083600581111561184c5761184b612bba565b5b0217905550848160020181905550838160040181905550828160050181905550878160000160006101000a81548173ffffffffffffffffffffffffffffffffffffffff021916908373ffffffffffffffffffffffffffffffffffffffff16021790555060016003546118be9190613dfb565b6003819055508173ffffffffffffffffffffffffffffffffffffffff166323b872dd33308a6040518463ffffffff1660e01b815260040161190193929190613695565b600060405180830381600087803b15801561191b57600080fd5b505af115801561192f573d6000803e3d6000fd5b505050507fdf179f1d286c93c679334be11420131492ab86e4d75b9598ed0ff17508273b4e888833898560020154898942604051611974989796959493929190613f73565b60405180910390a150506001600081905550505050505050565b611996612800565b6000600660008673ffffffffffffffffffffffffffffffffffffffff1673ffffffffffffffffffffffffffffffffffffffff168152602001908152602001600020600085815260200190815260200160002090506000816008018054905003611a34576040517f08c379a0000000000000000000000000000000000000000000000000000000008152600401611a2b90613153565b60405180910390fd5b8060070160008473ffffffffffffffffffffffffffffffffffffffff1673ffffffffffffffffffffffffffffffffffffffff16815260200190815260200160002060405180606001604052908160008201548152602001600182015481526020016002820160009054906101000a900473ffffffffffffffffffffffffffffffffffffffff1673ffffffffffffffffffffffffffffffffffffffff1673ffffffffffffffffffffffffffffffffffffffff16815250509150509392505050565b60055481565b600260005403611b3f576040517f08c379a0000000000000000000000000000000000000000000000000000000008152600401611b3690613c55565b60405180910390fd5b60026000819055506000600660008673ffffffffffffffffffffffffffffffffffffffff1673ffffffffffffffffffffffffffffffffffffffff16815260200190815260200160002060008581526020019081526020016000209050600073ffffffffffffffffffffffffffffffffffffffff168160010160009054906101000a900473ffffffffffffffffffffffffffffffffffffffff1673ffffffffffffffffffffffffffffffffffffffff1603611c2e576040517f08c379a0000000000000000000000000000000000000000000000000000000008152600401611c259061403d565b60405180910390fd5b600760009054906101000a900473ffffffffffffffffffffffffffffffffffffffff1673ffffffffffffffffffffffffffffffffffffffff163373ffffffffffffffffffffffffffffffffffffffff1603611cbe576040517f08c379a0000000000000000000000000000000000000000000000000000000008152600401611cb5906140a9565b60405180910390fd5b6000801b8303611d03576040517f08c379a0000000000000000000000000000000000000000000000000000000008152600401611cfa90614115565b60405180910390fd5b600073ffffffffffffffffffffffffffffffffffffffff16600160008473ffffffffffffffffffffffffffffffffffffffff1673ffffffffffffffffffffffffffffffffffffffff16815260200190815260200160002060009054906101000a900473ffffffffffffffffffffffffffffffffffffffff1673ffffffffffffffffffffffffffffffffffffffff16141580611da35750611da2826107eb565b5b611de2576040517f08c379a0000000000000000000000000000000000000000000000000000000008152600401611dd990614181565b60405180910390fd5b8060020154421015611e29576040517f08c379a0000000000000000000000000000000000000000000000000000000008152600401611e20906141ed565b60405180910390fd5b8060010160009054906101000a900473ffffffffffffffffffffffffffffffffffffffff1673ffffffffffffffffffffffffffffffffffffffff163373ffffffffffffffffffffffffffffffffffffffff1603611ebb576040517f08c379a0000000000000000000000000000000000000000000000000000000008152600401611eb290614259565b60405180910390fd5b4281600401541015611f02576040517f08c379a0000000000000000000000000000000000000000000000000000000008152600401611ef9906142c5565b60405180910390fd5b60008160070160003373ffffffffffffffffffffffffffffffffffffffff1673ffffffffffffffffffffffffffffffffffffffff16815260200190815260200160002090506000801b816001015414611f90576040517f08c379a0000000000000000000000000000000000000000000000000000000008152600401611f8790614331565b60405180910390fd5b611f9b3385856127ca565b816001018190555060016005811115611fb757611fb6612bba565b5b8260060160009054906101000a900460ff166005811115611fdb57611fda612bba565b5b0361200e5760028260060160006101000a81548160ff0219169083600581111561200857612007612bba565b5b02179055505b828160020160006101000a81548173ffffffffffffffffffffffffffffffffffffffff021916908373ffffffffffffffffffffffffffffffffffffffff16021790555081600801339080600181540180825580915050600190039060005260206000200160009091909190916101000a81548173ffffffffffffffffffffffffffffffffffffffff021916908373ffffffffffffffffffffffffffffffffffffffff160217905550600460008154809291906120c99061364d565b91905055507fe86a7bf4f8980619e10345099db4bf2d07da85bf499e37fd7ecb0b5df95c62d8868686426040516121039493929190614351565b60405180910390a15050600160008190555050505050565b60606002805480602002602001604051908101604052809291908181526020016000905b8282101561221d57838290600052602060002090600202016040518060400160405290816000820160009054906101000a900473ffffffffffffffffffffffffffffffffffffffff1673ffffffffffffffffffffffffffffffffffffffff1673ffffffffffffffffffffffffffffffffffffffff1681526020016001820160009054906101000a900473ffffffffffffffffffffffffffffffffffffffff1673ffffffffffffffffffffffffffffffffffffffff1673ffffffffffffffffffffffffffffffffffffffff16815250508152602001906001019061213f565b50505050905090565b6002818154811061223657600080fd5b90600052602060002090600202016000915090508060000160009054906101000a900473ffffffffffffffffffffffffffffffffffffffff16908060010160009054906101000a900473ffffffffffffffffffffffffffffffffffffffff16905082565b60606000600660008573ffffffffffffffffffffffffffffffffffffffff1673ffffffffffffffffffffffffffffffffffffffff168152602001908152602001600020600084815260200190815260200160002060060160009054906101000a900460ff16600581111561231157612310612bba565b5b905060008160ff160361235b576040518060400160405280600a81526020017f556e61737369676e65640000000000000000000000000000000000000000000081525091506124c4565b60018160ff16036123a3576040518060400160405280600981526020017f496e69746961746564000000000000000000000000000000000000000000000081525091506124c3565b60028160ff16036123eb576040518060400160405280600681526020017f426964646564000000000000000000000000000000000000000000000000000081525091506124c2565b60038160ff1603612433576040518060400160405280600881526020017f52657665616c656400000000000000000000000000000000000000000000000081525091506124c1565b60048160ff160361247b576040518060400160405280600881526020017f457865637574656400000000000000000000000000000000000000000000000081525091506124c0565b60058160ff16036124bf576040518060400160405280600a81526020017f556e65786563757465640000000000000000000000000000000000000000000081525091505b5b5b5b5b5b5092915050565b6000600660008473ffffffffffffffffffffffffffffffffffffffff1673ffffffffffffffffffffffffffffffffffffffff1681526020019081526020016000206000838152602001908152602001600020905060008160070160008073ffffffffffffffffffffffffffffffffffffffff1673ffffffffffffffffffffffffffffffffffffffff16815260200190815260200160002060405180606001604052908160008201548152602001600182015481526020016002820160009054906101000a900473ffffffffffffffffffffffffffffffffffffffff1673ffffffffffffffffffffffffffffffffffffffff1673ffffffffffffffffffffffffffffffffffffffff1681525050905060005b82600801805490508110156126de57818360070160008560080184815481106126085761260761361e565b5b9060005260206000200160009054906101000a900473ffffffffffffffffffffffffffffffffffffffff1673ffffffffffffffffffffffffffffffffffffffff1673ffffffffffffffffffffffffffffffffffffffff168152602001908152602001600020600082015181600001556020820151816001015560408201518160020160006101000a81548173ffffffffffffffffffffffffffffffffffffffff021916908373ffffffffffffffffffffffffffffffffffffffff16021790555090505080806126d69061364d565b9150506125dc565b50600660008573ffffffffffffffffffffffffffffffffffffffff1673ffffffffffffffffffffffffffffffffffffffff1681526020019081526020016000206000848152602001908152602001600020600080820160006101000a81549073ffffffffffffffffffffffffffffffffffffffff02191690556001820160006101000a81549073ffffffffffffffffffffffffffffffffffffffff021916905560028201600090556003820160009055600482016000905560058201600090556006820160006101000a81549060ff02191690556008820160006127c2919061283a565b505050505050565b60008383836040516020016127e1939291906143de565b6040516020818303038152906040528051906020012090509392505050565b60405180606001604052806000815260200160008019168152602001600073ffffffffffffffffffffffffffffffffffffffff1681525090565b5080546000825590600052602060002090810190612858919061285b565b50565b5b8082111561287457600081600090555060010161285c565b5090565b600080fd5b600073ffffffffffffffffffffffffffffffffffffffff82169050919050565b60006128a88261287d565b9050919050565b6128b88161289d565b81146128c357600080fd5b50565b6000813590506128d5816128af565b92915050565b6000819050919050565b6128ee816128db565b81146128f957600080fd5b50565b60008135905061290b816128e5565b92915050565b6000806040838503121561292857612927612878565b5b6000612936858286016128c6565b9250506020612947858286016128fc565b9150509250929050565b600081519050919050565b600082825260208201905092915050565b6000819050602082019050919050565b6129868161289d565b82525050565b6000612998838361297d565b60208301905092915050565b6000602082019050919050565b60006129bc82612951565b6129c6818561295c565b93506129d18361296d565b8060005b83811015612a025781516129e9888261298c565b97506129f4836129a4565b9250506001810190506129d5565b5085935050505092915050565b60006020820190508181036000830152612a2981846129b1565b905092915050565b612a3a816128db565b82525050565b6000602082019050612a556000830184612a31565b92915050565b600060208284031215612a7157612a70612878565b5b6000612a7f848285016128c6565b91505092915050565b6000819050919050565b612a9b81612a88565b82525050565b600060ff82169050919050565b612ab781612aa1565b82525050565b6000604082019050612ad26000830185612a92565b612adf6020830184612aae565b9392505050565b600080600060608486031215612aff57612afe612878565b5b6000612b0d868287016128c6565b9350506020612b1e868287016128c6565b9250506040612b2f868287016128fc565b9150509250925092565b60008115159050919050565b612b4e81612b39565b82525050565b6000602082019050612b696000830184612b45565b92915050565b612b788161289d565b82525050565b6000602082019050612b936000830184612b6f565b92915050565b6000612ba48261287d565b9050919050565b612bb481612b99565b82525050565b7f4e487b7100000000000000000000000000000000000000000000000000000000600052602160045260246000fd5b60068110612bfa57612bf9612bba565b5b50565b6000819050612c0b82612be9565b919050565b6000612c1b82612bfd565b9050919050565b612c2b81612c10565b82525050565b600060e082019050612c46600083018a612b6f565b612c536020830189612bab565b612c606040830188612a31565b612c6d6060830187612a31565b612c7a6080830186612a31565b612c8760a0830185612a31565b612c9460c0830184612c22565b98975050505050505050565b600060208284031215612cb657612cb5612878565b5b6000612cc4848285016128fc565b91505092915050565b6000819050919050565b612ce081612ccd565b8114612ceb57600080fd5b50565b600081359050612cfd81612cd7565b92915050565b60008060008060808587031215612d1d57612d1c612878565b5b6000612d2b878288016128c6565b9450506020612d3c878288016128fc565b9350506040612d4d878288016128fc565b9250506060612d5e87828801612cee565b91505092959194509250565b60008060008060008060c08789031215612d8757612d86612878565b5b6000612d9589828a016128c6565b9650506020612da689828a016128fc565b9550506040612db789828a016128fc565b9450506060612dc889828a016128fc565b9350506080612dd989828a016128fc565b92505060a0612dea89828a016128fc565b9150509295509295509295565b600080600060608486031215612e1057612e0f612878565b5b6000612e1e868287016128c6565b9350506020612e2f868287016128fc565b9250506040612e40868287016128c6565b9150509250925092565b612e53816128db565b82525050565b612e6281612ccd565b82525050565b606082016000820151612e7e6000850182612e4a565b506020820151612e916020850182612e59565b506040820151612ea4604085018261297d565b50505050565b6000606082019050612ebf6000830184612e68565b92915050565b60008060008060808587031215612edf57612ede612878565b5b6000612eed878288016128c6565b9450506020612efe878288016128fc565b9350506040612f0f87828801612cee565b9250506060612f20878288016128c6565b91505092959194509250565b600081519050919050565b600082825260208201905092915050565b6000819050602082019050919050565b604082016000820151612f6e600085018261297d565b506020820151612f81602085018261297d565b50505050565b6000612f938383612f58565b60408301905092915050565b6000602082019050919050565b6000612fb782612f2c565b612fc18185612f37565b9350612fcc83612f48565b8060005b83811015612ffd578151612fe48882612f87565b9750612fef83612f9f565b925050600181019050612fd0565b5085935050505092915050565b600060208201905081810360008301526130248184612fac565b905092915050565b60006040820190506130416000830185612b6f565b61304e6020830184612b6f565b9392505050565b600081519050919050565b600082825260208201905092915050565b60005b8381101561308f578082015181840152602081019050613074565b60008484015250505050565b6000601f19601f8301169050919050565b60006130b782613055565b6130c18185613060565b93506130d1818560208601613071565b6130da8161309b565b840191505092915050565b600060208201905081810360008301526130ff81846130ac565b905092915050565b7f6e6f206269647300000000000000000000000000000000000000000000000000600082015250565b600061313d600783613060565b915061314882613107565b602082019050919050565b6000602082019050818103600083015261316c81613130565b9050919050565b600069ffffffffffffffffffff82169050919050565b61319281613173565b811461319d57600080fd5b50565b6000815190506131af81613189565b92915050565b6131be81612a88565b81146131c957600080fd5b50565b6000815190506131db816131b5565b92915050565b6000815190506131f0816128e5565b92915050565b600080600080600060a0868803121561321257613211612878565b5b6000613220888289016131a0565b9550506020613231888289016131cc565b9450506040613242888289016131e1565b9350506060613253888289016131e1565b9250506080613264888289016131a0565b9150509295509295909350565b61327a81612aa1565b811461328557600080fd5b50565b60008151905061329781613271565b92915050565b6000602082840312156132b3576132b2612878565b5b60006132c184828501613288565b91505092915050565b6000602082840312156132e0576132df612878565b5b60006132ee848285016131e1565b91505092915050565b7f4e487b7100000000000000000000000000000000000000000000000000000000600052601160045260246000fd5b60008160011c9050919050565b6000808291508390505b600185111561337d57808604811115613359576133586132f7565b5b60018516156133685780820291505b808102905061337685613326565b945061333d565b94509492505050565b6000826133965760019050613452565b816133a45760009050613452565b81600181146133ba57600281146133c4576133f3565b6001915050613452565b60ff8411156133d6576133d56132f7565b5b8360020a9150848211156133ed576133ec6132f7565b5b50613452565b5060208310610133831016604e8410600b84101617156134285782820a905083811115613423576134226132f7565b5b613452565b6134358484846001613333565b9250905081840481111561344c5761344b6132f7565b5b81810290505b9392505050565b6000613464826128db565b915061346f83612aa1565b925061349c7fffffffffffffffffffffffffffffffffffffffffffffffffffffffffffffffff8484613386565b905092915050565b60006134af826128db565b91506134ba836128db565b92508282026134c8816128db565b915082820484148315176134df576134de6132f7565b5b5092915050565b7f4e487b7100000000000000000000000000000000000000000000000000000000600052601260045260246000fd5b6000613520826128db565b915061352b836128db565b92508261353b5761353a6134e6565b5b828204905092915050565b7f6e6f742061756374696f6e206f776e6572000000000000000000000000000000600082015250565b600061357c601183613060565b915061358782613546565b602082019050919050565b600060208201905081810360008301526135ab8161356f565b9050919050565b7f72657665616c207068617365206e6f74206f7665720000000000000000000000600082015250565b60006135e8601583613060565b91506135f3826135b2565b602082019050919050565b60006020820190508181036000830152613617816135db565b9050919050565b7f4e487b7100000000000000000000000000000000000000000000000000000000600052603260045260246000fd5b6000613658826128db565b91507fffffffffffffffffffffffffffffffffffffffffffffffffffffffffffffffff820361368a576136896132f7565b5b600182019050919050565b60006060820190506136aa6000830186612b6f565b6136b76020830185612b6f565b6136c46040830184612a31565b949350505050565b60006080820190506136e16000830187612b6f565b6136ee6020830186612a31565b6136fb6040830185612b6f565b6137086060830184612a31565b95945050505050565b61371a81612b39565b811461372557600080fd5b50565b60008151905061373781613711565b92915050565b60006020828403121561375357613752612878565b5b600061376184828501613728565b91505092915050565b600060c08201905061377f6000830189612b6f565b61378c6020830188612a31565b6137996040830187612b6f565b6137a66060830186612b6f565b6137b36080830185612a31565b6137c060a0830184612a31565b979650505050505050565b7f63616e6e6f7420696e6372656173652074696d65000000000000000000000000600082015250565b6000613801601483613060565b915061380c826137cb565b602082019050919050565b60006020820190508181036000830152613830816137f4565b9050919050565b7f61756374696f6e206475726174696f6e2063616e6e6f74206265207a65726f00600082015250565b600061386d601f83613060565b915061387882613837565b602082019050919050565b6000602082019050818103600083015261389c81613860565b9050919050565b7f7a65726f206269642076616c7565000000000000000000000000000000000000600082015250565b60006138d9600e83613060565b91506138e4826138a3565b602082019050919050565b60006020820190508181036000830152613908816138cc565b9050919050565b7f6e6f7420696e2072657665616c20706861736500000000000000000000000000600082015250565b6000613945601383613060565b91506139508261390f565b602082019050919050565b6000602082019050818103600083015261397481613938565b9050919050565b7f6e6f2062696420636f6d6d69746d656e74000000000000000000000000000000600082015250565b60006139b1601183613060565b91506139bc8261397b565b602082019050919050565b600060208201905081810360008301526139e0816139a4565b9050919050565b7f696e7375666620746f6b656e2062616c616e6365206f7220617070726f76616c600082015250565b6000613a1d602083613060565b9150613a28826139e7565b602082019050919050565b60006020820190508181036000830152613a4c81613a10565b9050919050565b7f6c6f7720746f6b656e20616c6c6f77616e636500000000000000000000000000600082015250565b6000613a89601383613060565b9150613a9482613a53565b602082019050919050565b60006020820190508181036000830152613ab881613a7c565b9050919050565b6000819050919050565b613ada613ad5826128db565b613abf565b82525050565b6000819050919050565b613afb613af682612ccd565b613ae0565b82525050565b6000613b0d8285613ac9565b602082019150613b1d8284613aea565b6020820191508190509392505050565b7f696e76616c696420626964206861736800000000000000000000000000000000600082015250565b6000613b63601083613060565b9150613b6e82613b2d565b602082019050919050565b60006020820190508181036000830152613b9281613b56565b9050919050565b613ba281612ccd565b82525050565b600060c082019050613bbd6000830189612b6f565b613bca6020830188612a31565b613bd76040830187613b99565b613be46060830186612b6f565b613bf16080830185613b99565b613bfe60a0830184612a31565b979650505050505050565b7f5265656e7472616e637947756172643a207265656e7472616e742063616c6c00600082015250565b6000613c3f601f83613060565b9150613c4a82613c09565b602082019050919050565b60006020820190508181036000830152613c6e81613c32565b9050919050565b600081519050613c84816128af565b92915050565b600060208284031215613ca057613c9f612878565b5b6000613cae84828501613c75565b91505092915050565b7f6e6f74206f776e65720000000000000000000000000000000000000000000000600082015250565b6000613ced600983613060565b9150613cf882613cb7565b602082019050919050565b60006020820190508181036000830152613d1c81613ce0565b9050919050565b7f696e76616c69642061756374696f6e2073746172742074696d65000000000000600082015250565b6000613d59601a83613060565b9150613d6482613d23565b602082019050919050565b60006020820190508181036000830152613d8881613d4c565b9050919050565b7f61756374696f6e2070726963652063616e6e6f74206265207a65726f00000000600082015250565b6000613dc5601c83613060565b9150613dd082613d8f565b602082019050919050565b60006020820190508181036000830152613df481613db8565b9050919050565b6000613e06826128db565b9150613e11836128db565b9250828201905080821115613e2957613e286132f7565b5b92915050565b7f696e76616c69642061756374696f6e20656e642074696d650000000000000000600082015250565b6000613e65601883613060565b9150613e7082613e2f565b602082019050919050565b60006020820190508181036000830152613e9481613e58565b9050919050565b7f696e76616c69642072657665616c206475726174696f6e2074696d6500000000600082015250565b6000613ed1601c83613060565b9150613edc82613e9b565b602082019050919050565b60006020820190508181036000830152613f0081613ec4565b9050919050565b7f61756374696f6e20616c72656164792065786973740000000000000000000000600082015250565b6000613f3d601583613060565b9150613f4882613f07565b602082019050919050565b60006020820190508181036000830152613f6c81613f30565b9050919050565b600061010082019050613f89600083018b612b6f565b613f96602083018a612a31565b613fa36040830189612b6f565b613fb06060830188612a31565b613fbd6080830187612a31565b613fca60a0830186612a31565b613fd760c0830185612a31565b613fe460e0830184612a31565b9998505050505050505050565b7f6e6f6e2d6578697374656e742061756374696f6e206974656d00000000000000600082015250565b6000614027601983613060565b915061403282613ff1565b602082019050919050565b600060208201905081810360008301526140568161401a565b9050919050565b7f6465706c6f7965722063616e6e6f742062696400000000000000000000000000600082015250565b6000614093601383613060565b915061409e8261405d565b602082019050919050565b600060208201905081810360008301526140c281614086565b9050919050565b7f7a65726f2062696420636f6d6d69746d656e7400000000000000000000000000600082015250565b60006140ff601383613060565b915061410a826140c9565b602082019050919050565b6000602082019050818103600083015261412e816140f2565b9050919050565b7f696e76616c69642062696420746f6b656e000000000000000000000000000000600082015250565b600061416b601183613060565b915061417682614135565b602082019050919050565b6000602082019050818103600083015261419a8161415e565b9050919050565b7f61756374696f6e20686173206e6f742073746172746564000000000000000000600082015250565b60006141d7601783613060565b91506141e2826141a1565b602082019050919050565b60006020820190508181036000830152614206816141ca565b9050919050565b7f61756374696f6e2073656c6c65722063616e6e6f742062696400000000000000600082015250565b6000614243601983613060565b915061424e8261420d565b602082019050919050565b6000602082019050818103600083015261427281614236565b9050919050565b7f61756374696f6e2068617320656e646564000000000000000000000000000000600082015250565b60006142af601183613060565b91506142ba82614279565b602082019050919050565b600060208201905081810360008301526142de816142a2565b9050919050565b7f696e697469616c697a656420626964436f6d6d69746d656e7400000000000000600082015250565b600061431b601983613060565b9150614326826142e5565b602082019050919050565b6000602082019050818103600083015261434a8161430e565b9050919050565b60006080820190506143666000830187612b6f565b6143736020830186612a31565b6143806040830185613b99565b61438d6060830184612a31565b95945050505050565b60008160601b9050919050565b60006143ae82614396565b9050919050565b60006143c0826143a3565b9050919050565b6143d86143d38261289d565b6143b5565b82525050565b60006143ea82866143c7565b6014820191506143fa8285613aea565b60208201915061440a82846143c7565b60148201915081905094935050505056fea26469706673582212202021eee9b0c36a6d6c5f932711c5129e56cdab7559847c13cd5ea3c20efba0d464736f6c63430008110033",
  "linkReferences": {},
  "deployedLinkReferences": {}
}