{
  "_format": "hh-sol-artifact-1",
  "contractName": "Dauction",
  "sourceName": "contracts/Dauction.sol",
  "abi": [
    {
      "inputs": [
        {
          "components": [
            {
              "internalType": "address",
              "name": "token",
              "type": "address"
            },
            {
              "internalType": "address",
              "name": "priceFeed",
              "type": "address"
            }
          ],
          "internalType": "struct Dauction.BidTokens[]",
          "name": "bidTokensArray",
          "type": "tuple[]"
        },
        {
          "internalType": "address",
          "name": "_USDT",
          "type": "address"
        }
      ],
      "stateMutability": "nonpayable",
      "type": "constructor"
    },
    {
      "anonymous": false,
      "inputs": [
        {
          "indexed": false,
          "internalType": "address",
          "name": "nft",
          "type": "address"
        },
        {
          "indexed": false,
          "internalType": "uint256",
          "name": "tokenId",
          "type": "uint256"
        },
        {
          "indexed": false,
          "internalType": "address",
          "name": "seller",
          "type": "address"
        },
        {
          "indexed": false,
          "internalType": "uint256",
          "name": "minBidPrice",
          "type": "uint256"
        },
        {
          "indexed": false,
          "internalType": "uint256",
          "name": "startTime",
          "type": "uint256"
        },
        {
          "indexed": false,
          "internalType": "uint256",
          "name": "endTime",
          "type": "uint256"
        },
        {
          "indexed": false,
          "internalType": "uint256",
          "name": "revealDuration",
          "type": "uint256"
        },
        {
          "indexed": false,
          "internalType": "uint256",
          "name": "auctionCreatedAt",
          "type": "uint256"
        }
      ],
      "name": "AuctionCreated",
      "type": "event"
    },
    {
      "anonymous": false,
      "inputs": [
        {
          "indexed": false,
          "internalType": "address",
          "name": "nftAddress",
          "type": "address"
        },
        {
          "indexed": false,
          "internalType": "uint256",
          "name": "tokenId",
          "type": "uint256"
        },
        {
          "indexed": false,
          "internalType": "address",
          "name": "previousOwner",
          "type": "address"
        },
        {
          "indexed": false,
          "internalType": "address",
          "name": "newOwner",
          "type": "address"
        },
        {
          "indexed": false,
          "internalType": "uint256",
          "name": "tokenAmountPaid",
          "type": "uint256"
        }
      ],
      "name": "AuctionSettled",
      "type": "event"
    },
    {
      "anonymous": false,
      "inputs": [
        {
          "indexed": false,
          "internalType": "address",
          "name": "nftAddress",
          "type": "address"
        },
        {
          "indexed": false,
          "internalType": "uint256",
          "name": "tokenId",
          "type": "uint256"
        },
        {
          "indexed": false,
          "internalType": "address",
          "name": "owner",
          "type": "address"
        },
        {
          "indexed": false,
          "internalType": "uint256",
          "name": "time",
          "type": "uint256"
        }
      ],
      "name": "AuctionUnsettled",
      "type": "event"
    },
    {
      "anonymous": false,
      "inputs": [
        {
          "indexed": false,
          "internalType": "address",
          "name": "nftContractAddress",
          "type": "address"
        },
        {
          "indexed": false,
          "internalType": "uint256",
          "name": "tokenId",
          "type": "uint256"
        },
        {
          "indexed": false,
          "internalType": "bytes32",
          "name": "bidCommitment",
          "type": "bytes32"
        },
        {
          "indexed": false,
          "internalType": "uint256",
          "name": "biddedAt",
          "type": "uint256"
        }
      ],
      "name": "BidCreated",
      "type": "event"
    },
    {
      "anonymous": false,
      "inputs": [
        {
          "indexed": false,
          "internalType": "address",
          "name": "tokenContract",
          "type": "address"
        },
        {
          "indexed": false,
          "internalType": "uint256",
          "name": "tokenId",
          "type": "uint256"
        },
        {
          "indexed": false,
          "internalType": "bytes32",
          "name": "bidHash",
          "type": "bytes32"
        },
        {
          "indexed": false,
          "internalType": "address",
          "name": "bidder",
          "type": "address"
        },
        {
          "indexed": false,
          "internalType": "bytes32",
          "name": "salt",
          "type": "bytes32"
        },
        {
          "indexed": false,
          "internalType": "uint256",
          "name": "bidValue",
          "type": "uint256"
        }
      ],
      "name": "BidRevealed",
      "type": "event"
    },
    {
      "inputs": [],
      "name": "MIN_AUCTION_PERIOD",
      "outputs": [
        {
          "internalType": "uint256",
          "name": "",
          "type": "uint256"
        }
      ],
      "stateMutability": "view",
      "type": "function"
    },
    {
      "inputs": [],
      "name": "activeAuctions",
      "outputs": [
        {
          "internalType": "uint256",
          "name": "",
          "type": "uint256"
        }
      ],
      "stateMutability": "view",
      "type": "function"
    },
    {
      "inputs": [
        {
          "internalType": "address",
          "name": "",
          "type": "address"
        },
        {
          "internalType": "uint256",
          "name": "",
          "type": "uint256"
        }
      ],
      "name": "auctions",
      "outputs": [
        {
          "internalType": "address payable",
          "name": "owner",
          "type": "address"
        },
        {
          "internalType": "uint256",
          "name": "startTime",
          "type": "uint256"
        },
        {
          "internalType": "uint256",
          "name": "minBidPrice",
          "type": "uint256"
        },
        {
          "internalType": "uint256",
          "name": "endTime",
          "type": "uint256"
        },
        {
          "internalType": "uint256",
          "name": "revealDuration",
          "type": "uint256"
        },
        {
          "internalType": "enum Dauction.AuctionStatus",
          "name": "auctionStatus",
          "type": "uint8"
        }
      ],
      "stateMutability": "view",
      "type": "function"
    },
    {
      "inputs": [
        {
          "internalType": "address",
          "name": "",
          "type": "address"
        }
      ],
      "name": "bidTokenToPriceFeed",
      "outputs": [
        {
          "internalType": "address",
          "name": "",
          "type": "address"
        }
      ],
      "stateMutability": "view",
      "type": "function"
    },
    {
      "inputs": [
        {
          "internalType": "uint256",
          "name": "",
          "type": "uint256"
        }
      ],
      "name": "bidTokens",
      "outputs": [
        {
          "internalType": "address",
          "name": "token",
          "type": "address"
        },
        {
          "internalType": "address",
          "name": "priceFeed",
          "type": "address"
        }
      ],
      "stateMutability": "view",
      "type": "function"
    },
    {
      "inputs": [
        {
          "internalType": "address",
          "name": "_priceFeed",
          "type": "address"
        },
        {
          "internalType": "uint256",
          "name": "bidAmount",
          "type": "uint256"
        }
      ],
      "name": "calculateBasePrice",
      "outputs": [
        {
          "internalType": "uint256",
          "name": "",
          "type": "uint256"
        }
      ],
      "stateMutability": "view",
      "type": "function"
    },
    {
      "inputs": [
        {
          "internalType": "address",
          "name": "_bidToken",
          "type": "address"
        }
      ],
      "name": "checkBidTokenUSDTEquivalence",
      "outputs": [
        {
          "internalType": "bool",
          "name": "",
          "type": "bool"
        }
      ],
      "stateMutability": "view",
      "type": "function"
    },
    {
      "inputs": [
        {
          "internalType": "address",
          "name": "tokenAddress",
          "type": "address"
        },
        {
          "internalType": "address",
          "name": "approver",
          "type": "address"
        },
        {
          "internalType": "uint256",
          "name": "bidValue",
          "type": "uint256"
        }
      ],
      "name": "checkTokenBalanceAndApproval",
      "outputs": [
        {
          "internalType": "bool",
          "name": "",
          "type": "bool"
        }
      ],
      "stateMutability": "view",
      "type": "function"
    },
    {
      "inputs": [
        {
          "internalType": "address",
          "name": "_nftAddress",
          "type": "address"
        },
        {
          "internalType": "uint256",
          "name": "_tokenId",
          "type": "uint256"
        },
        {
          "internalType": "uint256",
          "name": "_minBidPrice",
          "type": "uint256"
        },
        {
          "internalType": "uint256",
          "name": "_startTime",
          "type": "uint256"
        },
        {
          "internalType": "uint256",
          "name": "_endTime",
          "type": "uint256"
        },
        {
          "internalType": "uint256",
          "name": "_revealDuration",
          "type": "uint256"
        }
      ],
      "name": "createAuction",
      "outputs": [],
      "stateMutability": "nonpayable",
      "type": "function"
    },
    {
      "inputs": [
        {
          "internalType": "address",
          "name": "nftContractAddress",
          "type": "address"
        },
        {
          "internalType": "uint256",
          "name": "tokenId",
          "type": "uint256"
        },
        {
          "internalType": "bytes32",
          "name": "bidCommitment",
          "type": "bytes32"
        },
        {
          "internalType": "address",
          "name": "bidToken",
          "type": "address"
        }
      ],
      "name": "createBid",
      "outputs": [],
      "stateMutability": "nonpayable",
      "type": "function"
    },
    {
      "inputs": [
        {
          "internalType": "address",
          "name": "nftAddress",
          "type": "address"
        },
        {
          "internalType": "uint256",
          "name": "tokenId",
          "type": "uint256"
        }
      ],
      "name": "getAuctionStatus",
      "outputs": [
        {
          "internalType": "string",
          "name": "_auctionStatus",
          "type": "string"
        }
      ],
      "stateMutability": "view",
      "type": "function"
    },
    {
      "inputs": [
        {
          "internalType": "address",
          "name": "nftAddress",
          "type": "address"
        },
        {
          "internalType": "uint256",
          "name": "tokenId",
          "type": "uint256"
        },
        {
          "internalType": "address",
          "name": "bidder",
          "type": "address"
        }
      ],
      "name": "getBid",
      "outputs": [
        {
          "components": [
            {
              "internalType": "uint256",
              "name": "amountBidded",
              "type": "uint256"
            },
            {
              "internalType": "bytes32",
              "name": "bidCommitHash",
              "type": "bytes32"
            },
            {
              "internalType": "address",
              "name": "bidToken",
              "type": "address"
            }
          ],
          "internalType": "struct Dauction.Bid",
          "name": "",
          "type": "tuple"
        }
      ],
      "stateMutability": "view",
      "type": "function"
    },
    {
      "inputs": [],
      "name": "getBidTokens",
      "outputs": [
        {
          "components": [
            {
              "internalType": "address",
              "name": "token",
              "type": "address"
            },
            {
              "internalType": "address",
              "name": "priceFeed",
              "type": "address"
            }
          ],
          "internalType": "struct Dauction.BidTokens[]",
          "name": "",
          "type": "tuple[]"
        }
      ],
      "stateMutability": "view",
      "type": "function"
    },
    {
      "inputs": [
        {
          "internalType": "address",
          "name": "nftAddress",
          "type": "address"
        },
        {
          "internalType": "uint256",
          "name": "tokenId",
          "type": "uint256"
        }
      ],
      "name": "getBidders",
      "outputs": [
        {
          "internalType": "address[]",
          "name": "",
          "type": "address[]"
        }
      ],
      "stateMutability": "view",
      "type": "function"
    },
    {
      "inputs": [
        {
          "internalType": "address",
          "name": "_priceFeed",
          "type": "address"
        }
      ],
      "name": "getLatestPrice",
      "outputs": [
        {
          "internalType": "int256",
          "name": "",
          "type": "int256"
        },
        {
          "internalType": "uint8",
          "name": "",
          "type": "uint8"
        }
      ],
      "stateMutability": "view",
      "type": "function"
    },
    {
      "inputs": [
        {
          "internalType": "address",
          "name": "nftAddress",
          "type": "address"
        },
        {
          "internalType": "uint256",
          "name": "tokenId",
          "type": "uint256"
        }
      ],
      "name": "getMinBidPrice",
      "outputs": [
        {
          "internalType": "uint256",
          "name": "",
          "type": "uint256"
        }
      ],
      "stateMutability": "view",
      "type": "function"
    },
    {
      "inputs": [
        {
          "internalType": "address",
          "name": "nftAddress",
          "type": "address"
        },
        {
          "internalType": "uint256",
          "name": "tokenId",
          "type": "uint256"
        },
        {
          "internalType": "uint256",
          "name": "bidValue",
          "type": "uint256"
        },
        {
          "internalType": "bytes32",
          "name": "salt",
          "type": "bytes32"
        }
      ],
      "name": "revealBid",
      "outputs": [],
      "stateMutability": "nonpayable",
      "type": "function"
    },
    {
      "inputs": [
        {
          "internalType": "address",
          "name": "nftAddress",
          "type": "address"
        },
        {
          "internalType": "uint256",
          "name": "tokenId",
          "type": "uint256"
        }
      ],
      "name": "settleAuction",
      "outputs": [],
      "stateMutability": "nonpayable",
      "type": "function"
    },
    {
      "inputs": [],
      "name": "totalAuctions",
      "outputs": [
        {
          "internalType": "uint256",
          "name": "",
          "type": "uint256"
        }
      ],
      "stateMutability": "view",
      "type": "function"
    }
  ],
  "bytecode": "0x60a06040523480156200001157600080fd5b50604051620046dd380380620046dd8339818101604052810190620000379190620003ec565b600160008190555060005b8251811015620001225782818151811062000062576200006162000452565b5b6020026020010151602001516001600085848151811062000088576200008762000452565b5b60200260200101516000015173ffffffffffffffffffffffffffffffffffffffff1673ffffffffffffffffffffffffffffffffffffffff16815260200190815260200160002060006101000a81548173ffffffffffffffffffffffffffffffffffffffff021916908373ffffffffffffffffffffffffffffffffffffffff16021790555080806200011990620004ba565b91505062000042565b508073ffffffffffffffffffffffffffffffffffffffff1660808173ffffffffffffffffffffffffffffffffffffffff168152505033600660006101000a81548173ffffffffffffffffffffffffffffffffffffffff021916908373ffffffffffffffffffffffffffffffffffffffff160217905550505062000507565b6000604051905090565b600080fd5b600080fd5b600080fd5b6000601f19601f8301169050919050565b7f4e487b7100000000000000000000000000000000000000000000000000000000600052604160045260246000fd5b6200020482620001b9565b810181811067ffffffffffffffff82111715620002265762000225620001ca565b5b80604052505050565b60006200023b620001a0565b9050620002498282620001f9565b919050565b600067ffffffffffffffff8211156200026c576200026b620001ca565b5b602082029050602081019050919050565b600080fd5b600080fd5b600073ffffffffffffffffffffffffffffffffffffffff82169050919050565b6000620002b48262000287565b9050919050565b620002c681620002a7565b8114620002d257600080fd5b50565b600081519050620002e681620002bb565b92915050565b60006040828403121562000305576200030462000282565b5b6200031160406200022f565b905060006200032384828501620002d5565b60008301525060206200033984828501620002d5565b60208301525092915050565b60006200035c62000356846200024e565b6200022f565b905080838252602082019050604084028301858111156200038257620003816200027d565b5b835b81811015620003af57806200039a8882620002ec565b84526020840193505060408101905062000384565b5050509392505050565b600082601f830112620003d157620003d0620001b4565b5b8151620003e384826020860162000345565b91505092915050565b60008060408385031215620004065762000405620001aa565b5b600083015167ffffffffffffffff811115620004275762000426620001af565b5b6200043585828601620003b9565b92505060206200044885828601620002d5565b9150509250929050565b7f4e487b7100000000000000000000000000000000000000000000000000000000600052603260045260246000fd5b7f4e487b7100000000000000000000000000000000000000000000000000000000600052601160045260246000fd5b6000819050919050565b6000620004c782620004b0565b91507fffffffffffffffffffffffffffffffffffffffffffffffffffffffffffffffff8203620004fc57620004fb62000481565b5b600182019050919050565b6080516141ba6200052360003960006107c701526141ba6000f3fe608060405234801561001057600080fd5b50600436106101215760003560e01c80635090d0c6116100ad578063b34171b511610071578063b34171b51461035a578063c2e0e7e01461038a578063d59feb6a146103a6578063e6f7fbd4146103c4578063f8a206fa146103f557610121565b80635090d0c6146102ca5780635138b08c146102e85780637887df8514610304578063791bb4ef1461032057806398984de61461033c57610121565b80631886aa93116100f45780631886aa93146101d5578063194d07ca146102055780631e8a0b321461023557806333d31bf51461026557806344f91c1e1461029557610121565b80630d587c1e14610126578063102784981461015657806316002f4a1461018657806316345f18146101a4575b600080fd5b610140600480360381019061013b919061276e565b610425565b60405161014d919061286c565b60405180910390f35b610170600480360381019061016b919061276e565b610551565b60405161017d919061289d565b60405180910390f35b61018e6105af565b60405161019b919061289d565b60405180910390f35b6101be60048036038101906101b991906128b8565b6105b5565b6040516101cc92919061291a565b60405180910390f35b6101ef60048036038101906101ea9190612943565b6106af565b6040516101fc91906129b1565b60405180910390f35b61021f600480360381019061021a91906128b8565b6107c3565b60405161022c91906129b1565b60405180910390f35b61024f600480360381019061024a919061276e565b610829565b60405161025c919061289d565b60405180910390f35b61027f600480360381019061027a91906128b8565b610868565b60405161028c91906129db565b60405180910390f35b6102af60048036038101906102aa919061276e565b61089b565b6040516102c196959493929190612a8e565b60405180910390f35b6102d2610911565b6040516102df919061289d565b60405180910390f35b61030260048036038101906102fd919061276e565b610917565b005b61031e60048036038101906103199190612b25565b610fca565b005b61033a60048036038101906103359190612b8c565b6113b3565b005b610344611812565b604051610351919061289d565b60405180910390f35b610374600480360381019061036f9190612c19565b611818565b6040516103819190612ccc565b60405180910390f35b6103a4600480360381019061039f9190612ce7565b61197e565b005b6103ae611f9f565b6040516103bb9190612e2c565b60405180910390f35b6103de60048036038101906103d99190612e4e565b6120aa565b6040516103ec929190612e7b565b60405180910390f35b61040f600480360381019061040a919061276e565b61211e565b60405161041c9190612f34565b60405180910390f35b60606000600560008573ffffffffffffffffffffffffffffffffffffffff1673ffffffffffffffffffffffffffffffffffffffff16815260200190815260200160002060008481526020019081526020016000206007018054806020026020016040519081016040528092919081815260200182805480156104fc57602002820191906000526020600020905b8160009054906101000a900473ffffffffffffffffffffffffffffffffffffffff1673ffffffffffffffffffffffffffffffffffffffff16815260200190600101908083116104b2575b505050505090506000815103610547576040517f08c379a000000000000000000000000000000000000000000000000000000000815260040161053e90612fa2565b60405180910390fd5b8091505092915050565b6000600560008473ffffffffffffffffffffffffffffffffffffffff1673ffffffffffffffffffffffffffffffffffffffff168152602001908152602001600020600083815260200190815260200160002060020154905092915050565b60035481565b60008060008373ffffffffffffffffffffffffffffffffffffffff1663feaf968c6040518163ffffffff1660e01b815260040160a060405180830381865afa158015610605573d6000803e3d6000fd5b505050506040513d601f19601f820116820180604052508101906106299190613045565b50505091505060008473ffffffffffffffffffffffffffffffffffffffff1663313ce5676040518163ffffffff1660e01b8152600401602060405180830381865afa15801561067c573d6000803e3d6000fd5b505050506040513d601f19601f820116820180604052508101906106a091906130ec565b90508181935093505050915091565b600080849050828173ffffffffffffffffffffffffffffffffffffffff166370a08231866040518263ffffffff1660e01b81526004016106ef91906129db565b602060405180830381865afa15801561070c573d6000803e3d6000fd5b505050506040513d601f19601f820116820180604052508101906107309190613119565b101580156107b95750828173ffffffffffffffffffffffffffffffffffffffff1663dd62ed3e86306040518363ffffffff1660e01b8152600401610775929190612e7b565b602060405180830381865afa158015610792573d6000803e3d6000fd5b505050506040513d601f19601f820116820180604052508101906107b69190613119565b10155b9150509392505050565b60007f000000000000000000000000000000000000000000000000000000000000000073ffffffffffffffffffffffffffffffffffffffff168273ffffffffffffffffffffffffffffffffffffffff161461081f576000610822565b60015b9050919050565b6000806000610837856105b5565b9150915080600a61084891906132a8565b828561085491906132f3565b61085e9190613364565b9250505092915050565b60016020528060005260406000206000915054906101000a900473ffffffffffffffffffffffffffffffffffffffff1681565b6005602052816000526040600020602052806000526040600020600091509150508060000160009054906101000a900473ffffffffffffffffffffffffffffffffffffffff16908060010154908060020154908060030154908060040154908060050160009054906101000a900460ff16905086565b60045481565b6000600560008473ffffffffffffffffffffffffffffffffffffffff1673ffffffffffffffffffffffffffffffffffffffff168152602001908152602001600020600083815260200190815260200160002090508060000160009054906101000a900473ffffffffffffffffffffffffffffffffffffffff1673ffffffffffffffffffffffffffffffffffffffff163373ffffffffffffffffffffffffffffffffffffffff16146109fd576040517f08c379a00000000000000000000000000000000000000000000000000000000081526004016109f4906133e1565b60405180910390fd5b80600401544211610a43576040517f08c379a0000000000000000000000000000000000000000000000000000000008152600401610a3a9061344d565b60405180910390fd5b60008060008060005b8560070180549050811015610c3257856007018181548110610a7157610a7061346d565b5b9060005260206000200160009054906101000a900473ffffffffffffffffffffffffffffffffffffffff16945060008660060160008773ffffffffffffffffffffffffffffffffffffffff1673ffffffffffffffffffffffffffffffffffffffff16815260200190815260200160002060405180606001604052908160008201548152602001600182015481526020016002820160009054906101000a900473ffffffffffffffffffffffffffffffffffffffff1673ffffffffffffffffffffffffffffffffffffffff1673ffffffffffffffffffffffffffffffffffffffff168152505090506000816000015103610b6a5750610c1f565b806000015194506000816040015190506000610b85826107c3565b610bf757610bf2600160008473ffffffffffffffffffffffffffffffffffffffff1673ffffffffffffffffffffffffffffffffffffffff16815260200190815260200160002060009054906101000a900473ffffffffffffffffffffffffffffffffffffffff1688610829565b610bf9565b865b905085811115610c1b57610c0e8289896106af565b15610c1a578095508794505b5b5050505b8080610c2a9061349c565b915050610a4c565b50600073ffffffffffffffffffffffffffffffffffffffff168173ffffffffffffffffffffffffffffffffffffffff161480610c715750846002015482105b15610d9757338560000160006101000a81548173ffffffffffffffffffffffffffffffffffffffff021916908373ffffffffffffffffffffffffffffffffffffffff16021790555060058560050160006101000a81548160ff02191690836005811115610ce157610ce0612a17565b5b02179055508673ffffffffffffffffffffffffffffffffffffffff166342842e0e3033896040518463ffffffff1660e01b8152600401610d23939291906134e4565b600060405180830381600087803b158015610d3d57600080fd5b505af1158015610d51573d6000803e3d6000fd5b505050507f4c52329b429b6bc14602f8d8e34d003593c51b818a57a24fbc132479501432ad87873342604051610d8a949392919061351b565b60405180910390a1610fb7565b60048560050160006101000a81548160ff02191690836005811115610dbf57610dbe612a17565b5b021790555060008560060160008373ffffffffffffffffffffffffffffffffffffffff1673ffffffffffffffffffffffffffffffffffffffff16815260200190815260200160002060405180606001604052908160008201548152602001600182015481526020016002820160009054906101000a900473ffffffffffffffffffffffffffffffffffffffff1673ffffffffffffffffffffffffffffffffffffffff1673ffffffffffffffffffffffffffffffffffffffff16815250509050806040015173ffffffffffffffffffffffffffffffffffffffff166323b872dd833384600001516040518463ffffffff1660e01b8152600401610ec3939291906134e4565b6020604051808303816000875af1158015610ee2573d6000803e3d6000fd5b505050506040513d601f19601f82011682018060405250810190610f06919061358c565b508773ffffffffffffffffffffffffffffffffffffffff166342842e0e30848a6040518463ffffffff1660e01b8152600401610f44939291906134e4565b600060405180830381600087803b158015610f5e57600080fd5b505af1158015610f72573d6000803e3d6000fd5b505050507fd89ac72b811465c6564ec26b5b26028c4682af9011a5f67bd34a50a095d0b13b8888338587604051610fad9594939291906135b9565b60405180910390a1505b610fc1878761234f565b50505050505050565b6000820361100d576040517f08c379a000000000000000000000000000000000000000000000000000000000815260040161100490613658565b60405180910390fd5b6000600560008673ffffffffffffffffffffffffffffffffffffffff1673ffffffffffffffffffffffffffffffffffffffff1681526020019081526020016000206000858152602001908152602001600020905080600301544210158015611079575080600401544211155b6110b8576040517f08c379a00000000000000000000000000000000000000000000000000000000081526004016110af906136c4565b60405180910390fd5b60008160060160003373ffffffffffffffffffffffffffffffffffffffff1673ffffffffffffffffffffffffffffffffffffffff16815260200190815260200160002090506000801b816001015403611146576040517f08c379a000000000000000000000000000000000000000000000000000000000815260040161113d90613730565b60405180910390fd5b60008160020160009054906101000a900473ffffffffffffffffffffffffffffffffffffffff16905061117a8133876106af565b6111b9576040517f08c379a00000000000000000000000000000000000000000000000000000000081526004016111b09061379c565b60405180910390fd5b848173ffffffffffffffffffffffffffffffffffffffff1663dd62ed3e33306040518363ffffffff1660e01b81526004016111f5929190612e7b565b602060405180830381865afa158015611212573d6000803e3d6000fd5b505050506040513d601f19601f820116820180604052508101906112369190613119565b1015611277576040517f08c379a000000000000000000000000000000000000000000000000000000000815260040161126e90613808565b60405180910390fd5b60006112ac33878760405160200161129092919061386a565b6040516020818303038152906040528051906020012084612627565b9050826001015481146112f4576040517f08c379a00000000000000000000000000000000000000000000000000000000081526004016112eb906138e2565b60405180910390fd5b8583600001819055506002600581111561131157611310612a17565b5b8460050160009054906101000a900460ff16600581111561133557611334612a17565b5b036113685760038460050160006101000a81548160ff0219169083600581111561136257611361612a17565b5b02179055505b7fac1cdcb34c2f43796c50b2d0b00e98133621d7ea7593195241557dac6a5f184e88888333898b6040516113a196959493929190613911565b60405180910390a15050505050505050565b6002600054036113f8576040517f08c379a00000000000000000000000000000000000000000000000000000000081526004016113ef906139be565b60405180910390fd5b600260008190555060008690508073ffffffffffffffffffffffffffffffffffffffff16636352211e876040518263ffffffff1660e01b815260040161143e919061289d565b602060405180830381865afa15801561145b573d6000803e3d6000fd5b505050506040513d601f19601f8201168201806040525081019061147f91906139f3565b73ffffffffffffffffffffffffffffffffffffffff163373ffffffffffffffffffffffffffffffffffffffff16146114ec576040517f08c379a00000000000000000000000000000000000000000000000000000000081526004016114e390613a6c565b60405180910390fd5b4284101561152f576040517f08c379a000000000000000000000000000000000000000000000000000000000815260040161152690613ad8565b60405180910390fd5b60008511611572576040517f08c379a000000000000000000000000000000000000000000000000000000000815260040161156990613b44565b60405180910390fd5b610e10846115809190613b64565b8310156115c2576040517f08c379a00000000000000000000000000000000000000000000000000000000081526004016115b990613be4565b60405180910390fd5b828211611604576040517f08c379a00000000000000000000000000000000000000000000000000000000081526004016115fb90613c50565b60405180910390fd5b6000600560008973ffffffffffffffffffffffffffffffffffffffff1673ffffffffffffffffffffffffffffffffffffffff16815260200190815260200160002060008881526020019081526020016000209050600081600301541461169f576040517f08c379a000000000000000000000000000000000000000000000000000000000815260040161169690613cbc565b60405180910390fd5b338160000160006101000a81548173ffffffffffffffffffffffffffffffffffffffff021916908373ffffffffffffffffffffffffffffffffffffffff16021790555085816002018190555060018160050160006101000a81548160ff0219169083600581111561171357611712612a17565b5b021790555084816001018190555083816003018190555082816004018190555060016003546117429190613b64565b6003819055508173ffffffffffffffffffffffffffffffffffffffff166323b872dd33308a6040518463ffffffff1660e01b8152600401611785939291906134e4565b600060405180830381600087803b15801561179f57600080fd5b505af11580156117b3573d6000803e3d6000fd5b505050507fdf179f1d286c93c679334be11420131492ab86e4d75b9598ed0ff17508273b4e8888338985600101548989426040516117f8989796959493929190613cdc565b60405180910390a150506001600081905550505050505050565b610e1081565b61182061265d565b6000600560008673ffffffffffffffffffffffffffffffffffffffff1673ffffffffffffffffffffffffffffffffffffffff1681526020019081526020016000206000858152602001908152602001600020905060008160070180549050036118be576040517f08c379a00000000000000000000000000000000000000000000000000000000081526004016118b590612fa2565b60405180910390fd5b8060060160008473ffffffffffffffffffffffffffffffffffffffff1673ffffffffffffffffffffffffffffffffffffffff16815260200190815260200160002060405180606001604052908160008201548152602001600182015481526020016002820160009054906101000a900473ffffffffffffffffffffffffffffffffffffffff1673ffffffffffffffffffffffffffffffffffffffff1673ffffffffffffffffffffffffffffffffffffffff16815250509150509392505050565b6002600054036119c3576040517f08c379a00000000000000000000000000000000000000000000000000000000081526004016119ba906139be565b60405180910390fd5b60026000819055506000600560008673ffffffffffffffffffffffffffffffffffffffff1673ffffffffffffffffffffffffffffffffffffffff16815260200190815260200160002060008581526020019081526020016000209050600073ffffffffffffffffffffffffffffffffffffffff168160000160009054906101000a900473ffffffffffffffffffffffffffffffffffffffff1673ffffffffffffffffffffffffffffffffffffffff1603611ab2576040517f08c379a0000000000000000000000000000000000000000000000000000000008152600401611aa990613da6565b60405180910390fd5b600660009054906101000a900473ffffffffffffffffffffffffffffffffffffffff1673ffffffffffffffffffffffffffffffffffffffff163373ffffffffffffffffffffffffffffffffffffffff1603611b42576040517f08c379a0000000000000000000000000000000000000000000000000000000008152600401611b3990613e12565b60405180910390fd5b6000801b8303611b87576040517f08c379a0000000000000000000000000000000000000000000000000000000008152600401611b7e90613e7e565b60405180910390fd5b600073ffffffffffffffffffffffffffffffffffffffff16600160008473ffffffffffffffffffffffffffffffffffffffff1673ffffffffffffffffffffffffffffffffffffffff16815260200190815260200160002060009054906101000a900473ffffffffffffffffffffffffffffffffffffffff1673ffffffffffffffffffffffffffffffffffffffff16141580611c275750611c26826107c3565b5b611c66576040517f08c379a0000000000000000000000000000000000000000000000000000000008152600401611c5d90613eea565b60405180910390fd5b8060010154421015611cad576040517f08c379a0000000000000000000000000000000000000000000000000000000008152600401611ca490613f56565b60405180910390fd5b8060000160009054906101000a900473ffffffffffffffffffffffffffffffffffffffff1673ffffffffffffffffffffffffffffffffffffffff163373ffffffffffffffffffffffffffffffffffffffff1603611d3f576040517f08c379a0000000000000000000000000000000000000000000000000000000008152600401611d3690613fc2565b60405180910390fd5b4281600301541015611d86576040517f08c379a0000000000000000000000000000000000000000000000000000000008152600401611d7d9061402e565b60405180910390fd5b60008160060160003373ffffffffffffffffffffffffffffffffffffffff1673ffffffffffffffffffffffffffffffffffffffff16815260200190815260200160002090506000801b816001015414611e14576040517f08c379a0000000000000000000000000000000000000000000000000000000008152600401611e0b9061409a565b60405180910390fd5b611e1f338585612627565b816001018190555060016005811115611e3b57611e3a612a17565b5b8260050160009054906101000a900460ff166005811115611e5f57611e5e612a17565b5b03611e925760028260050160006101000a81548160ff02191690836005811115611e8c57611e8b612a17565b5b02179055505b828160020160006101000a81548173ffffffffffffffffffffffffffffffffffffffff021916908373ffffffffffffffffffffffffffffffffffffffff16021790555081600701339080600181540180825580915050600190039060005260206000200160009091909190916101000a81548173ffffffffffffffffffffffffffffffffffffffff021916908373ffffffffffffffffffffffffffffffffffffffff16021790555060046000815480929190611f4d9061349c565b91905055507fe86a7bf4f8980619e10345099db4bf2d07da85bf499e37fd7ecb0b5df95c62d886868642604051611f8794939291906140ba565b60405180910390a15050600160008190555050505050565b60606002805480602002602001604051908101604052809291908181526020016000905b828210156120a157838290600052602060002090600202016040518060400160405290816000820160009054906101000a900473ffffffffffffffffffffffffffffffffffffffff1673ffffffffffffffffffffffffffffffffffffffff1673ffffffffffffffffffffffffffffffffffffffff1681526020016001820160009054906101000a900473ffffffffffffffffffffffffffffffffffffffff1673ffffffffffffffffffffffffffffffffffffffff1673ffffffffffffffffffffffffffffffffffffffff168152505081526020019060010190611fc3565b50505050905090565b600281815481106120ba57600080fd5b90600052602060002090600202016000915090508060000160009054906101000a900473ffffffffffffffffffffffffffffffffffffffff16908060010160009054906101000a900473ffffffffffffffffffffffffffffffffffffffff16905082565b60606000600560008573ffffffffffffffffffffffffffffffffffffffff1673ffffffffffffffffffffffffffffffffffffffff168152602001908152602001600020600084815260200190815260200160002060050160009054906101000a900460ff16600581111561219557612194612a17565b5b905060008160ff16036121df576040518060400160405280600a81526020017f556e61737369676e6564000000000000000000000000000000000000000000008152509150612348565b60018160ff1603612227576040518060400160405280600981526020017f496e6974696174656400000000000000000000000000000000000000000000008152509150612347565b60028160ff160361226f576040518060400160405280600681526020017f42696464656400000000000000000000000000000000000000000000000000008152509150612346565b60038160ff16036122b7576040518060400160405280600881526020017f52657665616c65640000000000000000000000000000000000000000000000008152509150612345565b60048160ff16036122ff576040518060400160405280600881526020017f45786563757465640000000000000000000000000000000000000000000000008152509150612344565b60058160ff1603612343576040518060400160405280600a81526020017f556e65786563757465640000000000000000000000000000000000000000000081525091505b5b5b5b5b5b5092915050565b6000600560008473ffffffffffffffffffffffffffffffffffffffff1673ffffffffffffffffffffffffffffffffffffffff1681526020019081526020016000206000838152602001908152602001600020905060008160060160008073ffffffffffffffffffffffffffffffffffffffff1673ffffffffffffffffffffffffffffffffffffffff16815260200190815260200160002060405180606001604052908160008201548152602001600182015481526020016002820160009054906101000a900473ffffffffffffffffffffffffffffffffffffffff1673ffffffffffffffffffffffffffffffffffffffff1673ffffffffffffffffffffffffffffffffffffffff1681525050905060005b8260070180549050811015612562578183600601600085600701848154811061248c5761248b61346d565b5b9060005260206000200160009054906101000a900473ffffffffffffffffffffffffffffffffffffffff1673ffffffffffffffffffffffffffffffffffffffff1673ffffffffffffffffffffffffffffffffffffffff168152602001908152602001600020600082015181600001556020820151816001015560408201518160020160006101000a81548173ffffffffffffffffffffffffffffffffffffffff021916908373ffffffffffffffffffffffffffffffffffffffff160217905550905050808061255a9061349c565b915050612460565b50600560008573ffffffffffffffffffffffffffffffffffffffff1673ffffffffffffffffffffffffffffffffffffffff1681526020019081526020016000206000848152602001908152602001600020600080820160006101000a81549073ffffffffffffffffffffffffffffffffffffffff021916905560018201600090556002820160009055600382016000905560048201600090556005820160006101000a81549060ff021916905560078201600061261f9190612697565b505050505050565b600083838360405160200161263e93929190614147565b6040516020818303038152906040528051906020012090509392505050565b60405180606001604052806000815260200160008019168152602001600073ffffffffffffffffffffffffffffffffffffffff1681525090565b50805460008255906000526020600020908101906126b591906126b8565b50565b5b808211156126d15760008160009055506001016126b9565b5090565b600080fd5b600073ffffffffffffffffffffffffffffffffffffffff82169050919050565b6000612705826126da565b9050919050565b612715816126fa565b811461272057600080fd5b50565b6000813590506127328161270c565b92915050565b6000819050919050565b61274b81612738565b811461275657600080fd5b50565b60008135905061276881612742565b92915050565b60008060408385031215612785576127846126d5565b5b600061279385828601612723565b92505060206127a485828601612759565b9150509250929050565b600081519050919050565b600082825260208201905092915050565b6000819050602082019050919050565b6127e3816126fa565b82525050565b60006127f583836127da565b60208301905092915050565b6000602082019050919050565b6000612819826127ae565b61282381856127b9565b935061282e836127ca565b8060005b8381101561285f57815161284688826127e9565b975061285183612801565b925050600181019050612832565b5085935050505092915050565b60006020820190508181036000830152612886818461280e565b905092915050565b61289781612738565b82525050565b60006020820190506128b2600083018461288e565b92915050565b6000602082840312156128ce576128cd6126d5565b5b60006128dc84828501612723565b91505092915050565b6000819050919050565b6128f8816128e5565b82525050565b600060ff82169050919050565b612914816128fe565b82525050565b600060408201905061292f60008301856128ef565b61293c602083018461290b565b9392505050565b60008060006060848603121561295c5761295b6126d5565b5b600061296a86828701612723565b935050602061297b86828701612723565b925050604061298c86828701612759565b9150509250925092565b60008115159050919050565b6129ab81612996565b82525050565b60006020820190506129c660008301846129a2565b92915050565b6129d5816126fa565b82525050565b60006020820190506129f060008301846129cc565b92915050565b6000612a01826126da565b9050919050565b612a11816129f6565b82525050565b7f4e487b7100000000000000000000000000000000000000000000000000000000600052602160045260246000fd5b60068110612a5757612a56612a17565b5b50565b6000819050612a6882612a46565b919050565b6000612a7882612a5a565b9050919050565b612a8881612a6d565b82525050565b600060c082019050612aa36000830189612a08565b612ab0602083018861288e565b612abd604083018761288e565b612aca606083018661288e565b612ad7608083018561288e565b612ae460a0830184612a7f565b979650505050505050565b6000819050919050565b612b0281612aef565b8114612b0d57600080fd5b50565b600081359050612b1f81612af9565b92915050565b60008060008060808587031215612b3f57612b3e6126d5565b5b6000612b4d87828801612723565b9450506020612b5e87828801612759565b9350506040612b6f87828801612759565b9250506060612b8087828801612b10565b91505092959194509250565b60008060008060008060c08789031215612ba957612ba86126d5565b5b6000612bb789828a01612723565b9650506020612bc889828a01612759565b9550506040612bd989828a01612759565b9450506060612bea89828a01612759565b9350506080612bfb89828a01612759565b92505060a0612c0c89828a01612759565b9150509295509295509295565b600080600060608486031215612c3257612c316126d5565b5b6000612c4086828701612723565b9350506020612c5186828701612759565b9250506040612c6286828701612723565b9150509250925092565b612c7581612738565b82525050565b612c8481612aef565b82525050565b606082016000820151612ca06000850182612c6c565b506020820151612cb36020850182612c7b565b506040820151612cc660408501826127da565b50505050565b6000606082019050612ce16000830184612c8a565b92915050565b60008060008060808587031215612d0157612d006126d5565b5b6000612d0f87828801612723565b9450506020612d2087828801612759565b9350506040612d3187828801612b10565b9250506060612d4287828801612723565b91505092959194509250565b600081519050919050565b600082825260208201905092915050565b6000819050602082019050919050565b604082016000820151612d9060008501826127da565b506020820151612da360208501826127da565b50505050565b6000612db58383612d7a565b60408301905092915050565b6000602082019050919050565b6000612dd982612d4e565b612de38185612d59565b9350612dee83612d6a565b8060005b83811015612e1f578151612e068882612da9565b9750612e1183612dc1565b925050600181019050612df2565b5085935050505092915050565b60006020820190508181036000830152612e468184612dce565b905092915050565b600060208284031215612e6457612e636126d5565b5b6000612e7284828501612759565b91505092915050565b6000604082019050612e9060008301856129cc565b612e9d60208301846129cc565b9392505050565b600081519050919050565b600082825260208201905092915050565b60005b83811015612ede578082015181840152602081019050612ec3565b60008484015250505050565b6000601f19601f8301169050919050565b6000612f0682612ea4565b612f108185612eaf565b9350612f20818560208601612ec0565b612f2981612eea565b840191505092915050565b60006020820190508181036000830152612f4e8184612efb565b905092915050565b7f6e6f206269647300000000000000000000000000000000000000000000000000600082015250565b6000612f8c600783612eaf565b9150612f9782612f56565b602082019050919050565b60006020820190508181036000830152612fbb81612f7f565b9050919050565b600069ffffffffffffffffffff82169050919050565b612fe181612fc2565b8114612fec57600080fd5b50565b600081519050612ffe81612fd8565b92915050565b61300d816128e5565b811461301857600080fd5b50565b60008151905061302a81613004565b92915050565b60008151905061303f81612742565b92915050565b600080600080600060a08688031215613061576130606126d5565b5b600061306f88828901612fef565b95505060206130808882890161301b565b945050604061309188828901613030565b93505060606130a288828901613030565b92505060806130b388828901612fef565b9150509295509295909350565b6130c9816128fe565b81146130d457600080fd5b50565b6000815190506130e6816130c0565b92915050565b600060208284031215613102576131016126d5565b5b6000613110848285016130d7565b91505092915050565b60006020828403121561312f5761312e6126d5565b5b600061313d84828501613030565b91505092915050565b7f4e487b7100000000000000000000000000000000000000000000000000000000600052601160045260246000fd5b60008160011c9050919050565b6000808291508390505b60018511156131cc578086048111156131a8576131a7613146565b5b60018516156131b75780820291505b80810290506131c585613175565b945061318c565b94509492505050565b6000826131e557600190506132a1565b816131f357600090506132a1565b8160018114613209576002811461321357613242565b60019150506132a1565b60ff84111561322557613224613146565b5b8360020a91508482111561323c5761323b613146565b5b506132a1565b5060208310610133831016604e8410600b84101617156132775782820a90508381111561327257613271613146565b5b6132a1565b6132848484846001613182565b9250905081840481111561329b5761329a613146565b5b81810290505b9392505050565b60006132b382612738565b91506132be836128fe565b92506132eb7fffffffffffffffffffffffffffffffffffffffffffffffffffffffffffffffff84846131d5565b905092915050565b60006132fe82612738565b915061330983612738565b925082820261331781612738565b9150828204841483151761332e5761332d613146565b5b5092915050565b7f4e487b7100000000000000000000000000000000000000000000000000000000600052601260045260246000fd5b600061336f82612738565b915061337a83612738565b92508261338a57613389613335565b5b828204905092915050565b7f6e6f742061756374696f6e206f776e6572000000000000000000000000000000600082015250565b60006133cb601183612eaf565b91506133d682613395565b602082019050919050565b600060208201905081810360008301526133fa816133be565b9050919050565b7f72657665616c207068617365206e6f74206f7665720000000000000000000000600082015250565b6000613437601583612eaf565b915061344282613401565b602082019050919050565b600060208201905081810360008301526134668161342a565b9050919050565b7f4e487b7100000000000000000000000000000000000000000000000000000000600052603260045260246000fd5b60006134a782612738565b91507fffffffffffffffffffffffffffffffffffffffffffffffffffffffffffffffff82036134d9576134d8613146565b5b600182019050919050565b60006060820190506134f960008301866129cc565b61350660208301856129cc565b613513604083018461288e565b949350505050565b600060808201905061353060008301876129cc565b61353d602083018661288e565b61354a60408301856129cc565b613557606083018461288e565b95945050505050565b61356981612996565b811461357457600080fd5b50565b60008151905061358681613560565b92915050565b6000602082840312156135a2576135a16126d5565b5b60006135b084828501613577565b91505092915050565b600060a0820190506135ce60008301886129cc565b6135db602083018761288e565b6135e860408301866129cc565b6135f560608301856129cc565b613602608083018461288e565b9695505050505050565b7f7a65726f206269642076616c7565000000000000000000000000000000000000600082015250565b6000613642600e83612eaf565b915061364d8261360c565b602082019050919050565b6000602082019050818103600083015261367181613635565b9050919050565b7f6e6f7420696e2072657665616c20706861736500000000000000000000000000600082015250565b60006136ae601383612eaf565b91506136b982613678565b602082019050919050565b600060208201905081810360008301526136dd816136a1565b9050919050565b7f6e6f2062696420636f6d6d69746d656e74000000000000000000000000000000600082015250565b600061371a601183612eaf565b9150613725826136e4565b602082019050919050565b600060208201905081810360008301526137498161370d565b9050919050565b7f696e7375666620746f6b656e2062616c616e6365206f7220617070726f76616c600082015250565b6000613786602083612eaf565b915061379182613750565b602082019050919050565b600060208201905081810360008301526137b581613779565b9050919050565b7f6c6f7720746f6b656e20616c6c6f77616e636500000000000000000000000000600082015250565b60006137f2601383612eaf565b91506137fd826137bc565b602082019050919050565b60006020820190508181036000830152613821816137e5565b9050919050565b6000819050919050565b61384361383e82612738565b613828565b82525050565b6000819050919050565b61386461385f82612aef565b613849565b82525050565b60006138768285613832565b6020820191506138868284613853565b6020820191508190509392505050565b7f696e76616c696420626964206861736800000000000000000000000000000000600082015250565b60006138cc601083612eaf565b91506138d782613896565b602082019050919050565b600060208201905081810360008301526138fb816138bf565b9050919050565b61390b81612aef565b82525050565b600060c08201905061392660008301896129cc565b613933602083018861288e565b6139406040830187613902565b61394d60608301866129cc565b61395a6080830185613902565b61396760a083018461288e565b979650505050505050565b7f5265656e7472616e637947756172643a207265656e7472616e742063616c6c00600082015250565b60006139a8601f83612eaf565b91506139b382613972565b602082019050919050565b600060208201905081810360008301526139d78161399b565b9050919050565b6000815190506139ed8161270c565b92915050565b600060208284031215613a0957613a086126d5565b5b6000613a17848285016139de565b91505092915050565b7f6e6f74206f776e65720000000000000000000000000000000000000000000000600082015250565b6000613a56600983612eaf565b9150613a6182613a20565b602082019050919050565b60006020820190508181036000830152613a8581613a49565b9050919050565b7f696e76616c69642061756374696f6e2073746172742074696d65000000000000600082015250565b6000613ac2601a83612eaf565b9150613acd82613a8c565b602082019050919050565b60006020820190508181036000830152613af181613ab5565b9050919050565b7f61756374696f6e2070726963652063616e6e6f74206265207a65726f00000000600082015250565b6000613b2e601c83612eaf565b9150613b3982613af8565b602082019050919050565b60006020820190508181036000830152613b5d81613b21565b9050919050565b6000613b6f82612738565b9150613b7a83612738565b9250828201905080821115613b9257613b91613146565b5b92915050565b7f696e76616c69642061756374696f6e20656e642074696d650000000000000000600082015250565b6000613bce601883612eaf565b9150613bd982613b98565b602082019050919050565b60006020820190508181036000830152613bfd81613bc1565b9050919050565b7f696e76616c69642072657665616c206475726174696f6e2074696d6500000000600082015250565b6000613c3a601c83612eaf565b9150613c4582613c04565b602082019050919050565b60006020820190508181036000830152613c6981613c2d565b9050919050565b7f61756374696f6e20616c72656164792065786973740000000000000000000000600082015250565b6000613ca6601583612eaf565b9150613cb182613c70565b602082019050919050565b60006020820190508181036000830152613cd581613c99565b9050919050565b600061010082019050613cf2600083018b6129cc565b613cff602083018a61288e565b613d0c60408301896129cc565b613d19606083018861288e565b613d26608083018761288e565b613d3360a083018661288e565b613d4060c083018561288e565b613d4d60e083018461288e565b9998505050505050505050565b7f6e6f6e2d6578697374656e742061756374696f6e206974656d00000000000000600082015250565b6000613d90601983612eaf565b9150613d9b82613d5a565b602082019050919050565b60006020820190508181036000830152613dbf81613d83565b9050919050565b7f6465706c6f7965722063616e6e6f742062696400000000000000000000000000600082015250565b6000613dfc601383612eaf565b9150613e0782613dc6565b602082019050919050565b60006020820190508181036000830152613e2b81613def565b9050919050565b7f7a65726f2062696420636f6d6d69746d656e7400000000000000000000000000600082015250565b6000613e68601383612eaf565b9150613e7382613e32565b602082019050919050565b60006020820190508181036000830152613e9781613e5b565b9050919050565b7f696e76616c69642062696420746f6b656e000000000000000000000000000000600082015250565b6000613ed4601183612eaf565b9150613edf82613e9e565b602082019050919050565b60006020820190508181036000830152613f0381613ec7565b9050919050565b7f61756374696f6e20686173206e6f742073746172746564000000000000000000600082015250565b6000613f40601783612eaf565b9150613f4b82613f0a565b602082019050919050565b60006020820190508181036000830152613f6f81613f33565b9050919050565b7f61756374696f6e2073656c6c65722063616e6e6f742062696400000000000000600082015250565b6000613fac601983612eaf565b9150613fb782613f76565b602082019050919050565b60006020820190508181036000830152613fdb81613f9f565b9050919050565b7f61756374696f6e2068617320656e646564000000000000000000000000000000600082015250565b6000614018601183612eaf565b915061402382613fe2565b602082019050919050565b600060208201905081810360008301526140478161400b565b9050919050565b7f696e697469616c697a656420626964436f6d6d69746d656e7400000000000000600082015250565b6000614084601983612eaf565b915061408f8261404e565b602082019050919050565b600060208201905081810360008301526140b381614077565b9050919050565b60006080820190506140cf60008301876129cc565b6140dc602083018661288e565b6140e96040830185613902565b6140f6606083018461288e565b95945050505050565b60008160601b9050919050565b6000614117826140ff565b9050919050565b60006141298261410c565b9050919050565b61414161413c826126fa565b61411e565b82525050565b60006141538286614130565b6014820191506141638285613853565b6020820191506141738284614130565b60148201915081905094935050505056fea26469706673582212206b445441b465d99bebdf7aa79c222bd50a3dddbbf6225f9ca0f40f0b4720646264736f6c63430008110033",
  "linkReferences": {},
  "deployedLinkReferences": {}
}